{
	"try.sol": {
		"test": {
			"abi": [
				{
					"inputs": [],
					"name": "a",
					"outputs": [
						{
							"internalType": "uint256",
							"name": "",
							"type": "uint256"
						}
					],
					"stateMutability": "view",
					"type": "function"
				},
				{
					"inputs": [
						{
							"internalType": "uint256",
							"name": "",
							"type": "uint256"
						}
					],
					"name": "arr",
					"outputs": [
						{
							"internalType": "uint256",
							"name": "",
							"type": "uint256"
						}
					],
					"stateMutability": "view",
					"type": "function"
				},
				{
					"inputs": [],
					"name": "s1",
					"outputs": [
						{
							"internalType": "uint256",
							"name": "id",
							"type": "uint256"
						},
						{
							"internalType": "string",
							"name": "name",
							"type": "string"
						}
					],
					"stateMutability": "view",
					"type": "function"
				},
				{
					"inputs": [
						{
							"internalType": "uint256",
							"name": "ind",
							"type": "uint256"
						},
						{
							"internalType": "uint256",
							"name": "val",
							"type": "uint256"
						}
					],
					"name": "setArr",
					"outputs": [],
					"stateMutability": "nonpayable",
					"type": "function"
				},
				{
					"inputs": [
						{
							"internalType": "uint256",
							"name": "i",
							"type": "uint256"
						},
						{
							"internalType": "string",
							"name": "n",
							"type": "string"
						}
					],
					"name": "setStu",
					"outputs": [],
					"stateMutability": "nonpayable",
					"type": "function"
				}
			],
			"devdoc": {
				"kind": "dev",
				"methods": {},
				"version": 1
			},
			"evm": {
				"assembly": "    /* \"try.sol\":59:411  contract test{... */\n  mstore(0x40, 0x80)\n    /* \"try.sol\":289:290  1 */\n  0x01\n    /* \"try.sol\":273:290  uint public a = 1 */\n  0x02\n  sstore\n    /* \"try.sol\":297:327  uint[4] public arr = [1,2,3,4] */\n  mload(0x40)\n  dup1\n  0x80\n  add\n  0x40\n  mstore\n  dup1\n    /* \"try.sol\":319:320  1 */\n  0x01\n    /* \"try.sol\":297:327  uint[4] public arr = [1,2,3,4] */\n  0xff\n  and\n  dup2\n  mstore\n  0x20\n  add\n    /* \"try.sol\":321:322  2 */\n  0x02\n    /* \"try.sol\":297:327  uint[4] public arr = [1,2,3,4] */\n  0xff\n  and\n  dup2\n  mstore\n  0x20\n  add\n    /* \"try.sol\":323:324  3 */\n  0x03\n    /* \"try.sol\":297:327  uint[4] public arr = [1,2,3,4] */\n  0xff\n  and\n  dup2\n  mstore\n  0x20\n  add\n    /* \"try.sol\":325:326  4 */\n  0x04\n    /* \"try.sol\":297:327  uint[4] public arr = [1,2,3,4] */\n  0xff\n  and\n  dup2\n  mstore\n  pop\n  0x03\n  swap1\n  0x04\n  tag_1\n  swap3\n  swap2\n  swap1\n  tag_2\n  jump\t// in\ntag_1:\n  pop\n    /* \"try.sol\":59:411  contract test{... */\n  callvalue\n  dup1\n  iszero\n  tag_3\n  jumpi\n  0x00\n  dup1\n  revert\ntag_3:\n  pop\n  jump(tag_4)\ntag_2:\n  dup3\n  0x04\n  dup2\n  add\n  swap3\n  dup3\n  iszero\n  tag_5\n  jumpi\n  swap2\n  0x20\n  mul\n  dup3\n  add\ntag_6:\n  dup3\n  dup2\n  gt\n  iszero\n  tag_7\n  jumpi\n  dup3\n  mload\n  dup3\n  swap1\n  0xff\n  and\n  swap1\n  sstore\n  swap2\n  0x20\n  add\n  swap2\n  swap1\n  0x01\n  add\n  swap1\n  jump(tag_6)\ntag_7:\ntag_5:\n  pop\n  swap1\n  pop\n  tag_8\n  swap2\n  swap1\n  tag_9\n  jump\t// in\ntag_8:\n  pop\n  swap1\n  jump\t// out\ntag_9:\ntag_10:\n  dup1\n  dup3\n  gt\n  iszero\n  tag_11\n  jumpi\n  0x00\n  dup2\n  0x00\n  swap1\n  sstore\n  pop\n  0x01\n  add\n  jump(tag_10)\ntag_11:\n  pop\n  swap1\n  jump\t// out\ntag_4:\n  dataSize(sub_0)\n  dup1\n  dataOffset(sub_0)\n  0x00\n  codecopy\n  0x00\n  return\nstop\n\nsub_0: assembly {\n        /* \"try.sol\":59:411  contract test{... */\n      mstore(0x40, 0x80)\n      callvalue\n      dup1\n      iszero\n      tag_1\n      jumpi\n      0x00\n      dup1\n      revert\n    tag_1:\n      pop\n      jumpi(tag_2, lt(calldatasize, 0x04))\n      shr(0xe0, calldataload(0x00))\n      dup1\n      0x0dbe671f\n      eq\n      tag_3\n      jumpi\n      dup1\n      0x0e29c83d\n      eq\n      tag_4\n      jumpi\n      dup1\n      0x6cc014de\n      eq\n      tag_5\n      jumpi\n      dup1\n      0x71e5ee5f\n      eq\n      tag_6\n      jumpi\n      dup1\n      0x7ff04d48\n      eq\n      tag_7\n      jumpi\n    tag_2:\n      0x00\n      dup1\n      revert\n        /* \"try.sol\":273:290  uint public a = 1 */\n    tag_3:\n      tag_8\n      tag_9\n      jump\t// in\n    tag_8:\n      mload(0x40)\n      tag_10\n      swap2\n      swap1\n      tag_11\n      jump\t// in\n    tag_10:\n      mload(0x40)\n      dup1\n      swap2\n      sub\n      swap1\n      return\n        /* \"try.sol\":171:267  function setStu(uint i,string memory n) public{... */\n    tag_4:\n      tag_12\n      0x04\n      dup1\n      calldatasize\n      sub\n      dup2\n      add\n      swap1\n      tag_13\n      swap2\n      swap1\n      tag_14\n      jump\t// in\n    tag_13:\n      tag_15\n      jump\t// in\n    tag_12:\n      stop\n        /* \"try.sol\":147:164  Student public s1 */\n    tag_5:\n      tag_16\n      tag_17\n      jump\t// in\n    tag_16:\n      mload(0x40)\n      tag_18\n      swap3\n      swap2\n      swap1\n      tag_19\n      jump\t// in\n    tag_18:\n      mload(0x40)\n      dup1\n      swap2\n      sub\n      swap1\n      return\n        /* \"try.sol\":297:327  uint[4] public arr = [1,2,3,4] */\n    tag_6:\n      tag_20\n      0x04\n      dup1\n      calldatasize\n      sub\n      dup2\n      add\n      swap1\n      tag_21\n      swap2\n      swap1\n      tag_22\n      jump\t// in\n    tag_21:\n      tag_23\n      jump\t// in\n    tag_20:\n      mload(0x40)\n      tag_24\n      swap2\n      swap1\n      tag_11\n      jump\t// in\n    tag_24:\n      mload(0x40)\n      dup1\n      swap2\n      sub\n      swap1\n      return\n        /* \"try.sol\":334:408  function setArr(uint ind,uint val) public{... */\n    tag_7:\n      tag_25\n      0x04\n      dup1\n      calldatasize\n      sub\n      dup2\n      add\n      swap1\n      tag_26\n      swap2\n      swap1\n      tag_27\n      jump\t// in\n    tag_26:\n      tag_28\n      jump\t// in\n    tag_25:\n      stop\n        /* \"try.sol\":273:290  uint public a = 1 */\n    tag_9:\n      sload(0x02)\n      dup2\n      jump\t// out\n        /* \"try.sol\":171:267  function setStu(uint i,string memory n) public{... */\n    tag_15:\n        /* \"try.sol\":236:237  i */\n      dup2\n        /* \"try.sol\":228:230  s1 */\n      0x00\n        /* \"try.sol\":228:233  s1.id */\n      dup1\n      add\n        /* \"try.sol\":228:237  s1.id = i */\n      dup2\n      swap1\n      sstore\n      pop\n        /* \"try.sol\":258:259  n */\n      dup1\n        /* \"try.sol\":248:250  s1 */\n      0x00\n        /* \"try.sol\":248:255  s1.name */\n      0x01\n      add\n        /* \"try.sol\":248:259  s1.name = n */\n      swap1\n      dup2\n      tag_30\n      swap2\n      swap1\n      tag_31\n      jump\t// in\n    tag_30:\n      pop\n        /* \"try.sol\":171:267  function setStu(uint i,string memory n) public{... */\n      pop\n      pop\n      jump\t// out\n        /* \"try.sol\":147:164  Student public s1 */\n    tag_17:\n      0x00\n      dup1\n      0x00\n      add\n      sload\n      swap1\n      dup1\n      0x01\n      add\n      dup1\n      sload\n      tag_32\n      swap1\n      tag_33\n      jump\t// in\n    tag_32:\n      dup1\n      0x1f\n      add\n      0x20\n      dup1\n      swap2\n      div\n      mul\n      0x20\n      add\n      mload(0x40)\n      swap1\n      dup2\n      add\n      0x40\n      mstore\n      dup1\n      swap3\n      swap2\n      swap1\n      dup2\n      dup2\n      mstore\n      0x20\n      add\n      dup3\n      dup1\n      sload\n      tag_34\n      swap1\n      tag_33\n      jump\t// in\n    tag_34:\n      dup1\n      iszero\n      tag_35\n      jumpi\n      dup1\n      0x1f\n      lt\n      tag_36\n      jumpi\n      0x0100\n      dup1\n      dup4\n      sload\n      div\n      mul\n      dup4\n      mstore\n      swap2\n      0x20\n      add\n      swap2\n      jump(tag_35)\n    tag_36:\n      dup3\n      add\n      swap2\n      swap1\n      0x00\n      mstore\n      keccak256(0x00, 0x20)\n      swap1\n    tag_37:\n      dup2\n      sload\n      dup2\n      mstore\n      swap1\n      0x01\n      add\n      swap1\n      0x20\n      add\n      dup1\n      dup4\n      gt\n      tag_37\n      jumpi\n      dup3\n      swap1\n      sub\n      0x1f\n      and\n      dup3\n      add\n      swap2\n    tag_35:\n      pop\n      pop\n      pop\n      pop\n      pop\n      swap1\n      pop\n      dup3\n      jump\t// out\n        /* \"try.sol\":297:327  uint[4] public arr = [1,2,3,4] */\n    tag_23:\n      0x03\n      dup2\n      0x04\n      dup2\n      lt\n      tag_38\n      jumpi\n      0x00\n      dup1\n      revert\n    tag_38:\n      add\n      0x00\n      swap2\n      pop\n      swap1\n      pop\n      sload\n      dup2\n      jump\t// out\n        /* \"try.sol\":334:408  function setArr(uint ind,uint val) public{... */\n    tag_28:\n        /* \"try.sol\":397:400  val */\n      dup1\n        /* \"try.sol\":386:389  arr */\n      0x03\n        /* \"try.sol\":390:393  ind */\n      dup4\n        /* \"try.sol\":386:394  arr[ind] */\n      0x04\n      dup2\n      lt\n      tag_41\n      jumpi\n      tag_42\n      tag_43\n      jump\t// in\n    tag_42:\n    tag_41:\n      add\n        /* \"try.sol\":386:400  arr[ind] = val */\n      dup2\n      swap1\n      sstore\n      pop\n        /* \"try.sol\":334:408  function setArr(uint ind,uint val) public{... */\n      pop\n      pop\n      jump\t// out\n        /* \"#utility.yul\":7:84   */\n    tag_45:\n        /* \"#utility.yul\":44:51   */\n      0x00\n        /* \"#utility.yul\":73:78   */\n      dup2\n        /* \"#utility.yul\":62:78   */\n      swap1\n      pop\n        /* \"#utility.yul\":7:84   */\n      swap2\n      swap1\n      pop\n      jump\t// out\n        /* \"#utility.yul\":90:208   */\n    tag_46:\n        /* \"#utility.yul\":177:201   */\n      tag_85\n        /* \"#utility.yul\":195:200   */\n      dup2\n        /* \"#utility.yul\":177:201   */\n      tag_45\n      jump\t// in\n    tag_85:\n        /* \"#utility.yul\":172:175   */\n      dup3\n        /* \"#utility.yul\":165:202   */\n      mstore\n        /* \"#utility.yul\":90:208   */\n      pop\n      pop\n      jump\t// out\n        /* \"#utility.yul\":214:436   */\n    tag_11:\n        /* \"#utility.yul\":307:311   */\n      0x00\n        /* \"#utility.yul\":345:347   */\n      0x20\n        /* \"#utility.yul\":334:343   */\n      dup3\n        /* \"#utility.yul\":330:348   */\n      add\n        /* \"#utility.yul\":322:348   */\n      swap1\n      pop\n        /* \"#utility.yul\":358:429   */\n      tag_87\n        /* \"#utility.yul\":426:427   */\n      0x00\n        /* \"#utility.yul\":415:424   */\n      dup4\n        /* \"#utility.yul\":411:428   */\n      add\n        /* \"#utility.yul\":402:408   */\n      dup5\n        /* \"#utility.yul\":358:429   */\n      tag_46\n      jump\t// in\n    tag_87:\n        /* \"#utility.yul\":214:436   */\n      swap3\n      swap2\n      pop\n      pop\n      jump\t// out\n        /* \"#utility.yul\":442:517   */\n    tag_47:\n        /* \"#utility.yul\":475:481   */\n      0x00\n        /* \"#utility.yul\":508:510   */\n      0x40\n        /* \"#utility.yul\":502:511   */\n      mload\n        /* \"#utility.yul\":492:511   */\n      swap1\n      pop\n        /* \"#utility.yul\":442:517   */\n      swap1\n      jump\t// out\n        /* \"#utility.yul\":523:640   */\n    tag_48:\n        /* \"#utility.yul\":632:633   */\n      0x00\n        /* \"#utility.yul\":629:630   */\n      dup1\n        /* \"#utility.yul\":622:634   */\n      revert\n        /* \"#utility.yul\":646:763   */\n    tag_49:\n        /* \"#utility.yul\":755:756   */\n      0x00\n        /* \"#utility.yul\":752:753   */\n      dup1\n        /* \"#utility.yul\":745:757   */\n      revert\n        /* \"#utility.yul\":769:891   */\n    tag_50:\n        /* \"#utility.yul\":842:866   */\n      tag_92\n        /* \"#utility.yul\":860:865   */\n      dup2\n        /* \"#utility.yul\":842:866   */\n      tag_45\n      jump\t// in\n    tag_92:\n        /* \"#utility.yul\":835:840   */\n      dup2\n        /* \"#utility.yul\":832:867   */\n      eq\n        /* \"#utility.yul\":822:885   */\n      tag_93\n      jumpi\n        /* \"#utility.yul\":881:882   */\n      0x00\n        /* \"#utility.yul\":878:879   */\n      dup1\n        /* \"#utility.yul\":871:883   */\n      revert\n        /* \"#utility.yul\":822:885   */\n    tag_93:\n        /* \"#utility.yul\":769:891   */\n      pop\n      jump\t// out\n        /* \"#utility.yul\":897:1036   */\n    tag_51:\n        /* \"#utility.yul\":943:948   */\n      0x00\n        /* \"#utility.yul\":981:987   */\n      dup2\n        /* \"#utility.yul\":968:988   */\n      calldataload\n        /* \"#utility.yul\":959:988   */\n      swap1\n      pop\n        /* \"#utility.yul\":997:1030   */\n      tag_95\n        /* \"#utility.yul\":1024:1029   */\n      dup2\n        /* \"#utility.yul\":997:1030   */\n      tag_50\n      jump\t// in\n    tag_95:\n        /* \"#utility.yul\":897:1036   */\n      swap3\n      swap2\n      pop\n      pop\n      jump\t// out\n        /* \"#utility.yul\":1042:1159   */\n    tag_52:\n        /* \"#utility.yul\":1151:1152   */\n      0x00\n        /* \"#utility.yul\":1148:1149   */\n      dup1\n        /* \"#utility.yul\":1141:1153   */\n      revert\n        /* \"#utility.yul\":1165:1282   */\n    tag_53:\n        /* \"#utility.yul\":1274:1275   */\n      0x00\n        /* \"#utility.yul\":1271:1272   */\n      dup1\n        /* \"#utility.yul\":1264:1276   */\n      revert\n        /* \"#utility.yul\":1288:1390   */\n    tag_54:\n        /* \"#utility.yul\":1329:1335   */\n      0x00\n        /* \"#utility.yul\":1380:1382   */\n      0x1f\n        /* \"#utility.yul\":1376:1383   */\n      not\n        /* \"#utility.yul\":1371:1373   */\n      0x1f\n        /* \"#utility.yul\":1364:1369   */\n      dup4\n        /* \"#utility.yul\":1360:1374   */\n      add\n        /* \"#utility.yul\":1356:1384   */\n      and\n        /* \"#utility.yul\":1346:1384   */\n      swap1\n      pop\n        /* \"#utility.yul\":1288:1390   */\n      swap2\n      swap1\n      pop\n      jump\t// out\n        /* \"#utility.yul\":1396:1576   */\n    tag_55:\n        /* \"#utility.yul\":1444:1521   */\n      0x4e487b7100000000000000000000000000000000000000000000000000000000\n        /* \"#utility.yul\":1441:1442   */\n      0x00\n        /* \"#utility.yul\":1434:1522   */\n      mstore\n        /* \"#utility.yul\":1541:1545   */\n      0x41\n        /* \"#utility.yul\":1538:1539   */\n      0x04\n        /* \"#utility.yul\":1531:1546   */\n      mstore\n        /* \"#utility.yul\":1565:1569   */\n      0x24\n        /* \"#utility.yul\":1562:1563   */\n      0x00\n        /* \"#utility.yul\":1555:1570   */\n      revert\n        /* \"#utility.yul\":1582:1863   */\n    tag_56:\n        /* \"#utility.yul\":1665:1692   */\n      tag_101\n        /* \"#utility.yul\":1687:1691   */\n      dup3\n        /* \"#utility.yul\":1665:1692   */\n      tag_54\n      jump\t// in\n    tag_101:\n        /* \"#utility.yul\":1657:1663   */\n      dup2\n        /* \"#utility.yul\":1653:1693   */\n      add\n        /* \"#utility.yul\":1795:1801   */\n      dup2\n        /* \"#utility.yul\":1783:1793   */\n      dup2\n        /* \"#utility.yul\":1780:1802   */\n      lt\n        /* \"#utility.yul\":1759:1777   */\n      0xffffffffffffffff\n        /* \"#utility.yul\":1747:1757   */\n      dup3\n        /* \"#utility.yul\":1744:1778   */\n      gt\n        /* \"#utility.yul\":1741:1803   */\n      or\n        /* \"#utility.yul\":1738:1826   */\n      iszero\n      tag_102\n      jumpi\n        /* \"#utility.yul\":1806:1824   */\n      tag_103\n      tag_55\n      jump\t// in\n    tag_103:\n        /* \"#utility.yul\":1738:1826   */\n    tag_102:\n        /* \"#utility.yul\":1846:1856   */\n      dup1\n        /* \"#utility.yul\":1842:1844   */\n      0x40\n        /* \"#utility.yul\":1835:1857   */\n      mstore\n        /* \"#utility.yul\":1625:1863   */\n      pop\n        /* \"#utility.yul\":1582:1863   */\n      pop\n      pop\n      jump\t// out\n        /* \"#utility.yul\":1869:1998   */\n    tag_57:\n        /* \"#utility.yul\":1903:1909   */\n      0x00\n        /* \"#utility.yul\":1930:1950   */\n      tag_105\n      tag_47\n      jump\t// in\n    tag_105:\n        /* \"#utility.yul\":1920:1950   */\n      swap1\n      pop\n        /* \"#utility.yul\":1959:1992   */\n      tag_106\n        /* \"#utility.yul\":1987:1991   */\n      dup3\n        /* \"#utility.yul\":1979:1985   */\n      dup3\n        /* \"#utility.yul\":1959:1992   */\n      tag_56\n      jump\t// in\n    tag_106:\n        /* \"#utility.yul\":1869:1998   */\n      swap2\n      swap1\n      pop\n      jump\t// out\n        /* \"#utility.yul\":2004:2312   */\n    tag_58:\n        /* \"#utility.yul\":2066:2070   */\n      0x00\n        /* \"#utility.yul\":2156:2174   */\n      0xffffffffffffffff\n        /* \"#utility.yul\":2148:2154   */\n      dup3\n        /* \"#utility.yul\":2145:2175   */\n      gt\n        /* \"#utility.yul\":2142:2198   */\n      iszero\n      tag_108\n      jumpi\n        /* \"#utility.yul\":2178:2196   */\n      tag_109\n      tag_55\n      jump\t// in\n    tag_109:\n        /* \"#utility.yul\":2142:2198   */\n    tag_108:\n        /* \"#utility.yul\":2216:2245   */\n      tag_110\n        /* \"#utility.yul\":2238:2244   */\n      dup3\n        /* \"#utility.yul\":2216:2245   */\n      tag_54\n      jump\t// in\n    tag_110:\n        /* \"#utility.yul\":2208:2245   */\n      swap1\n      pop\n        /* \"#utility.yul\":2300:2304   */\n      0x20\n        /* \"#utility.yul\":2294:2298   */\n      dup2\n        /* \"#utility.yul\":2290:2305   */\n      add\n        /* \"#utility.yul\":2282:2305   */\n      swap1\n      pop\n        /* \"#utility.yul\":2004:2312   */\n      swap2\n      swap1\n      pop\n      jump\t// out\n        /* \"#utility.yul\":2318:2464   */\n    tag_59:\n        /* \"#utility.yul\":2415:2421   */\n      dup3\n        /* \"#utility.yul\":2410:2413   */\n      dup2\n        /* \"#utility.yul\":2405:2408   */\n      dup4\n        /* \"#utility.yul\":2392:2422   */\n      calldatacopy\n        /* \"#utility.yul\":2456:2457   */\n      0x00\n        /* \"#utility.yul\":2447:2453   */\n      dup4\n        /* \"#utility.yul\":2442:2445   */\n      dup4\n        /* \"#utility.yul\":2438:2454   */\n      add\n        /* \"#utility.yul\":2431:2458   */\n      mstore\n        /* \"#utility.yul\":2318:2464   */\n      pop\n      pop\n      pop\n      jump\t// out\n        /* \"#utility.yul\":2470:2895   */\n    tag_60:\n        /* \"#utility.yul\":2548:2553   */\n      0x00\n        /* \"#utility.yul\":2573:2639   */\n      tag_113\n        /* \"#utility.yul\":2589:2638   */\n      tag_114\n        /* \"#utility.yul\":2631:2637   */\n      dup5\n        /* \"#utility.yul\":2589:2638   */\n      tag_58\n      jump\t// in\n    tag_114:\n        /* \"#utility.yul\":2573:2639   */\n      tag_57\n      jump\t// in\n    tag_113:\n        /* \"#utility.yul\":2564:2639   */\n      swap1\n      pop\n        /* \"#utility.yul\":2662:2668   */\n      dup3\n        /* \"#utility.yul\":2655:2660   */\n      dup2\n        /* \"#utility.yul\":2648:2669   */\n      mstore\n        /* \"#utility.yul\":2700:2704   */\n      0x20\n        /* \"#utility.yul\":2693:2698   */\n      dup2\n        /* \"#utility.yul\":2689:2705   */\n      add\n        /* \"#utility.yul\":2738:2741   */\n      dup5\n        /* \"#utility.yul\":2729:2735   */\n      dup5\n        /* \"#utility.yul\":2724:2727   */\n      dup5\n        /* \"#utility.yul\":2720:2736   */\n      add\n        /* \"#utility.yul\":2717:2742   */\n      gt\n        /* \"#utility.yul\":2714:2826   */\n      iszero\n      tag_115\n      jumpi\n        /* \"#utility.yul\":2745:2824   */\n      tag_116\n      tag_53\n      jump\t// in\n    tag_116:\n        /* \"#utility.yul\":2714:2826   */\n    tag_115:\n        /* \"#utility.yul\":2835:2889   */\n      tag_117\n        /* \"#utility.yul\":2882:2888   */\n      dup5\n        /* \"#utility.yul\":2877:2880   */\n      dup3\n        /* \"#utility.yul\":2872:2875   */\n      dup6\n        /* \"#utility.yul\":2835:2889   */\n      tag_59\n      jump\t// in\n    tag_117:\n        /* \"#utility.yul\":2554:2895   */\n      pop\n        /* \"#utility.yul\":2470:2895   */\n      swap4\n      swap3\n      pop\n      pop\n      pop\n      jump\t// out\n        /* \"#utility.yul\":2915:3255   */\n    tag_61:\n        /* \"#utility.yul\":2971:2976   */\n      0x00\n        /* \"#utility.yul\":3020:3023   */\n      dup3\n        /* \"#utility.yul\":3013:3017   */\n      0x1f\n        /* \"#utility.yul\":3005:3011   */\n      dup4\n        /* \"#utility.yul\":3001:3018   */\n      add\n        /* \"#utility.yul\":2997:3024   */\n      slt\n        /* \"#utility.yul\":2987:3109   */\n      tag_119\n      jumpi\n        /* \"#utility.yul\":3028:3107   */\n      tag_120\n      tag_52\n      jump\t// in\n    tag_120:\n        /* \"#utility.yul\":2987:3109   */\n    tag_119:\n        /* \"#utility.yul\":3145:3151   */\n      dup2\n        /* \"#utility.yul\":3132:3152   */\n      calldataload\n        /* \"#utility.yul\":3170:3249   */\n      tag_121\n        /* \"#utility.yul\":3245:3248   */\n      dup5\n        /* \"#utility.yul\":3237:3243   */\n      dup3\n        /* \"#utility.yul\":3230:3234   */\n      0x20\n        /* \"#utility.yul\":3222:3228   */\n      dup7\n        /* \"#utility.yul\":3218:3235   */\n      add\n        /* \"#utility.yul\":3170:3249   */\n      tag_60\n      jump\t// in\n    tag_121:\n        /* \"#utility.yul\":3161:3249   */\n      swap2\n      pop\n        /* \"#utility.yul\":2977:3255   */\n      pop\n        /* \"#utility.yul\":2915:3255   */\n      swap3\n      swap2\n      pop\n      pop\n      jump\t// out\n        /* \"#utility.yul\":3261:3915   */\n    tag_14:\n        /* \"#utility.yul\":3339:3345   */\n      0x00\n        /* \"#utility.yul\":3347:3353   */\n      dup1\n        /* \"#utility.yul\":3396:3398   */\n      0x40\n        /* \"#utility.yul\":3384:3393   */\n      dup4\n        /* \"#utility.yul\":3375:3382   */\n      dup6\n        /* \"#utility.yul\":3371:3394   */\n      sub\n        /* \"#utility.yul\":3367:3399   */\n      slt\n        /* \"#utility.yul\":3364:3483   */\n      iszero\n      tag_123\n      jumpi\n        /* \"#utility.yul\":3402:3481   */\n      tag_124\n      tag_48\n      jump\t// in\n    tag_124:\n        /* \"#utility.yul\":3364:3483   */\n    tag_123:\n        /* \"#utility.yul\":3522:3523   */\n      0x00\n        /* \"#utility.yul\":3547:3600   */\n      tag_125\n        /* \"#utility.yul\":3592:3599   */\n      dup6\n        /* \"#utility.yul\":3583:3589   */\n      dup3\n        /* \"#utility.yul\":3572:3581   */\n      dup7\n        /* \"#utility.yul\":3568:3590   */\n      add\n        /* \"#utility.yul\":3547:3600   */\n      tag_51\n      jump\t// in\n    tag_125:\n        /* \"#utility.yul\":3537:3600   */\n      swap3\n      pop\n        /* \"#utility.yul\":3493:3610   */\n      pop\n        /* \"#utility.yul\":3677:3679   */\n      0x20\n        /* \"#utility.yul\":3666:3675   */\n      dup4\n        /* \"#utility.yul\":3662:3680   */\n      add\n        /* \"#utility.yul\":3649:3681   */\n      calldataload\n        /* \"#utility.yul\":3708:3726   */\n      0xffffffffffffffff\n        /* \"#utility.yul\":3700:3706   */\n      dup2\n        /* \"#utility.yul\":3697:3727   */\n      gt\n        /* \"#utility.yul\":3694:3811   */\n      iszero\n      tag_126\n      jumpi\n        /* \"#utility.yul\":3730:3809   */\n      tag_127\n      tag_49\n      jump\t// in\n    tag_127:\n        /* \"#utility.yul\":3694:3811   */\n    tag_126:\n        /* \"#utility.yul\":3835:3898   */\n      tag_128\n        /* \"#utility.yul\":3890:3897   */\n      dup6\n        /* \"#utility.yul\":3881:3887   */\n      dup3\n        /* \"#utility.yul\":3870:3879   */\n      dup7\n        /* \"#utility.yul\":3866:3888   */\n      add\n        /* \"#utility.yul\":3835:3898   */\n      tag_61\n      jump\t// in\n    tag_128:\n        /* \"#utility.yul\":3825:3898   */\n      swap2\n      pop\n        /* \"#utility.yul\":3620:3908   */\n      pop\n        /* \"#utility.yul\":3261:3915   */\n      swap3\n      pop\n      swap3\n      swap1\n      pop\n      jump\t// out\n        /* \"#utility.yul\":3921:4020   */\n    tag_62:\n        /* \"#utility.yul\":3973:3979   */\n      0x00\n        /* \"#utility.yul\":4007:4012   */\n      dup2\n        /* \"#utility.yul\":4001:4013   */\n      mload\n        /* \"#utility.yul\":3991:4013   */\n      swap1\n      pop\n        /* \"#utility.yul\":3921:4020   */\n      swap2\n      swap1\n      pop\n      jump\t// out\n        /* \"#utility.yul\":4026:4195   */\n    tag_63:\n        /* \"#utility.yul\":4110:4121   */\n      0x00\n        /* \"#utility.yul\":4144:4150   */\n      dup3\n        /* \"#utility.yul\":4139:4142   */\n      dup3\n        /* \"#utility.yul\":4132:4151   */\n      mstore\n        /* \"#utility.yul\":4184:4188   */\n      0x20\n        /* \"#utility.yul\":4179:4182   */\n      dup3\n        /* \"#utility.yul\":4175:4189   */\n      add\n        /* \"#utility.yul\":4160:4189   */\n      swap1\n      pop\n        /* \"#utility.yul\":4026:4195   */\n      swap3\n      swap2\n      pop\n      pop\n      jump\t// out\n        /* \"#utility.yul\":4201:4447   */\n    tag_64:\n        /* \"#utility.yul\":4282:4283   */\n      0x00\n        /* \"#utility.yul\":4292:4405   */\n    tag_132:\n        /* \"#utility.yul\":4306:4312   */\n      dup4\n        /* \"#utility.yul\":4303:4304   */\n      dup2\n        /* \"#utility.yul\":4300:4313   */\n      lt\n        /* \"#utility.yul\":4292:4405   */\n      iszero\n      tag_134\n      jumpi\n        /* \"#utility.yul\":4391:4392   */\n      dup1\n        /* \"#utility.yul\":4386:4389   */\n      dup3\n        /* \"#utility.yul\":4382:4393   */\n      add\n        /* \"#utility.yul\":4376:4394   */\n      mload\n        /* \"#utility.yul\":4372:4373   */\n      dup2\n        /* \"#utility.yul\":4367:4370   */\n      dup5\n        /* \"#utility.yul\":4363:4374   */\n      add\n        /* \"#utility.yul\":4356:4395   */\n      mstore\n        /* \"#utility.yul\":4328:4330   */\n      0x20\n        /* \"#utility.yul\":4325:4326   */\n      dup2\n        /* \"#utility.yul\":4321:4331   */\n      add\n        /* \"#utility.yul\":4316:4331   */\n      swap1\n      pop\n        /* \"#utility.yul\":4292:4405   */\n      jump(tag_132)\n    tag_134:\n        /* \"#utility.yul\":4439:4440   */\n      0x00\n        /* \"#utility.yul\":4430:4436   */\n      dup5\n        /* \"#utility.yul\":4425:4428   */\n      dup5\n        /* \"#utility.yul\":4421:4437   */\n      add\n        /* \"#utility.yul\":4414:4441   */\n      mstore\n        /* \"#utility.yul\":4263:4447   */\n      pop\n        /* \"#utility.yul\":4201:4447   */\n      pop\n      pop\n      pop\n      jump\t// out\n        /* \"#utility.yul\":4453:4830   */\n    tag_65:\n        /* \"#utility.yul\":4541:4544   */\n      0x00\n        /* \"#utility.yul\":4569:4608   */\n      tag_136\n        /* \"#utility.yul\":4602:4607   */\n      dup3\n        /* \"#utility.yul\":4569:4608   */\n      tag_62\n      jump\t// in\n    tag_136:\n        /* \"#utility.yul\":4624:4695   */\n      tag_137\n        /* \"#utility.yul\":4688:4694   */\n      dup2\n        /* \"#utility.yul\":4683:4686   */\n      dup6\n        /* \"#utility.yul\":4624:4695   */\n      tag_63\n      jump\t// in\n    tag_137:\n        /* \"#utility.yul\":4617:4695   */\n      swap4\n      pop\n        /* \"#utility.yul\":4704:4769   */\n      tag_138\n        /* \"#utility.yul\":4762:4768   */\n      dup2\n        /* \"#utility.yul\":4757:4760   */\n      dup6\n        /* \"#utility.yul\":4750:4754   */\n      0x20\n        /* \"#utility.yul\":4743:4748   */\n      dup7\n        /* \"#utility.yul\":4739:4755   */\n      add\n        /* \"#utility.yul\":4704:4769   */\n      tag_64\n      jump\t// in\n    tag_138:\n        /* \"#utility.yul\":4794:4823   */\n      tag_139\n        /* \"#utility.yul\":4816:4822   */\n      dup2\n        /* \"#utility.yul\":4794:4823   */\n      tag_54\n      jump\t// in\n    tag_139:\n        /* \"#utility.yul\":4789:4792   */\n      dup5\n        /* \"#utility.yul\":4785:4824   */\n      add\n        /* \"#utility.yul\":4778:4824   */\n      swap2\n      pop\n        /* \"#utility.yul\":4545:4830   */\n      pop\n        /* \"#utility.yul\":4453:4830   */\n      swap3\n      swap2\n      pop\n      pop\n      jump\t// out\n        /* \"#utility.yul\":4836:5259   */\n    tag_19:\n        /* \"#utility.yul\":4977:4981   */\n      0x00\n        /* \"#utility.yul\":5015:5017   */\n      0x40\n        /* \"#utility.yul\":5004:5013   */\n      dup3\n        /* \"#utility.yul\":5000:5018   */\n      add\n        /* \"#utility.yul\":4992:5018   */\n      swap1\n      pop\n        /* \"#utility.yul\":5028:5099   */\n      tag_141\n        /* \"#utility.yul\":5096:5097   */\n      0x00\n        /* \"#utility.yul\":5085:5094   */\n      dup4\n        /* \"#utility.yul\":5081:5098   */\n      add\n        /* \"#utility.yul\":5072:5078   */\n      dup6\n        /* \"#utility.yul\":5028:5099   */\n      tag_46\n      jump\t// in\n    tag_141:\n        /* \"#utility.yul\":5146:5155   */\n      dup2\n        /* \"#utility.yul\":5140:5144   */\n      dup2\n        /* \"#utility.yul\":5136:5156   */\n      sub\n        /* \"#utility.yul\":5131:5133   */\n      0x20\n        /* \"#utility.yul\":5120:5129   */\n      dup4\n        /* \"#utility.yul\":5116:5134   */\n      add\n        /* \"#utility.yul\":5109:5157   */\n      mstore\n        /* \"#utility.yul\":5174:5252   */\n      tag_142\n        /* \"#utility.yul\":5247:5251   */\n      dup2\n        /* \"#utility.yul\":5238:5244   */\n      dup5\n        /* \"#utility.yul\":5174:5252   */\n      tag_65\n      jump\t// in\n    tag_142:\n        /* \"#utility.yul\":5166:5252   */\n      swap1\n      pop\n        /* \"#utility.yul\":4836:5259   */\n      swap4\n      swap3\n      pop\n      pop\n      pop\n      jump\t// out\n        /* \"#utility.yul\":5265:5594   */\n    tag_22:\n        /* \"#utility.yul\":5324:5330   */\n      0x00\n        /* \"#utility.yul\":5373:5375   */\n      0x20\n        /* \"#utility.yul\":5361:5370   */\n      dup3\n        /* \"#utility.yul\":5352:5359   */\n      dup5\n        /* \"#utility.yul\":5348:5371   */\n      sub\n        /* \"#utility.yul\":5344:5376   */\n      slt\n        /* \"#utility.yul\":5341:5460   */\n      iszero\n      tag_144\n      jumpi\n        /* \"#utility.yul\":5379:5458   */\n      tag_145\n      tag_48\n      jump\t// in\n    tag_145:\n        /* \"#utility.yul\":5341:5460   */\n    tag_144:\n        /* \"#utility.yul\":5499:5500   */\n      0x00\n        /* \"#utility.yul\":5524:5577   */\n      tag_146\n        /* \"#utility.yul\":5569:5576   */\n      dup5\n        /* \"#utility.yul\":5560:5566   */\n      dup3\n        /* \"#utility.yul\":5549:5558   */\n      dup6\n        /* \"#utility.yul\":5545:5567   */\n      add\n        /* \"#utility.yul\":5524:5577   */\n      tag_51\n      jump\t// in\n    tag_146:\n        /* \"#utility.yul\":5514:5577   */\n      swap2\n      pop\n        /* \"#utility.yul\":5470:5587   */\n      pop\n        /* \"#utility.yul\":5265:5594   */\n      swap3\n      swap2\n      pop\n      pop\n      jump\t// out\n        /* \"#utility.yul\":5600:6074   */\n    tag_27:\n        /* \"#utility.yul\":5668:5674   */\n      0x00\n        /* \"#utility.yul\":5676:5682   */\n      dup1\n        /* \"#utility.yul\":5725:5727   */\n      0x40\n        /* \"#utility.yul\":5713:5722   */\n      dup4\n        /* \"#utility.yul\":5704:5711   */\n      dup6\n        /* \"#utility.yul\":5700:5723   */\n      sub\n        /* \"#utility.yul\":5696:5728   */\n      slt\n        /* \"#utility.yul\":5693:5812   */\n      iszero\n      tag_148\n      jumpi\n        /* \"#utility.yul\":5731:5810   */\n      tag_149\n      tag_48\n      jump\t// in\n    tag_149:\n        /* \"#utility.yul\":5693:5812   */\n    tag_148:\n        /* \"#utility.yul\":5851:5852   */\n      0x00\n        /* \"#utility.yul\":5876:5929   */\n      tag_150\n        /* \"#utility.yul\":5921:5928   */\n      dup6\n        /* \"#utility.yul\":5912:5918   */\n      dup3\n        /* \"#utility.yul\":5901:5910   */\n      dup7\n        /* \"#utility.yul\":5897:5919   */\n      add\n        /* \"#utility.yul\":5876:5929   */\n      tag_51\n      jump\t// in\n    tag_150:\n        /* \"#utility.yul\":5866:5929   */\n      swap3\n      pop\n        /* \"#utility.yul\":5822:5939   */\n      pop\n        /* \"#utility.yul\":5978:5980   */\n      0x20\n        /* \"#utility.yul\":6004:6057   */\n      tag_151\n        /* \"#utility.yul\":6049:6056   */\n      dup6\n        /* \"#utility.yul\":6040:6046   */\n      dup3\n        /* \"#utility.yul\":6029:6038   */\n      dup7\n        /* \"#utility.yul\":6025:6047   */\n      add\n        /* \"#utility.yul\":6004:6057   */\n      tag_51\n      jump\t// in\n    tag_151:\n        /* \"#utility.yul\":5994:6057   */\n      swap2\n      pop\n        /* \"#utility.yul\":5949:6067   */\n      pop\n        /* \"#utility.yul\":5600:6074   */\n      swap3\n      pop\n      swap3\n      swap1\n      pop\n      jump\t// out\n        /* \"#utility.yul\":6080:6260   */\n    tag_66:\n        /* \"#utility.yul\":6128:6205   */\n      0x4e487b7100000000000000000000000000000000000000000000000000000000\n        /* \"#utility.yul\":6125:6126   */\n      0x00\n        /* \"#utility.yul\":6118:6206   */\n      mstore\n        /* \"#utility.yul\":6225:6229   */\n      0x22\n        /* \"#utility.yul\":6222:6223   */\n      0x04\n        /* \"#utility.yul\":6215:6230   */\n      mstore\n        /* \"#utility.yul\":6249:6253   */\n      0x24\n        /* \"#utility.yul\":6246:6247   */\n      0x00\n        /* \"#utility.yul\":6239:6254   */\n      revert\n        /* \"#utility.yul\":6266:6586   */\n    tag_33:\n        /* \"#utility.yul\":6310:6316   */\n      0x00\n        /* \"#utility.yul\":6347:6348   */\n      0x02\n        /* \"#utility.yul\":6341:6345   */\n      dup3\n        /* \"#utility.yul\":6337:6349   */\n      div\n        /* \"#utility.yul\":6327:6349   */\n      swap1\n      pop\n        /* \"#utility.yul\":6394:6395   */\n      0x01\n        /* \"#utility.yul\":6388:6392   */\n      dup3\n        /* \"#utility.yul\":6384:6396   */\n      and\n        /* \"#utility.yul\":6415:6433   */\n      dup1\n        /* \"#utility.yul\":6405:6486   */\n      tag_154\n      jumpi\n        /* \"#utility.yul\":6471:6475   */\n      0x7f\n        /* \"#utility.yul\":6463:6469   */\n      dup3\n        /* \"#utility.yul\":6459:6476   */\n      and\n        /* \"#utility.yul\":6449:6476   */\n      swap2\n      pop\n        /* \"#utility.yul\":6405:6486   */\n    tag_154:\n        /* \"#utility.yul\":6533:6535   */\n      0x20\n        /* \"#utility.yul\":6525:6531   */\n      dup3\n        /* \"#utility.yul\":6522:6536   */\n      lt\n        /* \"#utility.yul\":6502:6520   */\n      dup2\n        /* \"#utility.yul\":6499:6537   */\n      sub\n        /* \"#utility.yul\":6496:6580   */\n      tag_155\n      jumpi\n        /* \"#utility.yul\":6552:6570   */\n      tag_156\n      tag_66\n      jump\t// in\n    tag_156:\n        /* \"#utility.yul\":6496:6580   */\n    tag_155:\n        /* \"#utility.yul\":6317:6586   */\n      pop\n        /* \"#utility.yul\":6266:6586   */\n      swap2\n      swap1\n      pop\n      jump\t// out\n        /* \"#utility.yul\":6592:6733   */\n    tag_67:\n        /* \"#utility.yul\":6641:6645   */\n      0x00\n        /* \"#utility.yul\":6664:6667   */\n      dup2\n        /* \"#utility.yul\":6656:6667   */\n      swap1\n      pop\n        /* \"#utility.yul\":6687:6690   */\n      dup2\n        /* \"#utility.yul\":6684:6685   */\n      0x00\n        /* \"#utility.yul\":6677:6691   */\n      mstore\n        /* \"#utility.yul\":6721:6725   */\n      0x20\n        /* \"#utility.yul\":6718:6719   */\n      0x00\n        /* \"#utility.yul\":6708:6726   */\n      keccak256\n        /* \"#utility.yul\":6700:6726   */\n      swap1\n      pop\n        /* \"#utility.yul\":6592:6733   */\n      swap2\n      swap1\n      pop\n      jump\t// out\n        /* \"#utility.yul\":6739:6832   */\n    tag_68:\n        /* \"#utility.yul\":6776:6782   */\n      0x00\n        /* \"#utility.yul\":6823:6825   */\n      0x20\n        /* \"#utility.yul\":6818:6820   */\n      0x1f\n        /* \"#utility.yul\":6811:6816   */\n      dup4\n        /* \"#utility.yul\":6807:6821   */\n      add\n        /* \"#utility.yul\":6803:6826   */\n      div\n        /* \"#utility.yul\":6793:6826   */\n      swap1\n      pop\n        /* \"#utility.yul\":6739:6832   */\n      swap2\n      swap1\n      pop\n      jump\t// out\n        /* \"#utility.yul\":6838:6945   */\n    tag_69:\n        /* \"#utility.yul\":6882:6890   */\n      0x00\n        /* \"#utility.yul\":6932:6937   */\n      dup3\n        /* \"#utility.yul\":6926:6930   */\n      dup3\n        /* \"#utility.yul\":6922:6938   */\n      shl\n        /* \"#utility.yul\":6901:6938   */\n      swap1\n      pop\n        /* \"#utility.yul\":6838:6945   */\n      swap3\n      swap2\n      pop\n      pop\n      jump\t// out\n        /* \"#utility.yul\":6951:7344   */\n    tag_70:\n        /* \"#utility.yul\":7020:7026   */\n      0x00\n        /* \"#utility.yul\":7070:7071   */\n      0x08\n        /* \"#utility.yul\":7058:7068   */\n      dup4\n        /* \"#utility.yul\":7054:7072   */\n      mul\n        /* \"#utility.yul\":7093:7190   */\n      tag_161\n        /* \"#utility.yul\":7123:7189   */\n      0xffffffffffffffffffffffffffffffffffffffffffffffffffffffffffffffff\n        /* \"#utility.yul\":7112:7121   */\n      dup3\n        /* \"#utility.yul\":7093:7190   */\n      tag_69\n      jump\t// in\n    tag_161:\n        /* \"#utility.yul\":7211:7250   */\n      tag_162\n        /* \"#utility.yul\":7241:7249   */\n      dup7\n        /* \"#utility.yul\":7230:7239   */\n      dup4\n        /* \"#utility.yul\":7211:7250   */\n      tag_69\n      jump\t// in\n    tag_162:\n        /* \"#utility.yul\":7199:7250   */\n      swap6\n      pop\n        /* \"#utility.yul\":7283:7287   */\n      dup1\n        /* \"#utility.yul\":7279:7288   */\n      not\n        /* \"#utility.yul\":7272:7277   */\n      dup5\n        /* \"#utility.yul\":7268:7289   */\n      and\n        /* \"#utility.yul\":7259:7289   */\n      swap4\n      pop\n        /* \"#utility.yul\":7332:7336   */\n      dup1\n        /* \"#utility.yul\":7322:7330   */\n      dup7\n        /* \"#utility.yul\":7318:7337   */\n      and\n        /* \"#utility.yul\":7311:7316   */\n      dup5\n        /* \"#utility.yul\":7308:7338   */\n      or\n        /* \"#utility.yul\":7298:7338   */\n      swap3\n      pop\n        /* \"#utility.yul\":7027:7344   */\n      pop\n      pop\n        /* \"#utility.yul\":6951:7344   */\n      swap4\n      swap3\n      pop\n      pop\n      pop\n      jump\t// out\n        /* \"#utility.yul\":7350:7410   */\n    tag_71:\n        /* \"#utility.yul\":7378:7381   */\n      0x00\n        /* \"#utility.yul\":7399:7404   */\n      dup2\n        /* \"#utility.yul\":7392:7404   */\n      swap1\n      pop\n        /* \"#utility.yul\":7350:7410   */\n      swap2\n      swap1\n      pop\n      jump\t// out\n        /* \"#utility.yul\":7416:7558   */\n    tag_72:\n        /* \"#utility.yul\":7466:7475   */\n      0x00\n        /* \"#utility.yul\":7499:7552   */\n      tag_165\n        /* \"#utility.yul\":7517:7551   */\n      tag_166\n        /* \"#utility.yul\":7526:7550   */\n      tag_167\n        /* \"#utility.yul\":7544:7549   */\n      dup5\n        /* \"#utility.yul\":7526:7550   */\n      tag_45\n      jump\t// in\n    tag_167:\n        /* \"#utility.yul\":7517:7551   */\n      tag_71\n      jump\t// in\n    tag_166:\n        /* \"#utility.yul\":7499:7552   */\n      tag_45\n      jump\t// in\n    tag_165:\n        /* \"#utility.yul\":7486:7552   */\n      swap1\n      pop\n        /* \"#utility.yul\":7416:7558   */\n      swap2\n      swap1\n      pop\n      jump\t// out\n        /* \"#utility.yul\":7564:7639   */\n    tag_73:\n        /* \"#utility.yul\":7607:7610   */\n      0x00\n        /* \"#utility.yul\":7628:7633   */\n      dup2\n        /* \"#utility.yul\":7621:7633   */\n      swap1\n      pop\n        /* \"#utility.yul\":7564:7639   */\n      swap2\n      swap1\n      pop\n      jump\t// out\n        /* \"#utility.yul\":7645:7914   */\n    tag_74:\n        /* \"#utility.yul\":7755:7794   */\n      tag_170\n        /* \"#utility.yul\":7786:7793   */\n      dup4\n        /* \"#utility.yul\":7755:7794   */\n      tag_72\n      jump\t// in\n    tag_170:\n        /* \"#utility.yul\":7816:7907   */\n      tag_171\n        /* \"#utility.yul\":7865:7906   */\n      tag_172\n        /* \"#utility.yul\":7889:7905   */\n      dup3\n        /* \"#utility.yul\":7865:7906   */\n      tag_73\n      jump\t// in\n    tag_172:\n        /* \"#utility.yul\":7857:7863   */\n      dup5\n        /* \"#utility.yul\":7850:7854   */\n      dup5\n        /* \"#utility.yul\":7844:7855   */\n      sload\n        /* \"#utility.yul\":7816:7907   */\n      tag_70\n      jump\t// in\n    tag_171:\n        /* \"#utility.yul\":7810:7814   */\n      dup3\n        /* \"#utility.yul\":7803:7908   */\n      sstore\n        /* \"#utility.yul\":7721:7914   */\n      pop\n        /* \"#utility.yul\":7645:7914   */\n      pop\n      pop\n      pop\n      jump\t// out\n        /* \"#utility.yul\":7920:7993   */\n    tag_75:\n        /* \"#utility.yul\":7965:7968   */\n      0x00\n        /* \"#utility.yul\":7920:7993   */\n      swap1\n      jump\t// out\n        /* \"#utility.yul\":7999:8188   */\n    tag_76:\n        /* \"#utility.yul\":8076:8108   */\n      tag_175\n      tag_75\n      jump\t// in\n    tag_175:\n        /* \"#utility.yul\":8117:8182   */\n      tag_176\n        /* \"#utility.yul\":8175:8181   */\n      dup2\n        /* \"#utility.yul\":8167:8173   */\n      dup5\n        /* \"#utility.yul\":8161:8165   */\n      dup5\n        /* \"#utility.yul\":8117:8182   */\n      tag_74\n      jump\t// in\n    tag_176:\n        /* \"#utility.yul\":8052:8188   */\n      pop\n        /* \"#utility.yul\":7999:8188   */\n      pop\n      pop\n      jump\t// out\n        /* \"#utility.yul\":8194:8380   */\n    tag_77:\n        /* \"#utility.yul\":8254:8374   */\n    tag_178:\n        /* \"#utility.yul\":8271:8274   */\n      dup2\n        /* \"#utility.yul\":8264:8269   */\n      dup2\n        /* \"#utility.yul\":8261:8275   */\n      lt\n        /* \"#utility.yul\":8254:8374   */\n      iszero\n      tag_180\n      jumpi\n        /* \"#utility.yul\":8325:8364   */\n      tag_181\n        /* \"#utility.yul\":8362:8363   */\n      0x00\n        /* \"#utility.yul\":8355:8360   */\n      dup3\n        /* \"#utility.yul\":8325:8364   */\n      tag_76\n      jump\t// in\n    tag_181:\n        /* \"#utility.yul\":8298:8299   */\n      0x01\n        /* \"#utility.yul\":8291:8296   */\n      dup2\n        /* \"#utility.yul\":8287:8300   */\n      add\n        /* \"#utility.yul\":8278:8300   */\n      swap1\n      pop\n        /* \"#utility.yul\":8254:8374   */\n      jump(tag_178)\n    tag_180:\n        /* \"#utility.yul\":8194:8380   */\n      pop\n      pop\n      jump\t// out\n        /* \"#utility.yul\":8386:8929   */\n    tag_78:\n        /* \"#utility.yul\":8487:8489   */\n      0x1f\n        /* \"#utility.yul\":8482:8485   */\n      dup3\n        /* \"#utility.yul\":8479:8490   */\n      gt\n        /* \"#utility.yul\":8476:8922   */\n      iszero\n      tag_183\n      jumpi\n        /* \"#utility.yul\":8521:8559   */\n      tag_184\n        /* \"#utility.yul\":8553:8558   */\n      dup2\n        /* \"#utility.yul\":8521:8559   */\n      tag_67\n      jump\t// in\n    tag_184:\n        /* \"#utility.yul\":8605:8634   */\n      tag_185\n        /* \"#utility.yul\":8623:8633   */\n      dup5\n        /* \"#utility.yul\":8605:8634   */\n      tag_68\n      jump\t// in\n    tag_185:\n        /* \"#utility.yul\":8595:8603   */\n      dup2\n        /* \"#utility.yul\":8591:8635   */\n      add\n        /* \"#utility.yul\":8788:8790   */\n      0x20\n        /* \"#utility.yul\":8776:8786   */\n      dup6\n        /* \"#utility.yul\":8773:8791   */\n      lt\n        /* \"#utility.yul\":8770:8819   */\n      iszero\n      tag_186\n      jumpi\n        /* \"#utility.yul\":8809:8817   */\n      dup2\n        /* \"#utility.yul\":8794:8817   */\n      swap1\n      pop\n        /* \"#utility.yul\":8770:8819   */\n    tag_186:\n        /* \"#utility.yul\":8832:8912   */\n      tag_187\n        /* \"#utility.yul\":8888:8910   */\n      tag_188\n        /* \"#utility.yul\":8906:8909   */\n      dup6\n        /* \"#utility.yul\":8888:8910   */\n      tag_68\n      jump\t// in\n    tag_188:\n        /* \"#utility.yul\":8878:8886   */\n      dup4\n        /* \"#utility.yul\":8874:8911   */\n      add\n        /* \"#utility.yul\":8861:8872   */\n      dup3\n        /* \"#utility.yul\":8832:8912   */\n      tag_77\n      jump\t// in\n    tag_187:\n        /* \"#utility.yul\":8491:8922   */\n      pop\n      pop\n        /* \"#utility.yul\":8476:8922   */\n    tag_183:\n        /* \"#utility.yul\":8386:8929   */\n      pop\n      pop\n      pop\n      jump\t// out\n        /* \"#utility.yul\":8935:9052   */\n    tag_79:\n        /* \"#utility.yul\":8989:8997   */\n      0x00\n        /* \"#utility.yul\":9039:9044   */\n      dup3\n        /* \"#utility.yul\":9033:9037   */\n      dup3\n        /* \"#utility.yul\":9029:9045   */\n      shr\n        /* \"#utility.yul\":9008:9045   */\n      swap1\n      pop\n        /* \"#utility.yul\":8935:9052   */\n      swap3\n      swap2\n      pop\n      pop\n      jump\t// out\n        /* \"#utility.yul\":9058:9227   */\n    tag_80:\n        /* \"#utility.yul\":9102:9108   */\n      0x00\n        /* \"#utility.yul\":9135:9186   */\n      tag_191\n        /* \"#utility.yul\":9183:9184   */\n      0x00\n        /* \"#utility.yul\":9179:9185   */\n      not\n        /* \"#utility.yul\":9171:9176   */\n      dup5\n        /* \"#utility.yul\":9168:9169   */\n      0x08\n        /* \"#utility.yul\":9164:9177   */\n      mul\n        /* \"#utility.yul\":9135:9186   */\n      tag_79\n      jump\t// in\n    tag_191:\n        /* \"#utility.yul\":9131:9187   */\n      not\n        /* \"#utility.yul\":9216:9220   */\n      dup1\n        /* \"#utility.yul\":9210:9214   */\n      dup4\n        /* \"#utility.yul\":9206:9221   */\n      and\n        /* \"#utility.yul\":9196:9221   */\n      swap2\n      pop\n        /* \"#utility.yul\":9109:9227   */\n      pop\n        /* \"#utility.yul\":9058:9227   */\n      swap3\n      swap2\n      pop\n      pop\n      jump\t// out\n        /* \"#utility.yul\":9232:9527   */\n    tag_81:\n        /* \"#utility.yul\":9308:9312   */\n      0x00\n        /* \"#utility.yul\":9454:9483   */\n      tag_193\n        /* \"#utility.yul\":9479:9482   */\n      dup4\n        /* \"#utility.yul\":9473:9477   */\n      dup4\n        /* \"#utility.yul\":9454:9483   */\n      tag_80\n      jump\t// in\n    tag_193:\n        /* \"#utility.yul\":9446:9483   */\n      swap2\n      pop\n        /* \"#utility.yul\":9516:9519   */\n      dup3\n        /* \"#utility.yul\":9513:9514   */\n      0x02\n        /* \"#utility.yul\":9509:9520   */\n      mul\n        /* \"#utility.yul\":9503:9507   */\n      dup3\n        /* \"#utility.yul\":9500:9521   */\n      or\n        /* \"#utility.yul\":9492:9521   */\n      swap1\n      pop\n        /* \"#utility.yul\":9232:9527   */\n      swap3\n      swap2\n      pop\n      pop\n      jump\t// out\n        /* \"#utility.yul\":9532:10927   */\n    tag_31:\n        /* \"#utility.yul\":9649:9686   */\n      tag_195\n        /* \"#utility.yul\":9682:9685   */\n      dup3\n        /* \"#utility.yul\":9649:9686   */\n      tag_62\n      jump\t// in\n    tag_195:\n        /* \"#utility.yul\":9751:9769   */\n      0xffffffffffffffff\n        /* \"#utility.yul\":9743:9749   */\n      dup2\n        /* \"#utility.yul\":9740:9770   */\n      gt\n        /* \"#utility.yul\":9737:9793   */\n      iszero\n      tag_196\n      jumpi\n        /* \"#utility.yul\":9773:9791   */\n      tag_197\n      tag_55\n      jump\t// in\n    tag_197:\n        /* \"#utility.yul\":9737:9793   */\n    tag_196:\n        /* \"#utility.yul\":9817:9855   */\n      tag_198\n        /* \"#utility.yul\":9849:9853   */\n      dup3\n        /* \"#utility.yul\":9843:9854   */\n      sload\n        /* \"#utility.yul\":9817:9855   */\n      tag_33\n      jump\t// in\n    tag_198:\n        /* \"#utility.yul\":9902:9969   */\n      tag_199\n        /* \"#utility.yul\":9962:9968   */\n      dup3\n        /* \"#utility.yul\":9954:9960   */\n      dup3\n        /* \"#utility.yul\":9948:9952   */\n      dup6\n        /* \"#utility.yul\":9902:9969   */\n      tag_78\n      jump\t// in\n    tag_199:\n        /* \"#utility.yul\":9996:9997   */\n      0x00\n        /* \"#utility.yul\":10020:10024   */\n      0x20\n        /* \"#utility.yul\":10007:10024   */\n      swap1\n      pop\n        /* \"#utility.yul\":10052:10054   */\n      0x1f\n        /* \"#utility.yul\":10044:10050   */\n      dup4\n        /* \"#utility.yul\":10041:10055   */\n      gt\n        /* \"#utility.yul\":10069:10070   */\n      0x01\n        /* \"#utility.yul\":10064:10682   */\n      dup2\n      eq\n      tag_201\n      jumpi\n        /* \"#utility.yul\":10726:10727   */\n      0x00\n        /* \"#utility.yul\":10743:10749   */\n      dup5\n        /* \"#utility.yul\":10740:10817   */\n      iszero\n      tag_202\n      jumpi\n        /* \"#utility.yul\":10792:10801   */\n      dup3\n        /* \"#utility.yul\":10787:10790   */\n      dup8\n        /* \"#utility.yul\":10783:10802   */\n      add\n        /* \"#utility.yul\":10777:10803   */\n      mload\n        /* \"#utility.yul\":10768:10803   */\n      swap1\n      pop\n        /* \"#utility.yul\":10740:10817   */\n    tag_202:\n        /* \"#utility.yul\":10843:10910   */\n      tag_203\n        /* \"#utility.yul\":10903:10909   */\n      dup6\n        /* \"#utility.yul\":10896:10901   */\n      dup3\n        /* \"#utility.yul\":10843:10910   */\n      tag_81\n      jump\t// in\n    tag_203:\n        /* \"#utility.yul\":10837:10841   */\n      dup7\n        /* \"#utility.yul\":10830:10911   */\n      sstore\n        /* \"#utility.yul\":10699:10921   */\n      pop\n        /* \"#utility.yul\":10034:10921   */\n      jump(tag_200)\n        /* \"#utility.yul\":10064:10682   */\n    tag_201:\n        /* \"#utility.yul\":10116:10120   */\n      0x1f\n        /* \"#utility.yul\":10112:10121   */\n      not\n        /* \"#utility.yul\":10104:10110   */\n      dup5\n        /* \"#utility.yul\":10100:10122   */\n      and\n        /* \"#utility.yul\":10150:10187   */\n      tag_204\n        /* \"#utility.yul\":10182:10186   */\n      dup7\n        /* \"#utility.yul\":10150:10187   */\n      tag_67\n      jump\t// in\n    tag_204:\n        /* \"#utility.yul\":10209:10210   */\n      0x00\n        /* \"#utility.yul\":10223:10431   */\n    tag_205:\n        /* \"#utility.yul\":10237:10244   */\n      dup3\n        /* \"#utility.yul\":10234:10235   */\n      dup2\n        /* \"#utility.yul\":10231:10245   */\n      lt\n        /* \"#utility.yul\":10223:10431   */\n      iszero\n      tag_207\n      jumpi\n        /* \"#utility.yul\":10316:10325   */\n      dup5\n        /* \"#utility.yul\":10311:10314   */\n      dup10\n        /* \"#utility.yul\":10307:10326   */\n      add\n        /* \"#utility.yul\":10301:10327   */\n      mload\n        /* \"#utility.yul\":10293:10299   */\n      dup3\n        /* \"#utility.yul\":10286:10328   */\n      sstore\n        /* \"#utility.yul\":10367:10368   */\n      0x01\n        /* \"#utility.yul\":10359:10365   */\n      dup3\n        /* \"#utility.yul\":10355:10369   */\n      add\n        /* \"#utility.yul\":10345:10369   */\n      swap2\n      pop\n        /* \"#utility.yul\":10414:10416   */\n      0x20\n        /* \"#utility.yul\":10403:10412   */\n      dup6\n        /* \"#utility.yul\":10399:10417   */\n      add\n        /* \"#utility.yul\":10386:10417   */\n      swap5\n      pop\n        /* \"#utility.yul\":10260:10264   */\n      0x20\n        /* \"#utility.yul\":10257:10258   */\n      dup2\n        /* \"#utility.yul\":10253:10265   */\n      add\n        /* \"#utility.yul\":10248:10265   */\n      swap1\n      pop\n        /* \"#utility.yul\":10223:10431   */\n      jump(tag_205)\n    tag_207:\n        /* \"#utility.yul\":10459:10465   */\n      dup7\n        /* \"#utility.yul\":10450:10457   */\n      dup4\n        /* \"#utility.yul\":10447:10466   */\n      lt\n        /* \"#utility.yul\":10444:10623   */\n      iszero\n      tag_208\n      jumpi\n        /* \"#utility.yul\":10517:10526   */\n      dup5\n        /* \"#utility.yul\":10512:10515   */\n      dup10\n        /* \"#utility.yul\":10508:10527   */\n      add\n        /* \"#utility.yul\":10502:10528   */\n      mload\n        /* \"#utility.yul\":10560:10608   */\n      tag_209\n        /* \"#utility.yul\":10602:10606   */\n      0x1f\n        /* \"#utility.yul\":10594:10600   */\n      dup10\n        /* \"#utility.yul\":10590:10607   */\n      and\n        /* \"#utility.yul\":10579:10588   */\n      dup3\n        /* \"#utility.yul\":10560:10608   */\n      tag_80\n      jump\t// in\n    tag_209:\n        /* \"#utility.yul\":10552:10558   */\n      dup4\n        /* \"#utility.yul\":10545:10609   */\n      sstore\n        /* \"#utility.yul\":10467:10623   */\n      pop\n        /* \"#utility.yul\":10444:10623   */\n    tag_208:\n        /* \"#utility.yul\":10669:10670   */\n      0x01\n        /* \"#utility.yul\":10665:10666   */\n      0x02\n        /* \"#utility.yul\":10657:10663   */\n      dup9\n        /* \"#utility.yul\":10653:10667   */\n      mul\n        /* \"#utility.yul\":10649:10671   */\n      add\n        /* \"#utility.yul\":10643:10647   */\n      dup9\n        /* \"#utility.yul\":10636:10672   */\n      sstore\n        /* \"#utility.yul\":10071:10682   */\n      pop\n      pop\n      pop\n        /* \"#utility.yul\":10034:10921   */\n    tag_200:\n      pop\n        /* \"#utility.yul\":9624:10927   */\n      pop\n      pop\n      pop\n        /* \"#utility.yul\":9532:10927   */\n      pop\n      pop\n      jump\t// out\n        /* \"#utility.yul\":10933:11113   */\n    tag_43:\n        /* \"#utility.yul\":10981:11058   */\n      0x4e487b7100000000000000000000000000000000000000000000000000000000\n        /* \"#utility.yul\":10978:10979   */\n      0x00\n        /* \"#utility.yul\":10971:11059   */\n      mstore\n        /* \"#utility.yul\":11078:11082   */\n      0x32\n        /* \"#utility.yul\":11075:11076   */\n      0x04\n        /* \"#utility.yul\":11068:11083   */\n      mstore\n        /* \"#utility.yul\":11102:11106   */\n      0x24\n        /* \"#utility.yul\":11099:11100   */\n      0x00\n        /* \"#utility.yul\":11092:11107   */\n      revert\n\n    auxdata: 0xa2646970667358221220353be875742e169df36602607a5ed77593ff30e4c185612cc6ec743148e2e9aa64736f6c63430008120033\n}\n",
				"bytecode": {
					"linkReferences": {},
					"object": "608060405260016002556040518060800160405280600160ff168152602001600260ff168152602001600360ff168152602001600460ff16815250600390600461004a92919061005d565b5034801561005757600080fd5b506100bf565b8260048101928215610091579160200282015b82811115610090578251829060ff16905591602001919060010190610070565b5b50905061009e91906100a2565b5090565b5b808211156100bb5760008160009055506001016100a3565b5090565b61086f806100ce6000396000f3fe608060405234801561001057600080fd5b50600436106100575760003560e01c80630dbe671f1461005c5780630e29c83d1461007a5780636cc014de1461009657806371e5ee5f146100b55780637ff04d48146100e5575b600080fd5b610064610101565b6040516100719190610213565b60405180910390f35b610094600480360381019061008f91906103b4565b610107565b005b61009e610127565b6040516100ac92919061048f565b60405180910390f35b6100cf60048036038101906100ca91906104bf565b6101c1565b6040516100dc9190610213565b60405180910390f35b6100ff60048036038101906100fa91906104ec565b6101dc565b005b60025481565b81600080018190555080600060010190816101229190610738565b505050565b600080600001549080600101805461013e9061055b565b80601f016020809104026020016040519081016040528092919081815260200182805461016a9061055b565b80156101b75780601f1061018c576101008083540402835291602001916101b7565b820191906000526020600020905b81548152906001019060200180831161019a57829003601f168201915b5050505050905082565b600381600481106101d157600080fd5b016000915090505481565b80600383600481106101f1576101f061080a565b5b01819055505050565b6000819050919050565b61020d816101fa565b82525050565b60006020820190506102286000830184610204565b92915050565b6000604051905090565b600080fd5b600080fd5b61024b816101fa565b811461025657600080fd5b50565b60008135905061026881610242565b92915050565b600080fd5b600080fd5b6000601f19601f8301169050919050565b7f4e487b7100000000000000000000000000000000000000000000000000000000600052604160045260246000fd5b6102c182610278565b810181811067ffffffffffffffff821117156102e0576102df610289565b5b80604052505050565b60006102f361022e565b90506102ff82826102b8565b919050565b600067ffffffffffffffff82111561031f5761031e610289565b5b61032882610278565b9050602081019050919050565b82818337600083830152505050565b600061035761035284610304565b6102e9565b90508281526020810184848401111561037357610372610273565b5b61037e848285610335565b509392505050565b600082601f83011261039b5761039a61026e565b5b81356103ab848260208601610344565b91505092915050565b600080604083850312156103cb576103ca610238565b5b60006103d985828601610259565b925050602083013567ffffffffffffffff8111156103fa576103f961023d565b5b61040685828601610386565b9150509250929050565b600081519050919050565b600082825260208201905092915050565b60005b8381101561044a57808201518184015260208101905061042f565b60008484015250505050565b600061046182610410565b61046b818561041b565b935061047b81856020860161042c565b61048481610278565b840191505092915050565b60006040820190506104a46000830185610204565b81810360208301526104b68184610456565b90509392505050565b6000602082840312156104d5576104d4610238565b5b60006104e384828501610259565b91505092915050565b6000806040838503121561050357610502610238565b5b600061051185828601610259565b925050602061052285828601610259565b9150509250929050565b7f4e487b7100000000000000000000000000000000000000000000000000000000600052602260045260246000fd5b6000600282049050600182168061057357607f821691505b6020821081036105865761058561052c565b5b50919050565b60008190508160005260206000209050919050565b60006020601f8301049050919050565b600082821b905092915050565b6000600883026105ee7fffffffffffffffffffffffffffffffffffffffffffffffffffffffffffffffff826105b1565b6105f886836105b1565b95508019841693508086168417925050509392505050565b6000819050919050565b600061063561063061062b846101fa565b610610565b6101fa565b9050919050565b6000819050919050565b61064f8361061a565b61066361065b8261063c565b8484546105be565b825550505050565b600090565b61067861066b565b610683818484610646565b505050565b5b818110156106a75761069c600082610670565b600181019050610689565b5050565b601f8211156106ec576106bd8161058c565b6106c6846105a1565b810160208510156106d5578190505b6106e96106e1856105a1565b830182610688565b50505b505050565b600082821c905092915050565b600061070f600019846008026106f1565b1980831691505092915050565b600061072883836106fe565b9150826002028217905092915050565b61074182610410565b67ffffffffffffffff81111561075a57610759610289565b5b610764825461055b565b61076f8282856106ab565b600060209050601f8311600181146107a25760008415610790578287015190505b61079a858261071c565b865550610802565b601f1984166107b08661058c565b60005b828110156107d8578489015182556001820191506020850194506020810190506107b3565b868310156107f557848901516107f1601f8916826106fe565b8355505b6001600288020188555050505b505050505050565b7f4e487b7100000000000000000000000000000000000000000000000000000000600052603260045260246000fdfea2646970667358221220353be875742e169df36602607a5ed77593ff30e4c185612cc6ec743148e2e9aa64736f6c63430008120033",
					"opcodes": "PUSH1 0x80 PUSH1 0x40 MSTORE PUSH1 0x1 PUSH1 0x2 SSTORE PUSH1 0x40 MLOAD DUP1 PUSH1 0x80 ADD PUSH1 0x40 MSTORE DUP1 PUSH1 0x1 PUSH1 0xFF AND DUP2 MSTORE PUSH1 0x20 ADD PUSH1 0x2 PUSH1 0xFF AND DUP2 MSTORE PUSH1 0x20 ADD PUSH1 0x3 PUSH1 0xFF AND DUP2 MSTORE PUSH1 0x20 ADD PUSH1 0x4 PUSH1 0xFF AND DUP2 MSTORE POP PUSH1 0x3 SWAP1 PUSH1 0x4 PUSH2 0x4A SWAP3 SWAP2 SWAP1 PUSH2 0x5D JUMP JUMPDEST POP CALLVALUE DUP1 ISZERO PUSH2 0x57 JUMPI PUSH1 0x0 DUP1 REVERT JUMPDEST POP PUSH2 0xBF JUMP JUMPDEST DUP3 PUSH1 0x4 DUP2 ADD SWAP3 DUP3 ISZERO PUSH2 0x91 JUMPI SWAP2 PUSH1 0x20 MUL DUP3 ADD JUMPDEST DUP3 DUP2 GT ISZERO PUSH2 0x90 JUMPI DUP3 MLOAD DUP3 SWAP1 PUSH1 0xFF AND SWAP1 SSTORE SWAP2 PUSH1 0x20 ADD SWAP2 SWAP1 PUSH1 0x1 ADD SWAP1 PUSH2 0x70 JUMP JUMPDEST JUMPDEST POP SWAP1 POP PUSH2 0x9E SWAP2 SWAP1 PUSH2 0xA2 JUMP JUMPDEST POP SWAP1 JUMP JUMPDEST JUMPDEST DUP1 DUP3 GT ISZERO PUSH2 0xBB JUMPI PUSH1 0x0 DUP2 PUSH1 0x0 SWAP1 SSTORE POP PUSH1 0x1 ADD PUSH2 0xA3 JUMP JUMPDEST POP SWAP1 JUMP JUMPDEST PUSH2 0x86F DUP1 PUSH2 0xCE PUSH1 0x0 CODECOPY PUSH1 0x0 RETURN INVALID PUSH1 0x80 PUSH1 0x40 MSTORE CALLVALUE DUP1 ISZERO PUSH2 0x10 JUMPI PUSH1 0x0 DUP1 REVERT JUMPDEST POP PUSH1 0x4 CALLDATASIZE LT PUSH2 0x57 JUMPI PUSH1 0x0 CALLDATALOAD PUSH1 0xE0 SHR DUP1 PUSH4 0xDBE671F EQ PUSH2 0x5C JUMPI DUP1 PUSH4 0xE29C83D EQ PUSH2 0x7A JUMPI DUP1 PUSH4 0x6CC014DE EQ PUSH2 0x96 JUMPI DUP1 PUSH4 0x71E5EE5F EQ PUSH2 0xB5 JUMPI DUP1 PUSH4 0x7FF04D48 EQ PUSH2 0xE5 JUMPI JUMPDEST PUSH1 0x0 DUP1 REVERT JUMPDEST PUSH2 0x64 PUSH2 0x101 JUMP JUMPDEST PUSH1 0x40 MLOAD PUSH2 0x71 SWAP2 SWAP1 PUSH2 0x213 JUMP JUMPDEST PUSH1 0x40 MLOAD DUP1 SWAP2 SUB SWAP1 RETURN JUMPDEST PUSH2 0x94 PUSH1 0x4 DUP1 CALLDATASIZE SUB DUP2 ADD SWAP1 PUSH2 0x8F SWAP2 SWAP1 PUSH2 0x3B4 JUMP JUMPDEST PUSH2 0x107 JUMP JUMPDEST STOP JUMPDEST PUSH2 0x9E PUSH2 0x127 JUMP JUMPDEST PUSH1 0x40 MLOAD PUSH2 0xAC SWAP3 SWAP2 SWAP1 PUSH2 0x48F JUMP JUMPDEST PUSH1 0x40 MLOAD DUP1 SWAP2 SUB SWAP1 RETURN JUMPDEST PUSH2 0xCF PUSH1 0x4 DUP1 CALLDATASIZE SUB DUP2 ADD SWAP1 PUSH2 0xCA SWAP2 SWAP1 PUSH2 0x4BF JUMP JUMPDEST PUSH2 0x1C1 JUMP JUMPDEST PUSH1 0x40 MLOAD PUSH2 0xDC SWAP2 SWAP1 PUSH2 0x213 JUMP JUMPDEST PUSH1 0x40 MLOAD DUP1 SWAP2 SUB SWAP1 RETURN JUMPDEST PUSH2 0xFF PUSH1 0x4 DUP1 CALLDATASIZE SUB DUP2 ADD SWAP1 PUSH2 0xFA SWAP2 SWAP1 PUSH2 0x4EC JUMP JUMPDEST PUSH2 0x1DC JUMP JUMPDEST STOP JUMPDEST PUSH1 0x2 SLOAD DUP2 JUMP JUMPDEST DUP2 PUSH1 0x0 DUP1 ADD DUP2 SWAP1 SSTORE POP DUP1 PUSH1 0x0 PUSH1 0x1 ADD SWAP1 DUP2 PUSH2 0x122 SWAP2 SWAP1 PUSH2 0x738 JUMP JUMPDEST POP POP POP JUMP JUMPDEST PUSH1 0x0 DUP1 PUSH1 0x0 ADD SLOAD SWAP1 DUP1 PUSH1 0x1 ADD DUP1 SLOAD PUSH2 0x13E SWAP1 PUSH2 0x55B JUMP JUMPDEST DUP1 PUSH1 0x1F ADD PUSH1 0x20 DUP1 SWAP2 DIV MUL PUSH1 0x20 ADD PUSH1 0x40 MLOAD SWAP1 DUP2 ADD PUSH1 0x40 MSTORE DUP1 SWAP3 SWAP2 SWAP1 DUP2 DUP2 MSTORE PUSH1 0x20 ADD DUP3 DUP1 SLOAD PUSH2 0x16A SWAP1 PUSH2 0x55B JUMP JUMPDEST DUP1 ISZERO PUSH2 0x1B7 JUMPI DUP1 PUSH1 0x1F LT PUSH2 0x18C JUMPI PUSH2 0x100 DUP1 DUP4 SLOAD DIV MUL DUP4 MSTORE SWAP2 PUSH1 0x20 ADD SWAP2 PUSH2 0x1B7 JUMP JUMPDEST DUP3 ADD SWAP2 SWAP1 PUSH1 0x0 MSTORE PUSH1 0x20 PUSH1 0x0 KECCAK256 SWAP1 JUMPDEST DUP2 SLOAD DUP2 MSTORE SWAP1 PUSH1 0x1 ADD SWAP1 PUSH1 0x20 ADD DUP1 DUP4 GT PUSH2 0x19A JUMPI DUP3 SWAP1 SUB PUSH1 0x1F AND DUP3 ADD SWAP2 JUMPDEST POP POP POP POP POP SWAP1 POP DUP3 JUMP JUMPDEST PUSH1 0x3 DUP2 PUSH1 0x4 DUP2 LT PUSH2 0x1D1 JUMPI PUSH1 0x0 DUP1 REVERT JUMPDEST ADD PUSH1 0x0 SWAP2 POP SWAP1 POP SLOAD DUP2 JUMP JUMPDEST DUP1 PUSH1 0x3 DUP4 PUSH1 0x4 DUP2 LT PUSH2 0x1F1 JUMPI PUSH2 0x1F0 PUSH2 0x80A JUMP JUMPDEST JUMPDEST ADD DUP2 SWAP1 SSTORE POP POP POP JUMP JUMPDEST PUSH1 0x0 DUP2 SWAP1 POP SWAP2 SWAP1 POP JUMP JUMPDEST PUSH2 0x20D DUP2 PUSH2 0x1FA JUMP JUMPDEST DUP3 MSTORE POP POP JUMP JUMPDEST PUSH1 0x0 PUSH1 0x20 DUP3 ADD SWAP1 POP PUSH2 0x228 PUSH1 0x0 DUP4 ADD DUP5 PUSH2 0x204 JUMP JUMPDEST SWAP3 SWAP2 POP POP JUMP JUMPDEST PUSH1 0x0 PUSH1 0x40 MLOAD SWAP1 POP SWAP1 JUMP JUMPDEST PUSH1 0x0 DUP1 REVERT JUMPDEST PUSH1 0x0 DUP1 REVERT JUMPDEST PUSH2 0x24B DUP2 PUSH2 0x1FA JUMP JUMPDEST DUP2 EQ PUSH2 0x256 JUMPI PUSH1 0x0 DUP1 REVERT JUMPDEST POP JUMP JUMPDEST PUSH1 0x0 DUP2 CALLDATALOAD SWAP1 POP PUSH2 0x268 DUP2 PUSH2 0x242 JUMP JUMPDEST SWAP3 SWAP2 POP POP JUMP JUMPDEST PUSH1 0x0 DUP1 REVERT JUMPDEST PUSH1 0x0 DUP1 REVERT JUMPDEST PUSH1 0x0 PUSH1 0x1F NOT PUSH1 0x1F DUP4 ADD AND SWAP1 POP SWAP2 SWAP1 POP JUMP JUMPDEST PUSH32 0x4E487B7100000000000000000000000000000000000000000000000000000000 PUSH1 0x0 MSTORE PUSH1 0x41 PUSH1 0x4 MSTORE PUSH1 0x24 PUSH1 0x0 REVERT JUMPDEST PUSH2 0x2C1 DUP3 PUSH2 0x278 JUMP JUMPDEST DUP2 ADD DUP2 DUP2 LT PUSH8 0xFFFFFFFFFFFFFFFF DUP3 GT OR ISZERO PUSH2 0x2E0 JUMPI PUSH2 0x2DF PUSH2 0x289 JUMP JUMPDEST JUMPDEST DUP1 PUSH1 0x40 MSTORE POP POP POP JUMP JUMPDEST PUSH1 0x0 PUSH2 0x2F3 PUSH2 0x22E JUMP JUMPDEST SWAP1 POP PUSH2 0x2FF DUP3 DUP3 PUSH2 0x2B8 JUMP JUMPDEST SWAP2 SWAP1 POP JUMP JUMPDEST PUSH1 0x0 PUSH8 0xFFFFFFFFFFFFFFFF DUP3 GT ISZERO PUSH2 0x31F JUMPI PUSH2 0x31E PUSH2 0x289 JUMP JUMPDEST JUMPDEST PUSH2 0x328 DUP3 PUSH2 0x278 JUMP JUMPDEST SWAP1 POP PUSH1 0x20 DUP2 ADD SWAP1 POP SWAP2 SWAP1 POP JUMP JUMPDEST DUP3 DUP2 DUP4 CALLDATACOPY PUSH1 0x0 DUP4 DUP4 ADD MSTORE POP POP POP JUMP JUMPDEST PUSH1 0x0 PUSH2 0x357 PUSH2 0x352 DUP5 PUSH2 0x304 JUMP JUMPDEST PUSH2 0x2E9 JUMP JUMPDEST SWAP1 POP DUP3 DUP2 MSTORE PUSH1 0x20 DUP2 ADD DUP5 DUP5 DUP5 ADD GT ISZERO PUSH2 0x373 JUMPI PUSH2 0x372 PUSH2 0x273 JUMP JUMPDEST JUMPDEST PUSH2 0x37E DUP5 DUP3 DUP6 PUSH2 0x335 JUMP JUMPDEST POP SWAP4 SWAP3 POP POP POP JUMP JUMPDEST PUSH1 0x0 DUP3 PUSH1 0x1F DUP4 ADD SLT PUSH2 0x39B JUMPI PUSH2 0x39A PUSH2 0x26E JUMP JUMPDEST JUMPDEST DUP2 CALLDATALOAD PUSH2 0x3AB DUP5 DUP3 PUSH1 0x20 DUP7 ADD PUSH2 0x344 JUMP JUMPDEST SWAP2 POP POP SWAP3 SWAP2 POP POP JUMP JUMPDEST PUSH1 0x0 DUP1 PUSH1 0x40 DUP4 DUP6 SUB SLT ISZERO PUSH2 0x3CB JUMPI PUSH2 0x3CA PUSH2 0x238 JUMP JUMPDEST JUMPDEST PUSH1 0x0 PUSH2 0x3D9 DUP6 DUP3 DUP7 ADD PUSH2 0x259 JUMP JUMPDEST SWAP3 POP POP PUSH1 0x20 DUP4 ADD CALLDATALOAD PUSH8 0xFFFFFFFFFFFFFFFF DUP2 GT ISZERO PUSH2 0x3FA JUMPI PUSH2 0x3F9 PUSH2 0x23D JUMP JUMPDEST JUMPDEST PUSH2 0x406 DUP6 DUP3 DUP7 ADD PUSH2 0x386 JUMP JUMPDEST SWAP2 POP POP SWAP3 POP SWAP3 SWAP1 POP JUMP JUMPDEST PUSH1 0x0 DUP2 MLOAD SWAP1 POP SWAP2 SWAP1 POP JUMP JUMPDEST PUSH1 0x0 DUP3 DUP3 MSTORE PUSH1 0x20 DUP3 ADD SWAP1 POP SWAP3 SWAP2 POP POP JUMP JUMPDEST PUSH1 0x0 JUMPDEST DUP4 DUP2 LT ISZERO PUSH2 0x44A JUMPI DUP1 DUP3 ADD MLOAD DUP2 DUP5 ADD MSTORE PUSH1 0x20 DUP2 ADD SWAP1 POP PUSH2 0x42F JUMP JUMPDEST PUSH1 0x0 DUP5 DUP5 ADD MSTORE POP POP POP POP JUMP JUMPDEST PUSH1 0x0 PUSH2 0x461 DUP3 PUSH2 0x410 JUMP JUMPDEST PUSH2 0x46B DUP2 DUP6 PUSH2 0x41B JUMP JUMPDEST SWAP4 POP PUSH2 0x47B DUP2 DUP6 PUSH1 0x20 DUP7 ADD PUSH2 0x42C JUMP JUMPDEST PUSH2 0x484 DUP2 PUSH2 0x278 JUMP JUMPDEST DUP5 ADD SWAP2 POP POP SWAP3 SWAP2 POP POP JUMP JUMPDEST PUSH1 0x0 PUSH1 0x40 DUP3 ADD SWAP1 POP PUSH2 0x4A4 PUSH1 0x0 DUP4 ADD DUP6 PUSH2 0x204 JUMP JUMPDEST DUP2 DUP2 SUB PUSH1 0x20 DUP4 ADD MSTORE PUSH2 0x4B6 DUP2 DUP5 PUSH2 0x456 JUMP JUMPDEST SWAP1 POP SWAP4 SWAP3 POP POP POP JUMP JUMPDEST PUSH1 0x0 PUSH1 0x20 DUP3 DUP5 SUB SLT ISZERO PUSH2 0x4D5 JUMPI PUSH2 0x4D4 PUSH2 0x238 JUMP JUMPDEST JUMPDEST PUSH1 0x0 PUSH2 0x4E3 DUP5 DUP3 DUP6 ADD PUSH2 0x259 JUMP JUMPDEST SWAP2 POP POP SWAP3 SWAP2 POP POP JUMP JUMPDEST PUSH1 0x0 DUP1 PUSH1 0x40 DUP4 DUP6 SUB SLT ISZERO PUSH2 0x503 JUMPI PUSH2 0x502 PUSH2 0x238 JUMP JUMPDEST JUMPDEST PUSH1 0x0 PUSH2 0x511 DUP6 DUP3 DUP7 ADD PUSH2 0x259 JUMP JUMPDEST SWAP3 POP POP PUSH1 0x20 PUSH2 0x522 DUP6 DUP3 DUP7 ADD PUSH2 0x259 JUMP JUMPDEST SWAP2 POP POP SWAP3 POP SWAP3 SWAP1 POP JUMP JUMPDEST PUSH32 0x4E487B7100000000000000000000000000000000000000000000000000000000 PUSH1 0x0 MSTORE PUSH1 0x22 PUSH1 0x4 MSTORE PUSH1 0x24 PUSH1 0x0 REVERT JUMPDEST PUSH1 0x0 PUSH1 0x2 DUP3 DIV SWAP1 POP PUSH1 0x1 DUP3 AND DUP1 PUSH2 0x573 JUMPI PUSH1 0x7F DUP3 AND SWAP2 POP JUMPDEST PUSH1 0x20 DUP3 LT DUP2 SUB PUSH2 0x586 JUMPI PUSH2 0x585 PUSH2 0x52C JUMP JUMPDEST JUMPDEST POP SWAP2 SWAP1 POP JUMP JUMPDEST PUSH1 0x0 DUP2 SWAP1 POP DUP2 PUSH1 0x0 MSTORE PUSH1 0x20 PUSH1 0x0 KECCAK256 SWAP1 POP SWAP2 SWAP1 POP JUMP JUMPDEST PUSH1 0x0 PUSH1 0x20 PUSH1 0x1F DUP4 ADD DIV SWAP1 POP SWAP2 SWAP1 POP JUMP JUMPDEST PUSH1 0x0 DUP3 DUP3 SHL SWAP1 POP SWAP3 SWAP2 POP POP JUMP JUMPDEST PUSH1 0x0 PUSH1 0x8 DUP4 MUL PUSH2 0x5EE PUSH32 0xFFFFFFFFFFFFFFFFFFFFFFFFFFFFFFFFFFFFFFFFFFFFFFFFFFFFFFFFFFFFFFFF DUP3 PUSH2 0x5B1 JUMP JUMPDEST PUSH2 0x5F8 DUP7 DUP4 PUSH2 0x5B1 JUMP JUMPDEST SWAP6 POP DUP1 NOT DUP5 AND SWAP4 POP DUP1 DUP7 AND DUP5 OR SWAP3 POP POP POP SWAP4 SWAP3 POP POP POP JUMP JUMPDEST PUSH1 0x0 DUP2 SWAP1 POP SWAP2 SWAP1 POP JUMP JUMPDEST PUSH1 0x0 PUSH2 0x635 PUSH2 0x630 PUSH2 0x62B DUP5 PUSH2 0x1FA JUMP JUMPDEST PUSH2 0x610 JUMP JUMPDEST PUSH2 0x1FA JUMP JUMPDEST SWAP1 POP SWAP2 SWAP1 POP JUMP JUMPDEST PUSH1 0x0 DUP2 SWAP1 POP SWAP2 SWAP1 POP JUMP JUMPDEST PUSH2 0x64F DUP4 PUSH2 0x61A JUMP JUMPDEST PUSH2 0x663 PUSH2 0x65B DUP3 PUSH2 0x63C JUMP JUMPDEST DUP5 DUP5 SLOAD PUSH2 0x5BE JUMP JUMPDEST DUP3 SSTORE POP POP POP POP JUMP JUMPDEST PUSH1 0x0 SWAP1 JUMP JUMPDEST PUSH2 0x678 PUSH2 0x66B JUMP JUMPDEST PUSH2 0x683 DUP2 DUP5 DUP5 PUSH2 0x646 JUMP JUMPDEST POP POP POP JUMP JUMPDEST JUMPDEST DUP2 DUP2 LT ISZERO PUSH2 0x6A7 JUMPI PUSH2 0x69C PUSH1 0x0 DUP3 PUSH2 0x670 JUMP JUMPDEST PUSH1 0x1 DUP2 ADD SWAP1 POP PUSH2 0x689 JUMP JUMPDEST POP POP JUMP JUMPDEST PUSH1 0x1F DUP3 GT ISZERO PUSH2 0x6EC JUMPI PUSH2 0x6BD DUP2 PUSH2 0x58C JUMP JUMPDEST PUSH2 0x6C6 DUP5 PUSH2 0x5A1 JUMP JUMPDEST DUP2 ADD PUSH1 0x20 DUP6 LT ISZERO PUSH2 0x6D5 JUMPI DUP2 SWAP1 POP JUMPDEST PUSH2 0x6E9 PUSH2 0x6E1 DUP6 PUSH2 0x5A1 JUMP JUMPDEST DUP4 ADD DUP3 PUSH2 0x688 JUMP JUMPDEST POP POP JUMPDEST POP POP POP JUMP JUMPDEST PUSH1 0x0 DUP3 DUP3 SHR SWAP1 POP SWAP3 SWAP2 POP POP JUMP JUMPDEST PUSH1 0x0 PUSH2 0x70F PUSH1 0x0 NOT DUP5 PUSH1 0x8 MUL PUSH2 0x6F1 JUMP JUMPDEST NOT DUP1 DUP4 AND SWAP2 POP POP SWAP3 SWAP2 POP POP JUMP JUMPDEST PUSH1 0x0 PUSH2 0x728 DUP4 DUP4 PUSH2 0x6FE JUMP JUMPDEST SWAP2 POP DUP3 PUSH1 0x2 MUL DUP3 OR SWAP1 POP SWAP3 SWAP2 POP POP JUMP JUMPDEST PUSH2 0x741 DUP3 PUSH2 0x410 JUMP JUMPDEST PUSH8 0xFFFFFFFFFFFFFFFF DUP2 GT ISZERO PUSH2 0x75A JUMPI PUSH2 0x759 PUSH2 0x289 JUMP JUMPDEST JUMPDEST PUSH2 0x764 DUP3 SLOAD PUSH2 0x55B JUMP JUMPDEST PUSH2 0x76F DUP3 DUP3 DUP6 PUSH2 0x6AB JUMP JUMPDEST PUSH1 0x0 PUSH1 0x20 SWAP1 POP PUSH1 0x1F DUP4 GT PUSH1 0x1 DUP2 EQ PUSH2 0x7A2 JUMPI PUSH1 0x0 DUP5 ISZERO PUSH2 0x790 JUMPI DUP3 DUP8 ADD MLOAD SWAP1 POP JUMPDEST PUSH2 0x79A DUP6 DUP3 PUSH2 0x71C JUMP JUMPDEST DUP7 SSTORE POP PUSH2 0x802 JUMP JUMPDEST PUSH1 0x1F NOT DUP5 AND PUSH2 0x7B0 DUP7 PUSH2 0x58C JUMP JUMPDEST PUSH1 0x0 JUMPDEST DUP3 DUP2 LT ISZERO PUSH2 0x7D8 JUMPI DUP5 DUP10 ADD MLOAD DUP3 SSTORE PUSH1 0x1 DUP3 ADD SWAP2 POP PUSH1 0x20 DUP6 ADD SWAP5 POP PUSH1 0x20 DUP2 ADD SWAP1 POP PUSH2 0x7B3 JUMP JUMPDEST DUP7 DUP4 LT ISZERO PUSH2 0x7F5 JUMPI DUP5 DUP10 ADD MLOAD PUSH2 0x7F1 PUSH1 0x1F DUP10 AND DUP3 PUSH2 0x6FE JUMP JUMPDEST DUP4 SSTORE POP JUMPDEST PUSH1 0x1 PUSH1 0x2 DUP9 MUL ADD DUP9 SSTORE POP POP POP JUMPDEST POP POP POP POP POP POP JUMP JUMPDEST PUSH32 0x4E487B7100000000000000000000000000000000000000000000000000000000 PUSH1 0x0 MSTORE PUSH1 0x32 PUSH1 0x4 MSTORE PUSH1 0x24 PUSH1 0x0 REVERT INVALID LOG2 PUSH5 0x6970667358 0x22 SLT KECCAK256 CALLDATALOAD EXTCODESIZE 0xE8 PUSH22 0x742E169DF36602607A5ED77593FF30E4C185612CC6EC PUSH21 0x3148E2E9AA64736F6C634300081200330000000000 "
				},
				"gasEstimates": {
					"creation": {
						"codeDepositCost": "431800",
						"executionCost": "infinite",
						"totalCost": "infinite"
					},
					"external": {
						"a()": "2407",
						"arr(uint256)": "infinite",
						"s1()": "infinite",
						"setArr(uint256,uint256)": "infinite",
						"setStu(uint256,string)": "infinite"
					}
				},
				"methodIdentifiers": {
					"a()": "0dbe671f",
					"arr(uint256)": "71e5ee5f",
					"s1()": "6cc014de",
					"setArr(uint256,uint256)": "7ff04d48",
					"setStu(uint256,string)": "0e29c83d"
				}
			},
			"storageLayout": {
				"storage": [
					{
						"astId": 9,
						"contract": "try.sol:test",
						"label": "s1",
						"offset": 0,
						"slot": "0",
						"type": "t_struct(Student)6_storage"
					},
					{
						"astId": 32,
						"contract": "try.sol:test",
						"label": "a",
						"offset": 0,
						"slot": "2",
						"type": "t_uint256"
					},
					{
						"astId": 41,
						"contract": "try.sol:test",
						"label": "arr",
						"offset": 0,
						"slot": "3",
						"type": "t_array(t_uint256)4_storage"
					}
				],
				"types": {
					"t_array(t_uint256)4_storage": {
						"base": "t_uint256",
						"encoding": "inplace",
						"label": "uint256[4]",
						"numberOfBytes": "128"
					},
					"t_string_storage": {
						"encoding": "bytes",
						"label": "string",
						"numberOfBytes": "32"
					},
					"t_struct(Student)6_storage": {
						"encoding": "inplace",
						"label": "struct test.Student",
						"members": [
							{
								"astId": 3,
								"contract": "try.sol:test",
								"label": "id",
								"offset": 0,
								"slot": "0",
								"type": "t_uint256"
							},
							{
								"astId": 5,
								"contract": "try.sol:test",
								"label": "name",
								"offset": 0,
								"slot": "1",
								"type": "t_string_storage"
							}
						],
						"numberOfBytes": "64"
					},
					"t_uint256": {
						"encoding": "inplace",
						"label": "uint256",
						"numberOfBytes": "32"
					}
				}
			},
			"userdoc": {
				"kind": "user",
				"methods": {},
				"version": 1
			}
		}
	}
}