{
	"Struct.sol": {
		"Test5": {
			"abi": [
				{
					"inputs": [
						{
							"internalType": "string",
							"name": "_Name",
							"type": "string"
						},
						{
							"internalType": "uint256",
							"name": "_RollNo",
							"type": "uint256"
						}
					],
					"stateMutability": "nonpayable",
					"type": "constructor"
				},
				{
					"inputs": [],
					"name": "s1",
					"outputs": [
						{
							"internalType": "string",
							"name": "Name",
							"type": "string"
						},
						{
							"internalType": "uint256",
							"name": "RollNo",
							"type": "uint256"
						}
					],
					"stateMutability": "view",
					"type": "function"
				},
				{
					"inputs": [
						{
							"internalType": "string",
							"name": "n1",
							"type": "string"
						},
						{
							"internalType": "uint256",
							"name": "r1",
							"type": "uint256"
						}
					],
					"name": "update",
					"outputs": [],
					"stateMutability": "nonpayable",
					"type": "function"
				}
			],
			"devdoc": {
				"kind": "dev",
				"methods": {},
				"version": 1
			},
			"evm": {
				"assembly": "    /* \"Struct.sol\":125:402  contract Test5 {... */\n  mstore(0x40, 0x80)\n    /* \"Struct.sol\":175:285  constructor(string memory _Name, uint _RollNo){... */\n  callvalue\n  dup1\n  iszero\n  tag_1\n  jumpi\n  0x00\n  dup1\n  revert\ntag_1:\n  pop\n  mload(0x40)\n  sub(codesize, bytecodeSize)\n  dup1\n  bytecodeSize\n  dup4\n  codecopy\n  dup2\n  dup2\n  add\n  0x40\n  mstore\n  dup2\n  add\n  swap1\n  tag_2\n  swap2\n  swap1\n  tag_3\n  jump\t// in\ntag_2:\n    /* \"Struct.sol\":242:247  _Name */\n  dup2\n    /* \"Struct.sol\":232:234  s1 */\n  0x00\n    /* \"Struct.sol\":232:239  s1.Name */\n  dup1\n  add\n    /* \"Struct.sol\":232:247  s1.Name = _Name */\n  swap1\n  dup2\n  tag_6\n  swap2\n  swap1\n  tag_7\n  jump\t// in\ntag_6:\n  pop\n    /* \"Struct.sol\":270:277  _RollNo */\n  dup1\n    /* \"Struct.sol\":258:260  s1 */\n  0x00\n    /* \"Struct.sol\":258:267  s1.RollNo */\n  0x01\n  add\n    /* \"Struct.sol\":258:277  s1.RollNo = _RollNo */\n  dup2\n  swap1\n  sstore\n  pop\n    /* \"Struct.sol\":175:285  constructor(string memory _Name, uint _RollNo){... */\n  pop\n  pop\n    /* \"Struct.sol\":125:402  contract Test5 {... */\n  jump(tag_8)\n    /* \"#utility.yul\":7:82   */\ntag_9:\n    /* \"#utility.yul\":40:46   */\n  0x00\n    /* \"#utility.yul\":73:75   */\n  0x40\n    /* \"#utility.yul\":67:76   */\n  mload\n    /* \"#utility.yul\":57:76   */\n  swap1\n  pop\n    /* \"#utility.yul\":7:82   */\n  swap1\n  jump\t// out\n    /* \"#utility.yul\":88:205   */\ntag_10:\n    /* \"#utility.yul\":197:198   */\n  0x00\n    /* \"#utility.yul\":194:195   */\n  dup1\n    /* \"#utility.yul\":187:199   */\n  revert\n    /* \"#utility.yul\":211:328   */\ntag_11:\n    /* \"#utility.yul\":320:321   */\n  0x00\n    /* \"#utility.yul\":317:318   */\n  dup1\n    /* \"#utility.yul\":310:322   */\n  revert\n    /* \"#utility.yul\":334:451   */\ntag_12:\n    /* \"#utility.yul\":443:444   */\n  0x00\n    /* \"#utility.yul\":440:441   */\n  dup1\n    /* \"#utility.yul\":433:445   */\n  revert\n    /* \"#utility.yul\":457:574   */\ntag_13:\n    /* \"#utility.yul\":566:567   */\n  0x00\n    /* \"#utility.yul\":563:564   */\n  dup1\n    /* \"#utility.yul\":556:568   */\n  revert\n    /* \"#utility.yul\":580:682   */\ntag_14:\n    /* \"#utility.yul\":621:627   */\n  0x00\n    /* \"#utility.yul\":672:674   */\n  0x1f\n    /* \"#utility.yul\":668:675   */\n  not\n    /* \"#utility.yul\":663:665   */\n  0x1f\n    /* \"#utility.yul\":656:661   */\n  dup4\n    /* \"#utility.yul\":652:666   */\n  add\n    /* \"#utility.yul\":648:676   */\n  and\n    /* \"#utility.yul\":638:676   */\n  swap1\n  pop\n    /* \"#utility.yul\":580:682   */\n  swap2\n  swap1\n  pop\n  jump\t// out\n    /* \"#utility.yul\":688:868   */\ntag_15:\n    /* \"#utility.yul\":736:813   */\n  0x4e487b7100000000000000000000000000000000000000000000000000000000\n    /* \"#utility.yul\":733:734   */\n  0x00\n    /* \"#utility.yul\":726:814   */\n  mstore\n    /* \"#utility.yul\":833:837   */\n  0x41\n    /* \"#utility.yul\":830:831   */\n  0x04\n    /* \"#utility.yul\":823:838   */\n  mstore\n    /* \"#utility.yul\":857:861   */\n  0x24\n    /* \"#utility.yul\":854:855   */\n  0x00\n    /* \"#utility.yul\":847:862   */\n  revert\n    /* \"#utility.yul\":874:1155   */\ntag_16:\n    /* \"#utility.yul\":957:984   */\n  tag_52\n    /* \"#utility.yul\":979:983   */\n  dup3\n    /* \"#utility.yul\":957:984   */\n  tag_14\n  jump\t// in\ntag_52:\n    /* \"#utility.yul\":949:955   */\n  dup2\n    /* \"#utility.yul\":945:985   */\n  add\n    /* \"#utility.yul\":1087:1093   */\n  dup2\n    /* \"#utility.yul\":1075:1085   */\n  dup2\n    /* \"#utility.yul\":1072:1094   */\n  lt\n    /* \"#utility.yul\":1051:1069   */\n  0xffffffffffffffff\n    /* \"#utility.yul\":1039:1049   */\n  dup3\n    /* \"#utility.yul\":1036:1070   */\n  gt\n    /* \"#utility.yul\":1033:1095   */\n  or\n    /* \"#utility.yul\":1030:1118   */\n  iszero\n  tag_53\n  jumpi\n    /* \"#utility.yul\":1098:1116   */\n  tag_54\n  tag_15\n  jump\t// in\ntag_54:\n    /* \"#utility.yul\":1030:1118   */\ntag_53:\n    /* \"#utility.yul\":1138:1148   */\n  dup1\n    /* \"#utility.yul\":1134:1136   */\n  0x40\n    /* \"#utility.yul\":1127:1149   */\n  mstore\n    /* \"#utility.yul\":917:1155   */\n  pop\n    /* \"#utility.yul\":874:1155   */\n  pop\n  pop\n  jump\t// out\n    /* \"#utility.yul\":1161:1290   */\ntag_17:\n    /* \"#utility.yul\":1195:1201   */\n  0x00\n    /* \"#utility.yul\":1222:1242   */\n  tag_56\n  tag_9\n  jump\t// in\ntag_56:\n    /* \"#utility.yul\":1212:1242   */\n  swap1\n  pop\n    /* \"#utility.yul\":1251:1284   */\n  tag_57\n    /* \"#utility.yul\":1279:1283   */\n  dup3\n    /* \"#utility.yul\":1271:1277   */\n  dup3\n    /* \"#utility.yul\":1251:1284   */\n  tag_16\n  jump\t// in\ntag_57:\n    /* \"#utility.yul\":1161:1290   */\n  swap2\n  swap1\n  pop\n  jump\t// out\n    /* \"#utility.yul\":1296:1604   */\ntag_18:\n    /* \"#utility.yul\":1358:1362   */\n  0x00\n    /* \"#utility.yul\":1448:1466   */\n  0xffffffffffffffff\n    /* \"#utility.yul\":1440:1446   */\n  dup3\n    /* \"#utility.yul\":1437:1467   */\n  gt\n    /* \"#utility.yul\":1434:1490   */\n  iszero\n  tag_59\n  jumpi\n    /* \"#utility.yul\":1470:1488   */\n  tag_60\n  tag_15\n  jump\t// in\ntag_60:\n    /* \"#utility.yul\":1434:1490   */\ntag_59:\n    /* \"#utility.yul\":1508:1537   */\n  tag_61\n    /* \"#utility.yul\":1530:1536   */\n  dup3\n    /* \"#utility.yul\":1508:1537   */\n  tag_14\n  jump\t// in\ntag_61:\n    /* \"#utility.yul\":1500:1537   */\n  swap1\n  pop\n    /* \"#utility.yul\":1592:1596   */\n  0x20\n    /* \"#utility.yul\":1586:1590   */\n  dup2\n    /* \"#utility.yul\":1582:1597   */\n  add\n    /* \"#utility.yul\":1574:1597   */\n  swap1\n  pop\n    /* \"#utility.yul\":1296:1604   */\n  swap2\n  swap1\n  pop\n  jump\t// out\n    /* \"#utility.yul\":1610:1856   */\ntag_19:\n    /* \"#utility.yul\":1691:1692   */\n  0x00\n    /* \"#utility.yul\":1701:1814   */\ntag_63:\n    /* \"#utility.yul\":1715:1721   */\n  dup4\n    /* \"#utility.yul\":1712:1713   */\n  dup2\n    /* \"#utility.yul\":1709:1722   */\n  lt\n    /* \"#utility.yul\":1701:1814   */\n  iszero\n  tag_65\n  jumpi\n    /* \"#utility.yul\":1800:1801   */\n  dup1\n    /* \"#utility.yul\":1795:1798   */\n  dup3\n    /* \"#utility.yul\":1791:1802   */\n  add\n    /* \"#utility.yul\":1785:1803   */\n  mload\n    /* \"#utility.yul\":1781:1782   */\n  dup2\n    /* \"#utility.yul\":1776:1779   */\n  dup5\n    /* \"#utility.yul\":1772:1783   */\n  add\n    /* \"#utility.yul\":1765:1804   */\n  mstore\n    /* \"#utility.yul\":1737:1739   */\n  0x20\n    /* \"#utility.yul\":1734:1735   */\n  dup2\n    /* \"#utility.yul\":1730:1740   */\n  add\n    /* \"#utility.yul\":1725:1740   */\n  swap1\n  pop\n    /* \"#utility.yul\":1701:1814   */\n  jump(tag_63)\ntag_65:\n    /* \"#utility.yul\":1848:1849   */\n  0x00\n    /* \"#utility.yul\":1839:1845   */\n  dup5\n    /* \"#utility.yul\":1834:1837   */\n  dup5\n    /* \"#utility.yul\":1830:1846   */\n  add\n    /* \"#utility.yul\":1823:1850   */\n  mstore\n    /* \"#utility.yul\":1672:1856   */\n  pop\n    /* \"#utility.yul\":1610:1856   */\n  pop\n  pop\n  pop\n  jump\t// out\n    /* \"#utility.yul\":1862:2296   */\ntag_20:\n    /* \"#utility.yul\":1951:1956   */\n  0x00\n    /* \"#utility.yul\":1976:2042   */\n  tag_67\n    /* \"#utility.yul\":1992:2041   */\n  tag_68\n    /* \"#utility.yul\":2034:2040   */\n  dup5\n    /* \"#utility.yul\":1992:2041   */\n  tag_18\n  jump\t// in\ntag_68:\n    /* \"#utility.yul\":1976:2042   */\n  tag_17\n  jump\t// in\ntag_67:\n    /* \"#utility.yul\":1967:2042   */\n  swap1\n  pop\n    /* \"#utility.yul\":2065:2071   */\n  dup3\n    /* \"#utility.yul\":2058:2063   */\n  dup2\n    /* \"#utility.yul\":2051:2072   */\n  mstore\n    /* \"#utility.yul\":2103:2107   */\n  0x20\n    /* \"#utility.yul\":2096:2101   */\n  dup2\n    /* \"#utility.yul\":2092:2108   */\n  add\n    /* \"#utility.yul\":2141:2144   */\n  dup5\n    /* \"#utility.yul\":2132:2138   */\n  dup5\n    /* \"#utility.yul\":2127:2130   */\n  dup5\n    /* \"#utility.yul\":2123:2139   */\n  add\n    /* \"#utility.yul\":2120:2145   */\n  gt\n    /* \"#utility.yul\":2117:2229   */\n  iszero\n  tag_69\n  jumpi\n    /* \"#utility.yul\":2148:2227   */\n  tag_70\n  tag_13\n  jump\t// in\ntag_70:\n    /* \"#utility.yul\":2117:2229   */\ntag_69:\n    /* \"#utility.yul\":2238:2290   */\n  tag_71\n    /* \"#utility.yul\":2283:2289   */\n  dup5\n    /* \"#utility.yul\":2278:2281   */\n  dup3\n    /* \"#utility.yul\":2273:2276   */\n  dup6\n    /* \"#utility.yul\":2238:2290   */\n  tag_19\n  jump\t// in\ntag_71:\n    /* \"#utility.yul\":1957:2296   */\n  pop\n    /* \"#utility.yul\":1862:2296   */\n  swap4\n  swap3\n  pop\n  pop\n  pop\n  jump\t// out\n    /* \"#utility.yul\":2316:2671   */\ntag_21:\n    /* \"#utility.yul\":2383:2388   */\n  0x00\n    /* \"#utility.yul\":2432:2435   */\n  dup3\n    /* \"#utility.yul\":2425:2429   */\n  0x1f\n    /* \"#utility.yul\":2417:2423   */\n  dup4\n    /* \"#utility.yul\":2413:2430   */\n  add\n    /* \"#utility.yul\":2409:2436   */\n  slt\n    /* \"#utility.yul\":2399:2521   */\n  tag_73\n  jumpi\n    /* \"#utility.yul\":2440:2519   */\n  tag_74\n  tag_12\n  jump\t// in\ntag_74:\n    /* \"#utility.yul\":2399:2521   */\ntag_73:\n    /* \"#utility.yul\":2550:2556   */\n  dup2\n    /* \"#utility.yul\":2544:2557   */\n  mload\n    /* \"#utility.yul\":2575:2665   */\n  tag_75\n    /* \"#utility.yul\":2661:2664   */\n  dup5\n    /* \"#utility.yul\":2653:2659   */\n  dup3\n    /* \"#utility.yul\":2646:2650   */\n  0x20\n    /* \"#utility.yul\":2638:2644   */\n  dup7\n    /* \"#utility.yul\":2634:2651   */\n  add\n    /* \"#utility.yul\":2575:2665   */\n  tag_20\n  jump\t// in\ntag_75:\n    /* \"#utility.yul\":2566:2665   */\n  swap2\n  pop\n    /* \"#utility.yul\":2389:2671   */\n  pop\n    /* \"#utility.yul\":2316:2671   */\n  swap3\n  swap2\n  pop\n  pop\n  jump\t// out\n    /* \"#utility.yul\":2677:2754   */\ntag_22:\n    /* \"#utility.yul\":2714:2721   */\n  0x00\n    /* \"#utility.yul\":2743:2748   */\n  dup2\n    /* \"#utility.yul\":2732:2748   */\n  swap1\n  pop\n    /* \"#utility.yul\":2677:2754   */\n  swap2\n  swap1\n  pop\n  jump\t// out\n    /* \"#utility.yul\":2760:2882   */\ntag_23:\n    /* \"#utility.yul\":2833:2857   */\n  tag_78\n    /* \"#utility.yul\":2851:2856   */\n  dup2\n    /* \"#utility.yul\":2833:2857   */\n  tag_22\n  jump\t// in\ntag_78:\n    /* \"#utility.yul\":2826:2831   */\n  dup2\n    /* \"#utility.yul\":2823:2858   */\n  eq\n    /* \"#utility.yul\":2813:2876   */\n  tag_79\n  jumpi\n    /* \"#utility.yul\":2872:2873   */\n  0x00\n    /* \"#utility.yul\":2869:2870   */\n  dup1\n    /* \"#utility.yul\":2862:2874   */\n  revert\n    /* \"#utility.yul\":2813:2876   */\ntag_79:\n    /* \"#utility.yul\":2760:2882   */\n  pop\n  jump\t// out\n    /* \"#utility.yul\":2888:3031   */\ntag_24:\n    /* \"#utility.yul\":2945:2950   */\n  0x00\n    /* \"#utility.yul\":2976:2982   */\n  dup2\n    /* \"#utility.yul\":2970:2983   */\n  mload\n    /* \"#utility.yul\":2961:2983   */\n  swap1\n  pop\n    /* \"#utility.yul\":2992:3025   */\n  tag_81\n    /* \"#utility.yul\":3019:3024   */\n  dup2\n    /* \"#utility.yul\":2992:3025   */\n  tag_23\n  jump\t// in\ntag_81:\n    /* \"#utility.yul\":2888:3031   */\n  swap3\n  swap2\n  pop\n  pop\n  jump\t// out\n    /* \"#utility.yul\":3037:3717   */\ntag_3:\n    /* \"#utility.yul\":3126:3132   */\n  0x00\n    /* \"#utility.yul\":3134:3140   */\n  dup1\n    /* \"#utility.yul\":3183:3185   */\n  0x40\n    /* \"#utility.yul\":3171:3180   */\n  dup4\n    /* \"#utility.yul\":3162:3169   */\n  dup6\n    /* \"#utility.yul\":3158:3181   */\n  sub\n    /* \"#utility.yul\":3154:3186   */\n  slt\n    /* \"#utility.yul\":3151:3270   */\n  iszero\n  tag_83\n  jumpi\n    /* \"#utility.yul\":3189:3268   */\n  tag_84\n  tag_10\n  jump\t// in\ntag_84:\n    /* \"#utility.yul\":3151:3270   */\ntag_83:\n    /* \"#utility.yul\":3330:3331   */\n  0x00\n    /* \"#utility.yul\":3319:3328   */\n  dup4\n    /* \"#utility.yul\":3315:3332   */\n  add\n    /* \"#utility.yul\":3309:3333   */\n  mload\n    /* \"#utility.yul\":3360:3378   */\n  0xffffffffffffffff\n    /* \"#utility.yul\":3352:3358   */\n  dup2\n    /* \"#utility.yul\":3349:3379   */\n  gt\n    /* \"#utility.yul\":3346:3463   */\n  iszero\n  tag_85\n  jumpi\n    /* \"#utility.yul\":3382:3461   */\n  tag_86\n  tag_11\n  jump\t// in\ntag_86:\n    /* \"#utility.yul\":3346:3463   */\ntag_85:\n    /* \"#utility.yul\":3487:3561   */\n  tag_87\n    /* \"#utility.yul\":3553:3560   */\n  dup6\n    /* \"#utility.yul\":3544:3550   */\n  dup3\n    /* \"#utility.yul\":3533:3542   */\n  dup7\n    /* \"#utility.yul\":3529:3551   */\n  add\n    /* \"#utility.yul\":3487:3561   */\n  tag_21\n  jump\t// in\ntag_87:\n    /* \"#utility.yul\":3477:3561   */\n  swap3\n  pop\n    /* \"#utility.yul\":3280:3571   */\n  pop\n    /* \"#utility.yul\":3610:3612   */\n  0x20\n    /* \"#utility.yul\":3636:3700   */\n  tag_88\n    /* \"#utility.yul\":3692:3699   */\n  dup6\n    /* \"#utility.yul\":3683:3689   */\n  dup3\n    /* \"#utility.yul\":3672:3681   */\n  dup7\n    /* \"#utility.yul\":3668:3690   */\n  add\n    /* \"#utility.yul\":3636:3700   */\n  tag_24\n  jump\t// in\ntag_88:\n    /* \"#utility.yul\":3626:3700   */\n  swap2\n  pop\n    /* \"#utility.yul\":3581:3710   */\n  pop\n    /* \"#utility.yul\":3037:3717   */\n  swap3\n  pop\n  swap3\n  swap1\n  pop\n  jump\t// out\n    /* \"#utility.yul\":3723:3822   */\ntag_25:\n    /* \"#utility.yul\":3775:3781   */\n  0x00\n    /* \"#utility.yul\":3809:3814   */\n  dup2\n    /* \"#utility.yul\":3803:3815   */\n  mload\n    /* \"#utility.yul\":3793:3815   */\n  swap1\n  pop\n    /* \"#utility.yul\":3723:3822   */\n  swap2\n  swap1\n  pop\n  jump\t// out\n    /* \"#utility.yul\":3828:4008   */\ntag_26:\n    /* \"#utility.yul\":3876:3953   */\n  0x4e487b7100000000000000000000000000000000000000000000000000000000\n    /* \"#utility.yul\":3873:3874   */\n  0x00\n    /* \"#utility.yul\":3866:3954   */\n  mstore\n    /* \"#utility.yul\":3973:3977   */\n  0x22\n    /* \"#utility.yul\":3970:3971   */\n  0x04\n    /* \"#utility.yul\":3963:3978   */\n  mstore\n    /* \"#utility.yul\":3997:4001   */\n  0x24\n    /* \"#utility.yul\":3994:3995   */\n  0x00\n    /* \"#utility.yul\":3987:4002   */\n  revert\n    /* \"#utility.yul\":4014:4334   */\ntag_27:\n    /* \"#utility.yul\":4058:4064   */\n  0x00\n    /* \"#utility.yul\":4095:4096   */\n  0x02\n    /* \"#utility.yul\":4089:4093   */\n  dup3\n    /* \"#utility.yul\":4085:4097   */\n  div\n    /* \"#utility.yul\":4075:4097   */\n  swap1\n  pop\n    /* \"#utility.yul\":4142:4143   */\n  0x01\n    /* \"#utility.yul\":4136:4140   */\n  dup3\n    /* \"#utility.yul\":4132:4144   */\n  and\n    /* \"#utility.yul\":4163:4181   */\n  dup1\n    /* \"#utility.yul\":4153:4234   */\n  tag_92\n  jumpi\n    /* \"#utility.yul\":4219:4223   */\n  0x7f\n    /* \"#utility.yul\":4211:4217   */\n  dup3\n    /* \"#utility.yul\":4207:4224   */\n  and\n    /* \"#utility.yul\":4197:4224   */\n  swap2\n  pop\n    /* \"#utility.yul\":4153:4234   */\ntag_92:\n    /* \"#utility.yul\":4281:4283   */\n  0x20\n    /* \"#utility.yul\":4273:4279   */\n  dup3\n    /* \"#utility.yul\":4270:4284   */\n  lt\n    /* \"#utility.yul\":4250:4268   */\n  dup2\n    /* \"#utility.yul\":4247:4285   */\n  sub\n    /* \"#utility.yul\":4244:4328   */\n  tag_93\n  jumpi\n    /* \"#utility.yul\":4300:4318   */\n  tag_94\n  tag_26\n  jump\t// in\ntag_94:\n    /* \"#utility.yul\":4244:4328   */\ntag_93:\n    /* \"#utility.yul\":4065:4334   */\n  pop\n    /* \"#utility.yul\":4014:4334   */\n  swap2\n  swap1\n  pop\n  jump\t// out\n    /* \"#utility.yul\":4340:4481   */\ntag_28:\n    /* \"#utility.yul\":4389:4393   */\n  0x00\n    /* \"#utility.yul\":4412:4415   */\n  dup2\n    /* \"#utility.yul\":4404:4415   */\n  swap1\n  pop\n    /* \"#utility.yul\":4435:4438   */\n  dup2\n    /* \"#utility.yul\":4432:4433   */\n  0x00\n    /* \"#utility.yul\":4425:4439   */\n  mstore\n    /* \"#utility.yul\":4469:4473   */\n  0x20\n    /* \"#utility.yul\":4466:4467   */\n  0x00\n    /* \"#utility.yul\":4456:4474   */\n  keccak256\n    /* \"#utility.yul\":4448:4474   */\n  swap1\n  pop\n    /* \"#utility.yul\":4340:4481   */\n  swap2\n  swap1\n  pop\n  jump\t// out\n    /* \"#utility.yul\":4487:4580   */\ntag_29:\n    /* \"#utility.yul\":4524:4530   */\n  0x00\n    /* \"#utility.yul\":4571:4573   */\n  0x20\n    /* \"#utility.yul\":4566:4568   */\n  0x1f\n    /* \"#utility.yul\":4559:4564   */\n  dup4\n    /* \"#utility.yul\":4555:4569   */\n  add\n    /* \"#utility.yul\":4551:4574   */\n  div\n    /* \"#utility.yul\":4541:4574   */\n  swap1\n  pop\n    /* \"#utility.yul\":4487:4580   */\n  swap2\n  swap1\n  pop\n  jump\t// out\n    /* \"#utility.yul\":4586:4693   */\ntag_30:\n    /* \"#utility.yul\":4630:4638   */\n  0x00\n    /* \"#utility.yul\":4680:4685   */\n  dup3\n    /* \"#utility.yul\":4674:4678   */\n  dup3\n    /* \"#utility.yul\":4670:4686   */\n  shl\n    /* \"#utility.yul\":4649:4686   */\n  swap1\n  pop\n    /* \"#utility.yul\":4586:4693   */\n  swap3\n  swap2\n  pop\n  pop\n  jump\t// out\n    /* \"#utility.yul\":4699:5092   */\ntag_31:\n    /* \"#utility.yul\":4768:4774   */\n  0x00\n    /* \"#utility.yul\":4818:4819   */\n  0x08\n    /* \"#utility.yul\":4806:4816   */\n  dup4\n    /* \"#utility.yul\":4802:4820   */\n  mul\n    /* \"#utility.yul\":4841:4938   */\n  tag_99\n    /* \"#utility.yul\":4871:4937   */\n  0xffffffffffffffffffffffffffffffffffffffffffffffffffffffffffffffff\n    /* \"#utility.yul\":4860:4869   */\n  dup3\n    /* \"#utility.yul\":4841:4938   */\n  tag_30\n  jump\t// in\ntag_99:\n    /* \"#utility.yul\":4959:4998   */\n  tag_100\n    /* \"#utility.yul\":4989:4997   */\n  dup7\n    /* \"#utility.yul\":4978:4987   */\n  dup4\n    /* \"#utility.yul\":4959:4998   */\n  tag_30\n  jump\t// in\ntag_100:\n    /* \"#utility.yul\":4947:4998   */\n  swap6\n  pop\n    /* \"#utility.yul\":5031:5035   */\n  dup1\n    /* \"#utility.yul\":5027:5036   */\n  not\n    /* \"#utility.yul\":5020:5025   */\n  dup5\n    /* \"#utility.yul\":5016:5037   */\n  and\n    /* \"#utility.yul\":5007:5037   */\n  swap4\n  pop\n    /* \"#utility.yul\":5080:5084   */\n  dup1\n    /* \"#utility.yul\":5070:5078   */\n  dup7\n    /* \"#utility.yul\":5066:5085   */\n  and\n    /* \"#utility.yul\":5059:5064   */\n  dup5\n    /* \"#utility.yul\":5056:5086   */\n  or\n    /* \"#utility.yul\":5046:5086   */\n  swap3\n  pop\n    /* \"#utility.yul\":4775:5092   */\n  pop\n  pop\n    /* \"#utility.yul\":4699:5092   */\n  swap4\n  swap3\n  pop\n  pop\n  pop\n  jump\t// out\n    /* \"#utility.yul\":5098:5158   */\ntag_32:\n    /* \"#utility.yul\":5126:5129   */\n  0x00\n    /* \"#utility.yul\":5147:5152   */\n  dup2\n    /* \"#utility.yul\":5140:5152   */\n  swap1\n  pop\n    /* \"#utility.yul\":5098:5158   */\n  swap2\n  swap1\n  pop\n  jump\t// out\n    /* \"#utility.yul\":5164:5306   */\ntag_33:\n    /* \"#utility.yul\":5214:5223   */\n  0x00\n    /* \"#utility.yul\":5247:5300   */\n  tag_103\n    /* \"#utility.yul\":5265:5299   */\n  tag_104\n    /* \"#utility.yul\":5274:5298   */\n  tag_105\n    /* \"#utility.yul\":5292:5297   */\n  dup5\n    /* \"#utility.yul\":5274:5298   */\n  tag_22\n  jump\t// in\ntag_105:\n    /* \"#utility.yul\":5265:5299   */\n  tag_32\n  jump\t// in\ntag_104:\n    /* \"#utility.yul\":5247:5300   */\n  tag_22\n  jump\t// in\ntag_103:\n    /* \"#utility.yul\":5234:5300   */\n  swap1\n  pop\n    /* \"#utility.yul\":5164:5306   */\n  swap2\n  swap1\n  pop\n  jump\t// out\n    /* \"#utility.yul\":5312:5387   */\ntag_34:\n    /* \"#utility.yul\":5355:5358   */\n  0x00\n    /* \"#utility.yul\":5376:5381   */\n  dup2\n    /* \"#utility.yul\":5369:5381   */\n  swap1\n  pop\n    /* \"#utility.yul\":5312:5387   */\n  swap2\n  swap1\n  pop\n  jump\t// out\n    /* \"#utility.yul\":5393:5662   */\ntag_35:\n    /* \"#utility.yul\":5503:5542   */\n  tag_108\n    /* \"#utility.yul\":5534:5541   */\n  dup4\n    /* \"#utility.yul\":5503:5542   */\n  tag_33\n  jump\t// in\ntag_108:\n    /* \"#utility.yul\":5564:5655   */\n  tag_109\n    /* \"#utility.yul\":5613:5654   */\n  tag_110\n    /* \"#utility.yul\":5637:5653   */\n  dup3\n    /* \"#utility.yul\":5613:5654   */\n  tag_34\n  jump\t// in\ntag_110:\n    /* \"#utility.yul\":5605:5611   */\n  dup5\n    /* \"#utility.yul\":5598:5602   */\n  dup5\n    /* \"#utility.yul\":5592:5603   */\n  sload\n    /* \"#utility.yul\":5564:5655   */\n  tag_31\n  jump\t// in\ntag_109:\n    /* \"#utility.yul\":5558:5562   */\n  dup3\n    /* \"#utility.yul\":5551:5656   */\n  sstore\n    /* \"#utility.yul\":5469:5662   */\n  pop\n    /* \"#utility.yul\":5393:5662   */\n  pop\n  pop\n  pop\n  jump\t// out\n    /* \"#utility.yul\":5668:5741   */\ntag_36:\n    /* \"#utility.yul\":5713:5716   */\n  0x00\n    /* \"#utility.yul\":5668:5741   */\n  swap1\n  jump\t// out\n    /* \"#utility.yul\":5747:5936   */\ntag_37:\n    /* \"#utility.yul\":5824:5856   */\n  tag_113\n  tag_36\n  jump\t// in\ntag_113:\n    /* \"#utility.yul\":5865:5930   */\n  tag_114\n    /* \"#utility.yul\":5923:5929   */\n  dup2\n    /* \"#utility.yul\":5915:5921   */\n  dup5\n    /* \"#utility.yul\":5909:5913   */\n  dup5\n    /* \"#utility.yul\":5865:5930   */\n  tag_35\n  jump\t// in\ntag_114:\n    /* \"#utility.yul\":5800:5936   */\n  pop\n    /* \"#utility.yul\":5747:5936   */\n  pop\n  pop\n  jump\t// out\n    /* \"#utility.yul\":5942:6128   */\ntag_38:\n    /* \"#utility.yul\":6002:6122   */\ntag_116:\n    /* \"#utility.yul\":6019:6022   */\n  dup2\n    /* \"#utility.yul\":6012:6017   */\n  dup2\n    /* \"#utility.yul\":6009:6023   */\n  lt\n    /* \"#utility.yul\":6002:6122   */\n  iszero\n  tag_118\n  jumpi\n    /* \"#utility.yul\":6073:6112   */\n  tag_119\n    /* \"#utility.yul\":6110:6111   */\n  0x00\n    /* \"#utility.yul\":6103:6108   */\n  dup3\n    /* \"#utility.yul\":6073:6112   */\n  tag_37\n  jump\t// in\ntag_119:\n    /* \"#utility.yul\":6046:6047   */\n  0x01\n    /* \"#utility.yul\":6039:6044   */\n  dup2\n    /* \"#utility.yul\":6035:6048   */\n  add\n    /* \"#utility.yul\":6026:6048   */\n  swap1\n  pop\n    /* \"#utility.yul\":6002:6122   */\n  jump(tag_116)\ntag_118:\n    /* \"#utility.yul\":5942:6128   */\n  pop\n  pop\n  jump\t// out\n    /* \"#utility.yul\":6134:6677   */\ntag_39:\n    /* \"#utility.yul\":6235:6237   */\n  0x1f\n    /* \"#utility.yul\":6230:6233   */\n  dup3\n    /* \"#utility.yul\":6227:6238   */\n  gt\n    /* \"#utility.yul\":6224:6670   */\n  iszero\n  tag_121\n  jumpi\n    /* \"#utility.yul\":6269:6307   */\n  tag_122\n    /* \"#utility.yul\":6301:6306   */\n  dup2\n    /* \"#utility.yul\":6269:6307   */\n  tag_28\n  jump\t// in\ntag_122:\n    /* \"#utility.yul\":6353:6382   */\n  tag_123\n    /* \"#utility.yul\":6371:6381   */\n  dup5\n    /* \"#utility.yul\":6353:6382   */\n  tag_29\n  jump\t// in\ntag_123:\n    /* \"#utility.yul\":6343:6351   */\n  dup2\n    /* \"#utility.yul\":6339:6383   */\n  add\n    /* \"#utility.yul\":6536:6538   */\n  0x20\n    /* \"#utility.yul\":6524:6534   */\n  dup6\n    /* \"#utility.yul\":6521:6539   */\n  lt\n    /* \"#utility.yul\":6518:6567   */\n  iszero\n  tag_124\n  jumpi\n    /* \"#utility.yul\":6557:6565   */\n  dup2\n    /* \"#utility.yul\":6542:6565   */\n  swap1\n  pop\n    /* \"#utility.yul\":6518:6567   */\ntag_124:\n    /* \"#utility.yul\":6580:6660   */\n  tag_125\n    /* \"#utility.yul\":6636:6658   */\n  tag_126\n    /* \"#utility.yul\":6654:6657   */\n  dup6\n    /* \"#utility.yul\":6636:6658   */\n  tag_29\n  jump\t// in\ntag_126:\n    /* \"#utility.yul\":6626:6634   */\n  dup4\n    /* \"#utility.yul\":6622:6659   */\n  add\n    /* \"#utility.yul\":6609:6620   */\n  dup3\n    /* \"#utility.yul\":6580:6660   */\n  tag_38\n  jump\t// in\ntag_125:\n    /* \"#utility.yul\":6239:6670   */\n  pop\n  pop\n    /* \"#utility.yul\":6224:6670   */\ntag_121:\n    /* \"#utility.yul\":6134:6677   */\n  pop\n  pop\n  pop\n  jump\t// out\n    /* \"#utility.yul\":6683:6800   */\ntag_40:\n    /* \"#utility.yul\":6737:6745   */\n  0x00\n    /* \"#utility.yul\":6787:6792   */\n  dup3\n    /* \"#utility.yul\":6781:6785   */\n  dup3\n    /* \"#utility.yul\":6777:6793   */\n  shr\n    /* \"#utility.yul\":6756:6793   */\n  swap1\n  pop\n    /* \"#utility.yul\":6683:6800   */\n  swap3\n  swap2\n  pop\n  pop\n  jump\t// out\n    /* \"#utility.yul\":6806:6975   */\ntag_41:\n    /* \"#utility.yul\":6850:6856   */\n  0x00\n    /* \"#utility.yul\":6883:6934   */\n  tag_129\n    /* \"#utility.yul\":6931:6932   */\n  0x00\n    /* \"#utility.yul\":6927:6933   */\n  not\n    /* \"#utility.yul\":6919:6924   */\n  dup5\n    /* \"#utility.yul\":6916:6917   */\n  0x08\n    /* \"#utility.yul\":6912:6925   */\n  mul\n    /* \"#utility.yul\":6883:6934   */\n  tag_40\n  jump\t// in\ntag_129:\n    /* \"#utility.yul\":6879:6935   */\n  not\n    /* \"#utility.yul\":6964:6968   */\n  dup1\n    /* \"#utility.yul\":6958:6962   */\n  dup4\n    /* \"#utility.yul\":6954:6969   */\n  and\n    /* \"#utility.yul\":6944:6969   */\n  swap2\n  pop\n    /* \"#utility.yul\":6857:6975   */\n  pop\n    /* \"#utility.yul\":6806:6975   */\n  swap3\n  swap2\n  pop\n  pop\n  jump\t// out\n    /* \"#utility.yul\":6980:7275   */\ntag_42:\n    /* \"#utility.yul\":7056:7060   */\n  0x00\n    /* \"#utility.yul\":7202:7231   */\n  tag_131\n    /* \"#utility.yul\":7227:7230   */\n  dup4\n    /* \"#utility.yul\":7221:7225   */\n  dup4\n    /* \"#utility.yul\":7202:7231   */\n  tag_41\n  jump\t// in\ntag_131:\n    /* \"#utility.yul\":7194:7231   */\n  swap2\n  pop\n    /* \"#utility.yul\":7264:7267   */\n  dup3\n    /* \"#utility.yul\":7261:7262   */\n  0x02\n    /* \"#utility.yul\":7257:7268   */\n  mul\n    /* \"#utility.yul\":7251:7255   */\n  dup3\n    /* \"#utility.yul\":7248:7269   */\n  or\n    /* \"#utility.yul\":7240:7269   */\n  swap1\n  pop\n    /* \"#utility.yul\":6980:7275   */\n  swap3\n  swap2\n  pop\n  pop\n  jump\t// out\n    /* \"#utility.yul\":7280:8675   */\ntag_7:\n    /* \"#utility.yul\":7397:7434   */\n  tag_133\n    /* \"#utility.yul\":7430:7433   */\n  dup3\n    /* \"#utility.yul\":7397:7434   */\n  tag_25\n  jump\t// in\ntag_133:\n    /* \"#utility.yul\":7499:7517   */\n  0xffffffffffffffff\n    /* \"#utility.yul\":7491:7497   */\n  dup2\n    /* \"#utility.yul\":7488:7518   */\n  gt\n    /* \"#utility.yul\":7485:7541   */\n  iszero\n  tag_134\n  jumpi\n    /* \"#utility.yul\":7521:7539   */\n  tag_135\n  tag_15\n  jump\t// in\ntag_135:\n    /* \"#utility.yul\":7485:7541   */\ntag_134:\n    /* \"#utility.yul\":7565:7603   */\n  tag_136\n    /* \"#utility.yul\":7597:7601   */\n  dup3\n    /* \"#utility.yul\":7591:7602   */\n  sload\n    /* \"#utility.yul\":7565:7603   */\n  tag_27\n  jump\t// in\ntag_136:\n    /* \"#utility.yul\":7650:7717   */\n  tag_137\n    /* \"#utility.yul\":7710:7716   */\n  dup3\n    /* \"#utility.yul\":7702:7708   */\n  dup3\n    /* \"#utility.yul\":7696:7700   */\n  dup6\n    /* \"#utility.yul\":7650:7717   */\n  tag_39\n  jump\t// in\ntag_137:\n    /* \"#utility.yul\":7744:7745   */\n  0x00\n    /* \"#utility.yul\":7768:7772   */\n  0x20\n    /* \"#utility.yul\":7755:7772   */\n  swap1\n  pop\n    /* \"#utility.yul\":7800:7802   */\n  0x1f\n    /* \"#utility.yul\":7792:7798   */\n  dup4\n    /* \"#utility.yul\":7789:7803   */\n  gt\n    /* \"#utility.yul\":7817:7818   */\n  0x01\n    /* \"#utility.yul\":7812:8430   */\n  dup2\n  eq\n  tag_139\n  jumpi\n    /* \"#utility.yul\":8474:8475   */\n  0x00\n    /* \"#utility.yul\":8491:8497   */\n  dup5\n    /* \"#utility.yul\":8488:8565   */\n  iszero\n  tag_140\n  jumpi\n    /* \"#utility.yul\":8540:8549   */\n  dup3\n    /* \"#utility.yul\":8535:8538   */\n  dup8\n    /* \"#utility.yul\":8531:8550   */\n  add\n    /* \"#utility.yul\":8525:8551   */\n  mload\n    /* \"#utility.yul\":8516:8551   */\n  swap1\n  pop\n    /* \"#utility.yul\":8488:8565   */\ntag_140:\n    /* \"#utility.yul\":8591:8658   */\n  tag_141\n    /* \"#utility.yul\":8651:8657   */\n  dup6\n    /* \"#utility.yul\":8644:8649   */\n  dup3\n    /* \"#utility.yul\":8591:8658   */\n  tag_42\n  jump\t// in\ntag_141:\n    /* \"#utility.yul\":8585:8589   */\n  dup7\n    /* \"#utility.yul\":8578:8659   */\n  sstore\n    /* \"#utility.yul\":8447:8669   */\n  pop\n    /* \"#utility.yul\":7782:8669   */\n  jump(tag_138)\n    /* \"#utility.yul\":7812:8430   */\ntag_139:\n    /* \"#utility.yul\":7864:7868   */\n  0x1f\n    /* \"#utility.yul\":7860:7869   */\n  not\n    /* \"#utility.yul\":7852:7858   */\n  dup5\n    /* \"#utility.yul\":7848:7870   */\n  and\n    /* \"#utility.yul\":7898:7935   */\n  tag_142\n    /* \"#utility.yul\":7930:7934   */\n  dup7\n    /* \"#utility.yul\":7898:7935   */\n  tag_28\n  jump\t// in\ntag_142:\n    /* \"#utility.yul\":7957:7958   */\n  0x00\n    /* \"#utility.yul\":7971:8179   */\ntag_143:\n    /* \"#utility.yul\":7985:7992   */\n  dup3\n    /* \"#utility.yul\":7982:7983   */\n  dup2\n    /* \"#utility.yul\":7979:7993   */\n  lt\n    /* \"#utility.yul\":7971:8179   */\n  iszero\n  tag_145\n  jumpi\n    /* \"#utility.yul\":8064:8073   */\n  dup5\n    /* \"#utility.yul\":8059:8062   */\n  dup10\n    /* \"#utility.yul\":8055:8074   */\n  add\n    /* \"#utility.yul\":8049:8075   */\n  mload\n    /* \"#utility.yul\":8041:8047   */\n  dup3\n    /* \"#utility.yul\":8034:8076   */\n  sstore\n    /* \"#utility.yul\":8115:8116   */\n  0x01\n    /* \"#utility.yul\":8107:8113   */\n  dup3\n    /* \"#utility.yul\":8103:8117   */\n  add\n    /* \"#utility.yul\":8093:8117   */\n  swap2\n  pop\n    /* \"#utility.yul\":8162:8164   */\n  0x20\n    /* \"#utility.yul\":8151:8160   */\n  dup6\n    /* \"#utility.yul\":8147:8165   */\n  add\n    /* \"#utility.yul\":8134:8165   */\n  swap5\n  pop\n    /* \"#utility.yul\":8008:8012   */\n  0x20\n    /* \"#utility.yul\":8005:8006   */\n  dup2\n    /* \"#utility.yul\":8001:8013   */\n  add\n    /* \"#utility.yul\":7996:8013   */\n  swap1\n  pop\n    /* \"#utility.yul\":7971:8179   */\n  jump(tag_143)\ntag_145:\n    /* \"#utility.yul\":8207:8213   */\n  dup7\n    /* \"#utility.yul\":8198:8205   */\n  dup4\n    /* \"#utility.yul\":8195:8214   */\n  lt\n    /* \"#utility.yul\":8192:8371   */\n  iszero\n  tag_146\n  jumpi\n    /* \"#utility.yul\":8265:8274   */\n  dup5\n    /* \"#utility.yul\":8260:8263   */\n  dup10\n    /* \"#utility.yul\":8256:8275   */\n  add\n    /* \"#utility.yul\":8250:8276   */\n  mload\n    /* \"#utility.yul\":8308:8356   */\n  tag_147\n    /* \"#utility.yul\":8350:8354   */\n  0x1f\n    /* \"#utility.yul\":8342:8348   */\n  dup10\n    /* \"#utility.yul\":8338:8355   */\n  and\n    /* \"#utility.yul\":8327:8336   */\n  dup3\n    /* \"#utility.yul\":8308:8356   */\n  tag_41\n  jump\t// in\ntag_147:\n    /* \"#utility.yul\":8300:8306   */\n  dup4\n    /* \"#utility.yul\":8293:8357   */\n  sstore\n    /* \"#utility.yul\":8215:8371   */\n  pop\n    /* \"#utility.yul\":8192:8371   */\ntag_146:\n    /* \"#utility.yul\":8417:8418   */\n  0x01\n    /* \"#utility.yul\":8413:8414   */\n  0x02\n    /* \"#utility.yul\":8405:8411   */\n  dup9\n    /* \"#utility.yul\":8401:8415   */\n  mul\n    /* \"#utility.yul\":8397:8419   */\n  add\n    /* \"#utility.yul\":8391:8395   */\n  dup9\n    /* \"#utility.yul\":8384:8420   */\n  sstore\n    /* \"#utility.yul\":7819:8430   */\n  pop\n  pop\n  pop\n    /* \"#utility.yul\":7782:8669   */\ntag_138:\n  pop\n    /* \"#utility.yul\":7372:8675   */\n  pop\n  pop\n  pop\n    /* \"#utility.yul\":7280:8675   */\n  pop\n  pop\n  jump\t// out\n    /* \"Struct.sol\":125:402  contract Test5 {... */\ntag_8:\n  dataSize(sub_0)\n  dup1\n  dataOffset(sub_0)\n  0x00\n  codecopy\n  0x00\n  return\nstop\n\nsub_0: assembly {\n        /* \"Struct.sol\":125:402  contract Test5 {... */\n      mstore(0x40, 0x80)\n      callvalue\n      dup1\n      iszero\n      tag_1\n      jumpi\n      0x00\n      dup1\n      revert\n    tag_1:\n      pop\n      jumpi(tag_2, lt(calldatasize, 0x04))\n      shr(0xe0, calldataload(0x00))\n      dup1\n      0x4ee5c2ee\n      eq\n      tag_3\n      jumpi\n      dup1\n      0x6cc014de\n      eq\n      tag_4\n      jumpi\n    tag_2:\n      0x00\n      dup1\n      revert\n        /* \"Struct.sol\":291:397  function update(string calldata n1,uint r1) public{... */\n    tag_3:\n      tag_5\n      0x04\n      dup1\n      calldatasize\n      sub\n      dup2\n      add\n      swap1\n      tag_6\n      swap2\n      swap1\n      tag_7\n      jump\t// in\n    tag_6:\n      tag_8\n      jump\t// in\n    tag_5:\n      stop\n        /* \"Struct.sol\":149:166  Student public s1 */\n    tag_4:\n      tag_9\n      tag_10\n      jump\t// in\n    tag_9:\n      mload(0x40)\n      tag_11\n      swap3\n      swap2\n      swap1\n      tag_12\n      jump\t// in\n    tag_11:\n      mload(0x40)\n      dup1\n      swap2\n      sub\n      swap1\n      return\n        /* \"Struct.sol\":291:397  function update(string calldata n1,uint r1) public{... */\n    tag_8:\n        /* \"Struct.sol\":362:364  n1 */\n      dup3\n      dup3\n        /* \"Struct.sol\":352:354  s1 */\n      0x00\n        /* \"Struct.sol\":352:359  s1.Name */\n      dup1\n      add\n        /* \"Struct.sol\":352:364  s1.Name = n1 */\n      swap2\n      dup3\n      tag_14\n      swap3\n      swap2\n      swap1\n      tag_15\n      jump\t// in\n    tag_14:\n      pop\n        /* \"Struct.sol\":387:389  r1 */\n      dup1\n        /* \"Struct.sol\":375:377  s1 */\n      0x00\n        /* \"Struct.sol\":375:384  s1.RollNo */\n      0x01\n      add\n        /* \"Struct.sol\":375:389  s1.RollNo = r1 */\n      dup2\n      swap1\n      sstore\n      pop\n        /* \"Struct.sol\":291:397  function update(string calldata n1,uint r1) public{... */\n      pop\n      pop\n      pop\n      jump\t// out\n        /* \"Struct.sol\":149:166  Student public s1 */\n    tag_10:\n      0x00\n      dup1\n      0x00\n      add\n      dup1\n      sload\n      tag_16\n      swap1\n      tag_17\n      jump\t// in\n    tag_16:\n      dup1\n      0x1f\n      add\n      0x20\n      dup1\n      swap2\n      div\n      mul\n      0x20\n      add\n      mload(0x40)\n      swap1\n      dup2\n      add\n      0x40\n      mstore\n      dup1\n      swap3\n      swap2\n      swap1\n      dup2\n      dup2\n      mstore\n      0x20\n      add\n      dup3\n      dup1\n      sload\n      tag_18\n      swap1\n      tag_17\n      jump\t// in\n    tag_18:\n      dup1\n      iszero\n      tag_19\n      jumpi\n      dup1\n      0x1f\n      lt\n      tag_20\n      jumpi\n      0x0100\n      dup1\n      dup4\n      sload\n      div\n      mul\n      dup4\n      mstore\n      swap2\n      0x20\n      add\n      swap2\n      jump(tag_19)\n    tag_20:\n      dup3\n      add\n      swap2\n      swap1\n      0x00\n      mstore\n      keccak256(0x00, 0x20)\n      swap1\n    tag_21:\n      dup2\n      sload\n      dup2\n      mstore\n      swap1\n      0x01\n      add\n      swap1\n      0x20\n      add\n      dup1\n      dup4\n      gt\n      tag_21\n      jumpi\n      dup3\n      swap1\n      sub\n      0x1f\n      and\n      dup3\n      add\n      swap2\n    tag_19:\n      pop\n      pop\n      pop\n      pop\n      pop\n      swap1\n      dup1\n      0x01\n      add\n      sload\n      swap1\n      pop\n      dup3\n      jump\t// out\n        /* \"#utility.yul\":88:205   */\n    tag_23:\n        /* \"#utility.yul\":197:198   */\n      0x00\n        /* \"#utility.yul\":194:195   */\n      dup1\n        /* \"#utility.yul\":187:199   */\n      revert\n        /* \"#utility.yul\":211:328   */\n    tag_24:\n        /* \"#utility.yul\":320:321   */\n      0x00\n        /* \"#utility.yul\":317:318   */\n      dup1\n        /* \"#utility.yul\":310:322   */\n      revert\n        /* \"#utility.yul\":334:451   */\n    tag_25:\n        /* \"#utility.yul\":443:444   */\n      0x00\n        /* \"#utility.yul\":440:441   */\n      dup1\n        /* \"#utility.yul\":433:445   */\n      revert\n        /* \"#utility.yul\":457:574   */\n    tag_26:\n        /* \"#utility.yul\":566:567   */\n      0x00\n        /* \"#utility.yul\":563:564   */\n      dup1\n        /* \"#utility.yul\":556:568   */\n      revert\n        /* \"#utility.yul\":580:697   */\n    tag_27:\n        /* \"#utility.yul\":689:690   */\n      0x00\n        /* \"#utility.yul\":686:687   */\n      dup1\n        /* \"#utility.yul\":679:691   */\n      revert\n        /* \"#utility.yul\":717:1270   */\n    tag_28:\n        /* \"#utility.yul\":775:783   */\n      0x00\n        /* \"#utility.yul\":785:791   */\n      dup1\n        /* \"#utility.yul\":835:838   */\n      dup4\n        /* \"#utility.yul\":828:832   */\n      0x1f\n        /* \"#utility.yul\":820:826   */\n      dup5\n        /* \"#utility.yul\":816:833   */\n      add\n        /* \"#utility.yul\":812:839   */\n      slt\n        /* \"#utility.yul\":802:924   */\n      tag_64\n      jumpi\n        /* \"#utility.yul\":843:922   */\n      tag_65\n      tag_25\n      jump\t// in\n    tag_65:\n        /* \"#utility.yul\":802:924   */\n    tag_64:\n        /* \"#utility.yul\":956:962   */\n      dup3\n        /* \"#utility.yul\":943:963   */\n      calldataload\n        /* \"#utility.yul\":933:963   */\n      swap1\n      pop\n        /* \"#utility.yul\":986:1004   */\n      0xffffffffffffffff\n        /* \"#utility.yul\":978:984   */\n      dup2\n        /* \"#utility.yul\":975:1005   */\n      gt\n        /* \"#utility.yul\":972:1089   */\n      iszero\n      tag_66\n      jumpi\n        /* \"#utility.yul\":1008:1087   */\n      tag_67\n      tag_26\n      jump\t// in\n    tag_67:\n        /* \"#utility.yul\":972:1089   */\n    tag_66:\n        /* \"#utility.yul\":1122:1126   */\n      0x20\n        /* \"#utility.yul\":1114:1120   */\n      dup4\n        /* \"#utility.yul\":1110:1127   */\n      add\n        /* \"#utility.yul\":1098:1127   */\n      swap2\n      pop\n        /* \"#utility.yul\":1176:1179   */\n      dup4\n        /* \"#utility.yul\":1168:1172   */\n      0x01\n        /* \"#utility.yul\":1160:1166   */\n      dup3\n        /* \"#utility.yul\":1156:1173   */\n      mul\n        /* \"#utility.yul\":1146:1154   */\n      dup4\n        /* \"#utility.yul\":1142:1174   */\n      add\n        /* \"#utility.yul\":1139:1180   */\n      gt\n        /* \"#utility.yul\":1136:1264   */\n      iszero\n      tag_68\n      jumpi\n        /* \"#utility.yul\":1183:1262   */\n      tag_69\n      tag_27\n      jump\t// in\n    tag_69:\n        /* \"#utility.yul\":1136:1264   */\n    tag_68:\n        /* \"#utility.yul\":717:1270   */\n      swap3\n      pop\n      swap3\n      swap1\n      pop\n      jump\t// out\n        /* \"#utility.yul\":1276:1353   */\n    tag_29:\n        /* \"#utility.yul\":1313:1320   */\n      0x00\n        /* \"#utility.yul\":1342:1347   */\n      dup2\n        /* \"#utility.yul\":1331:1347   */\n      swap1\n      pop\n        /* \"#utility.yul\":1276:1353   */\n      swap2\n      swap1\n      pop\n      jump\t// out\n        /* \"#utility.yul\":1359:1481   */\n    tag_30:\n        /* \"#utility.yul\":1432:1456   */\n      tag_72\n        /* \"#utility.yul\":1450:1455   */\n      dup2\n        /* \"#utility.yul\":1432:1456   */\n      tag_29\n      jump\t// in\n    tag_72:\n        /* \"#utility.yul\":1425:1430   */\n      dup2\n        /* \"#utility.yul\":1422:1457   */\n      eq\n        /* \"#utility.yul\":1412:1475   */\n      tag_73\n      jumpi\n        /* \"#utility.yul\":1471:1472   */\n      0x00\n        /* \"#utility.yul\":1468:1469   */\n      dup1\n        /* \"#utility.yul\":1461:1473   */\n      revert\n        /* \"#utility.yul\":1412:1475   */\n    tag_73:\n        /* \"#utility.yul\":1359:1481   */\n      pop\n      jump\t// out\n        /* \"#utility.yul\":1487:1626   */\n    tag_31:\n        /* \"#utility.yul\":1533:1538   */\n      0x00\n        /* \"#utility.yul\":1571:1577   */\n      dup2\n        /* \"#utility.yul\":1558:1578   */\n      calldataload\n        /* \"#utility.yul\":1549:1578   */\n      swap1\n      pop\n        /* \"#utility.yul\":1587:1620   */\n      tag_75\n        /* \"#utility.yul\":1614:1619   */\n      dup2\n        /* \"#utility.yul\":1587:1620   */\n      tag_30\n      jump\t// in\n    tag_75:\n        /* \"#utility.yul\":1487:1626   */\n      swap3\n      swap2\n      pop\n      pop\n      jump\t// out\n        /* \"#utility.yul\":1632:2306   */\n    tag_7:\n        /* \"#utility.yul\":1712:1718   */\n      0x00\n        /* \"#utility.yul\":1720:1726   */\n      dup1\n        /* \"#utility.yul\":1728:1734   */\n      0x00\n        /* \"#utility.yul\":1777:1779   */\n      0x40\n        /* \"#utility.yul\":1765:1774   */\n      dup5\n        /* \"#utility.yul\":1756:1763   */\n      dup7\n        /* \"#utility.yul\":1752:1775   */\n      sub\n        /* \"#utility.yul\":1748:1780   */\n      slt\n        /* \"#utility.yul\":1745:1864   */\n      iszero\n      tag_77\n      jumpi\n        /* \"#utility.yul\":1783:1862   */\n      tag_78\n      tag_23\n      jump\t// in\n    tag_78:\n        /* \"#utility.yul\":1745:1864   */\n    tag_77:\n        /* \"#utility.yul\":1931:1932   */\n      0x00\n        /* \"#utility.yul\":1920:1929   */\n      dup5\n        /* \"#utility.yul\":1916:1933   */\n      add\n        /* \"#utility.yul\":1903:1934   */\n      calldataload\n        /* \"#utility.yul\":1961:1979   */\n      0xffffffffffffffff\n        /* \"#utility.yul\":1953:1959   */\n      dup2\n        /* \"#utility.yul\":1950:1980   */\n      gt\n        /* \"#utility.yul\":1947:2064   */\n      iszero\n      tag_79\n      jumpi\n        /* \"#utility.yul\":1983:2062   */\n      tag_80\n      tag_24\n      jump\t// in\n    tag_80:\n        /* \"#utility.yul\":1947:2064   */\n    tag_79:\n        /* \"#utility.yul\":2096:2161   */\n      tag_81\n        /* \"#utility.yul\":2153:2160   */\n      dup7\n        /* \"#utility.yul\":2144:2150   */\n      dup3\n        /* \"#utility.yul\":2133:2142   */\n      dup8\n        /* \"#utility.yul\":2129:2151   */\n      add\n        /* \"#utility.yul\":2096:2161   */\n      tag_28\n      jump\t// in\n    tag_81:\n        /* \"#utility.yul\":2078:2161   */\n      swap4\n      pop\n      swap4\n      pop\n        /* \"#utility.yul\":1874:2171   */\n      pop\n        /* \"#utility.yul\":2210:2212   */\n      0x20\n        /* \"#utility.yul\":2236:2289   */\n      tag_82\n        /* \"#utility.yul\":2281:2288   */\n      dup7\n        /* \"#utility.yul\":2272:2278   */\n      dup3\n        /* \"#utility.yul\":2261:2270   */\n      dup8\n        /* \"#utility.yul\":2257:2279   */\n      add\n        /* \"#utility.yul\":2236:2289   */\n      tag_31\n      jump\t// in\n    tag_82:\n        /* \"#utility.yul\":2226:2289   */\n      swap2\n      pop\n        /* \"#utility.yul\":2181:2299   */\n      pop\n        /* \"#utility.yul\":1632:2306   */\n      swap3\n      pop\n      swap3\n      pop\n      swap3\n      jump\t// out\n        /* \"#utility.yul\":2312:2411   */\n    tag_32:\n        /* \"#utility.yul\":2364:2370   */\n      0x00\n        /* \"#utility.yul\":2398:2403   */\n      dup2\n        /* \"#utility.yul\":2392:2404   */\n      mload\n        /* \"#utility.yul\":2382:2404   */\n      swap1\n      pop\n        /* \"#utility.yul\":2312:2411   */\n      swap2\n      swap1\n      pop\n      jump\t// out\n        /* \"#utility.yul\":2417:2586   */\n    tag_33:\n        /* \"#utility.yul\":2501:2512   */\n      0x00\n        /* \"#utility.yul\":2535:2541   */\n      dup3\n        /* \"#utility.yul\":2530:2533   */\n      dup3\n        /* \"#utility.yul\":2523:2542   */\n      mstore\n        /* \"#utility.yul\":2575:2579   */\n      0x20\n        /* \"#utility.yul\":2570:2573   */\n      dup3\n        /* \"#utility.yul\":2566:2580   */\n      add\n        /* \"#utility.yul\":2551:2580   */\n      swap1\n      pop\n        /* \"#utility.yul\":2417:2586   */\n      swap3\n      swap2\n      pop\n      pop\n      jump\t// out\n        /* \"#utility.yul\":2592:2838   */\n    tag_34:\n        /* \"#utility.yul\":2673:2674   */\n      0x00\n        /* \"#utility.yul\":2683:2796   */\n    tag_86:\n        /* \"#utility.yul\":2697:2703   */\n      dup4\n        /* \"#utility.yul\":2694:2695   */\n      dup2\n        /* \"#utility.yul\":2691:2704   */\n      lt\n        /* \"#utility.yul\":2683:2796   */\n      iszero\n      tag_88\n      jumpi\n        /* \"#utility.yul\":2782:2783   */\n      dup1\n        /* \"#utility.yul\":2777:2780   */\n      dup3\n        /* \"#utility.yul\":2773:2784   */\n      add\n        /* \"#utility.yul\":2767:2785   */\n      mload\n        /* \"#utility.yul\":2763:2764   */\n      dup2\n        /* \"#utility.yul\":2758:2761   */\n      dup5\n        /* \"#utility.yul\":2754:2765   */\n      add\n        /* \"#utility.yul\":2747:2786   */\n      mstore\n        /* \"#utility.yul\":2719:2721   */\n      0x20\n        /* \"#utility.yul\":2716:2717   */\n      dup2\n        /* \"#utility.yul\":2712:2722   */\n      add\n        /* \"#utility.yul\":2707:2722   */\n      swap1\n      pop\n        /* \"#utility.yul\":2683:2796   */\n      jump(tag_86)\n    tag_88:\n        /* \"#utility.yul\":2830:2831   */\n      0x00\n        /* \"#utility.yul\":2821:2827   */\n      dup5\n        /* \"#utility.yul\":2816:2819   */\n      dup5\n        /* \"#utility.yul\":2812:2828   */\n      add\n        /* \"#utility.yul\":2805:2832   */\n      mstore\n        /* \"#utility.yul\":2654:2838   */\n      pop\n        /* \"#utility.yul\":2592:2838   */\n      pop\n      pop\n      pop\n      jump\t// out\n        /* \"#utility.yul\":2844:2946   */\n    tag_35:\n        /* \"#utility.yul\":2885:2891   */\n      0x00\n        /* \"#utility.yul\":2936:2938   */\n      0x1f\n        /* \"#utility.yul\":2932:2939   */\n      not\n        /* \"#utility.yul\":2927:2929   */\n      0x1f\n        /* \"#utility.yul\":2920:2925   */\n      dup4\n        /* \"#utility.yul\":2916:2930   */\n      add\n        /* \"#utility.yul\":2912:2940   */\n      and\n        /* \"#utility.yul\":2902:2940   */\n      swap1\n      pop\n        /* \"#utility.yul\":2844:2946   */\n      swap2\n      swap1\n      pop\n      jump\t// out\n        /* \"#utility.yul\":2952:3329   */\n    tag_36:\n        /* \"#utility.yul\":3040:3043   */\n      0x00\n        /* \"#utility.yul\":3068:3107   */\n      tag_91\n        /* \"#utility.yul\":3101:3106   */\n      dup3\n        /* \"#utility.yul\":3068:3107   */\n      tag_32\n      jump\t// in\n    tag_91:\n        /* \"#utility.yul\":3123:3194   */\n      tag_92\n        /* \"#utility.yul\":3187:3193   */\n      dup2\n        /* \"#utility.yul\":3182:3185   */\n      dup6\n        /* \"#utility.yul\":3123:3194   */\n      tag_33\n      jump\t// in\n    tag_92:\n        /* \"#utility.yul\":3116:3194   */\n      swap4\n      pop\n        /* \"#utility.yul\":3203:3268   */\n      tag_93\n        /* \"#utility.yul\":3261:3267   */\n      dup2\n        /* \"#utility.yul\":3256:3259   */\n      dup6\n        /* \"#utility.yul\":3249:3253   */\n      0x20\n        /* \"#utility.yul\":3242:3247   */\n      dup7\n        /* \"#utility.yul\":3238:3254   */\n      add\n        /* \"#utility.yul\":3203:3268   */\n      tag_34\n      jump\t// in\n    tag_93:\n        /* \"#utility.yul\":3293:3322   */\n      tag_94\n        /* \"#utility.yul\":3315:3321   */\n      dup2\n        /* \"#utility.yul\":3293:3322   */\n      tag_35\n      jump\t// in\n    tag_94:\n        /* \"#utility.yul\":3288:3291   */\n      dup5\n        /* \"#utility.yul\":3284:3323   */\n      add\n        /* \"#utility.yul\":3277:3323   */\n      swap2\n      pop\n        /* \"#utility.yul\":3044:3329   */\n      pop\n        /* \"#utility.yul\":2952:3329   */\n      swap3\n      swap2\n      pop\n      pop\n      jump\t// out\n        /* \"#utility.yul\":3335:3453   */\n    tag_37:\n        /* \"#utility.yul\":3422:3446   */\n      tag_96\n        /* \"#utility.yul\":3440:3445   */\n      dup2\n        /* \"#utility.yul\":3422:3446   */\n      tag_29\n      jump\t// in\n    tag_96:\n        /* \"#utility.yul\":3417:3420   */\n      dup3\n        /* \"#utility.yul\":3410:3447   */\n      mstore\n        /* \"#utility.yul\":3335:3453   */\n      pop\n      pop\n      jump\t// out\n        /* \"#utility.yul\":3459:3882   */\n    tag_12:\n        /* \"#utility.yul\":3600:3604   */\n      0x00\n        /* \"#utility.yul\":3638:3640   */\n      0x40\n        /* \"#utility.yul\":3627:3636   */\n      dup3\n        /* \"#utility.yul\":3623:3641   */\n      add\n        /* \"#utility.yul\":3615:3641   */\n      swap1\n      pop\n        /* \"#utility.yul\":3687:3696   */\n      dup2\n        /* \"#utility.yul\":3681:3685   */\n      dup2\n        /* \"#utility.yul\":3677:3697   */\n      sub\n        /* \"#utility.yul\":3673:3674   */\n      0x00\n        /* \"#utility.yul\":3662:3671   */\n      dup4\n        /* \"#utility.yul\":3658:3675   */\n      add\n        /* \"#utility.yul\":3651:3698   */\n      mstore\n        /* \"#utility.yul\":3715:3793   */\n      tag_98\n        /* \"#utility.yul\":3788:3792   */\n      dup2\n        /* \"#utility.yul\":3779:3785   */\n      dup6\n        /* \"#utility.yul\":3715:3793   */\n      tag_36\n      jump\t// in\n    tag_98:\n        /* \"#utility.yul\":3707:3793   */\n      swap1\n      pop\n        /* \"#utility.yul\":3803:3875   */\n      tag_99\n        /* \"#utility.yul\":3871:3873   */\n      0x20\n        /* \"#utility.yul\":3860:3869   */\n      dup4\n        /* \"#utility.yul\":3856:3874   */\n      add\n        /* \"#utility.yul\":3847:3853   */\n      dup5\n        /* \"#utility.yul\":3803:3875   */\n      tag_37\n      jump\t// in\n    tag_99:\n        /* \"#utility.yul\":3459:3882   */\n      swap4\n      swap3\n      pop\n      pop\n      pop\n      jump\t// out\n        /* \"#utility.yul\":3888:3985   */\n    tag_38:\n        /* \"#utility.yul\":3947:3953   */\n      0x00\n        /* \"#utility.yul\":3975:3978   */\n      dup3\n        /* \"#utility.yul\":3965:3978   */\n      swap1\n      pop\n        /* \"#utility.yul\":3888:3985   */\n      swap3\n      swap2\n      pop\n      pop\n      jump\t// out\n        /* \"#utility.yul\":3991:4171   */\n    tag_39:\n        /* \"#utility.yul\":4039:4116   */\n      0x4e487b7100000000000000000000000000000000000000000000000000000000\n        /* \"#utility.yul\":4036:4037   */\n      0x00\n        /* \"#utility.yul\":4029:4117   */\n      mstore\n        /* \"#utility.yul\":4136:4140   */\n      0x41\n        /* \"#utility.yul\":4133:4134   */\n      0x04\n        /* \"#utility.yul\":4126:4141   */\n      mstore\n        /* \"#utility.yul\":4160:4164   */\n      0x24\n        /* \"#utility.yul\":4157:4158   */\n      0x00\n        /* \"#utility.yul\":4150:4165   */\n      revert\n        /* \"#utility.yul\":4177:4357   */\n    tag_40:\n        /* \"#utility.yul\":4225:4302   */\n      0x4e487b7100000000000000000000000000000000000000000000000000000000\n        /* \"#utility.yul\":4222:4223   */\n      0x00\n        /* \"#utility.yul\":4215:4303   */\n      mstore\n        /* \"#utility.yul\":4322:4326   */\n      0x22\n        /* \"#utility.yul\":4319:4320   */\n      0x04\n        /* \"#utility.yul\":4312:4327   */\n      mstore\n        /* \"#utility.yul\":4346:4350   */\n      0x24\n        /* \"#utility.yul\":4343:4344   */\n      0x00\n        /* \"#utility.yul\":4336:4351   */\n      revert\n        /* \"#utility.yul\":4363:4683   */\n    tag_17:\n        /* \"#utility.yul\":4407:4413   */\n      0x00\n        /* \"#utility.yul\":4444:4445   */\n      0x02\n        /* \"#utility.yul\":4438:4442   */\n      dup3\n        /* \"#utility.yul\":4434:4446   */\n      div\n        /* \"#utility.yul\":4424:4446   */\n      swap1\n      pop\n        /* \"#utility.yul\":4491:4492   */\n      0x01\n        /* \"#utility.yul\":4485:4489   */\n      dup3\n        /* \"#utility.yul\":4481:4493   */\n      and\n        /* \"#utility.yul\":4512:4530   */\n      dup1\n        /* \"#utility.yul\":4502:4583   */\n      tag_104\n      jumpi\n        /* \"#utility.yul\":4568:4572   */\n      0x7f\n        /* \"#utility.yul\":4560:4566   */\n      dup3\n        /* \"#utility.yul\":4556:4573   */\n      and\n        /* \"#utility.yul\":4546:4573   */\n      swap2\n      pop\n        /* \"#utility.yul\":4502:4583   */\n    tag_104:\n        /* \"#utility.yul\":4630:4632   */\n      0x20\n        /* \"#utility.yul\":4622:4628   */\n      dup3\n        /* \"#utility.yul\":4619:4633   */\n      lt\n        /* \"#utility.yul\":4599:4617   */\n      dup2\n        /* \"#utility.yul\":4596:4634   */\n      sub\n        /* \"#utility.yul\":4593:4677   */\n      tag_105\n      jumpi\n        /* \"#utility.yul\":4649:4667   */\n      tag_106\n      tag_40\n      jump\t// in\n    tag_106:\n        /* \"#utility.yul\":4593:4677   */\n    tag_105:\n        /* \"#utility.yul\":4414:4683   */\n      pop\n        /* \"#utility.yul\":4363:4683   */\n      swap2\n      swap1\n      pop\n      jump\t// out\n        /* \"#utility.yul\":4689:4830   */\n    tag_41:\n        /* \"#utility.yul\":4738:4742   */\n      0x00\n        /* \"#utility.yul\":4761:4764   */\n      dup2\n        /* \"#utility.yul\":4753:4764   */\n      swap1\n      pop\n        /* \"#utility.yul\":4784:4787   */\n      dup2\n        /* \"#utility.yul\":4781:4782   */\n      0x00\n        /* \"#utility.yul\":4774:4788   */\n      mstore\n        /* \"#utility.yul\":4818:4822   */\n      0x20\n        /* \"#utility.yul\":4815:4816   */\n      0x00\n        /* \"#utility.yul\":4805:4823   */\n      keccak256\n        /* \"#utility.yul\":4797:4823   */\n      swap1\n      pop\n        /* \"#utility.yul\":4689:4830   */\n      swap2\n      swap1\n      pop\n      jump\t// out\n        /* \"#utility.yul\":4836:4929   */\n    tag_42:\n        /* \"#utility.yul\":4873:4879   */\n      0x00\n        /* \"#utility.yul\":4920:4922   */\n      0x20\n        /* \"#utility.yul\":4915:4917   */\n      0x1f\n        /* \"#utility.yul\":4908:4913   */\n      dup4\n        /* \"#utility.yul\":4904:4918   */\n      add\n        /* \"#utility.yul\":4900:4923   */\n      div\n        /* \"#utility.yul\":4890:4923   */\n      swap1\n      pop\n        /* \"#utility.yul\":4836:4929   */\n      swap2\n      swap1\n      pop\n      jump\t// out\n        /* \"#utility.yul\":4935:5042   */\n    tag_43:\n        /* \"#utility.yul\":4979:4987   */\n      0x00\n        /* \"#utility.yul\":5029:5034   */\n      dup3\n        /* \"#utility.yul\":5023:5027   */\n      dup3\n        /* \"#utility.yul\":5019:5035   */\n      shl\n        /* \"#utility.yul\":4998:5035   */\n      swap1\n      pop\n        /* \"#utility.yul\":4935:5042   */\n      swap3\n      swap2\n      pop\n      pop\n      jump\t// out\n        /* \"#utility.yul\":5048:5441   */\n    tag_44:\n        /* \"#utility.yul\":5117:5123   */\n      0x00\n        /* \"#utility.yul\":5167:5168   */\n      0x08\n        /* \"#utility.yul\":5155:5165   */\n      dup4\n        /* \"#utility.yul\":5151:5169   */\n      mul\n        /* \"#utility.yul\":5190:5287   */\n      tag_111\n        /* \"#utility.yul\":5220:5286   */\n      0xffffffffffffffffffffffffffffffffffffffffffffffffffffffffffffffff\n        /* \"#utility.yul\":5209:5218   */\n      dup3\n        /* \"#utility.yul\":5190:5287   */\n      tag_43\n      jump\t// in\n    tag_111:\n        /* \"#utility.yul\":5308:5347   */\n      tag_112\n        /* \"#utility.yul\":5338:5346   */\n      dup7\n        /* \"#utility.yul\":5327:5336   */\n      dup4\n        /* \"#utility.yul\":5308:5347   */\n      tag_43\n      jump\t// in\n    tag_112:\n        /* \"#utility.yul\":5296:5347   */\n      swap6\n      pop\n        /* \"#utility.yul\":5380:5384   */\n      dup1\n        /* \"#utility.yul\":5376:5385   */\n      not\n        /* \"#utility.yul\":5369:5374   */\n      dup5\n        /* \"#utility.yul\":5365:5386   */\n      and\n        /* \"#utility.yul\":5356:5386   */\n      swap4\n      pop\n        /* \"#utility.yul\":5429:5433   */\n      dup1\n        /* \"#utility.yul\":5419:5427   */\n      dup7\n        /* \"#utility.yul\":5415:5434   */\n      and\n        /* \"#utility.yul\":5408:5413   */\n      dup5\n        /* \"#utility.yul\":5405:5435   */\n      or\n        /* \"#utility.yul\":5395:5435   */\n      swap3\n      pop\n        /* \"#utility.yul\":5124:5441   */\n      pop\n      pop\n        /* \"#utility.yul\":5048:5441   */\n      swap4\n      swap3\n      pop\n      pop\n      pop\n      jump\t// out\n        /* \"#utility.yul\":5447:5507   */\n    tag_45:\n        /* \"#utility.yul\":5475:5478   */\n      0x00\n        /* \"#utility.yul\":5496:5501   */\n      dup2\n        /* \"#utility.yul\":5489:5501   */\n      swap1\n      pop\n        /* \"#utility.yul\":5447:5507   */\n      swap2\n      swap1\n      pop\n      jump\t// out\n        /* \"#utility.yul\":5513:5655   */\n    tag_46:\n        /* \"#utility.yul\":5563:5572   */\n      0x00\n        /* \"#utility.yul\":5596:5649   */\n      tag_115\n        /* \"#utility.yul\":5614:5648   */\n      tag_116\n        /* \"#utility.yul\":5623:5647   */\n      tag_117\n        /* \"#utility.yul\":5641:5646   */\n      dup5\n        /* \"#utility.yul\":5623:5647   */\n      tag_29\n      jump\t// in\n    tag_117:\n        /* \"#utility.yul\":5614:5648   */\n      tag_45\n      jump\t// in\n    tag_116:\n        /* \"#utility.yul\":5596:5649   */\n      tag_29\n      jump\t// in\n    tag_115:\n        /* \"#utility.yul\":5583:5649   */\n      swap1\n      pop\n        /* \"#utility.yul\":5513:5655   */\n      swap2\n      swap1\n      pop\n      jump\t// out\n        /* \"#utility.yul\":5661:5736   */\n    tag_47:\n        /* \"#utility.yul\":5704:5707   */\n      0x00\n        /* \"#utility.yul\":5725:5730   */\n      dup2\n        /* \"#utility.yul\":5718:5730   */\n      swap1\n      pop\n        /* \"#utility.yul\":5661:5736   */\n      swap2\n      swap1\n      pop\n      jump\t// out\n        /* \"#utility.yul\":5742:6011   */\n    tag_48:\n        /* \"#utility.yul\":5852:5891   */\n      tag_120\n        /* \"#utility.yul\":5883:5890   */\n      dup4\n        /* \"#utility.yul\":5852:5891   */\n      tag_46\n      jump\t// in\n    tag_120:\n        /* \"#utility.yul\":5913:6004   */\n      tag_121\n        /* \"#utility.yul\":5962:6003   */\n      tag_122\n        /* \"#utility.yul\":5986:6002   */\n      dup3\n        /* \"#utility.yul\":5962:6003   */\n      tag_47\n      jump\t// in\n    tag_122:\n        /* \"#utility.yul\":5954:5960   */\n      dup5\n        /* \"#utility.yul\":5947:5951   */\n      dup5\n        /* \"#utility.yul\":5941:5952   */\n      sload\n        /* \"#utility.yul\":5913:6004   */\n      tag_44\n      jump\t// in\n    tag_121:\n        /* \"#utility.yul\":5907:5911   */\n      dup3\n        /* \"#utility.yul\":5900:6005   */\n      sstore\n        /* \"#utility.yul\":5818:6011   */\n      pop\n        /* \"#utility.yul\":5742:6011   */\n      pop\n      pop\n      pop\n      jump\t// out\n        /* \"#utility.yul\":6017:6090   */\n    tag_49:\n        /* \"#utility.yul\":6062:6065   */\n      0x00\n        /* \"#utility.yul\":6017:6090   */\n      swap1\n      jump\t// out\n        /* \"#utility.yul\":6096:6285   */\n    tag_50:\n        /* \"#utility.yul\":6173:6205   */\n      tag_125\n      tag_49\n      jump\t// in\n    tag_125:\n        /* \"#utility.yul\":6214:6279   */\n      tag_126\n        /* \"#utility.yul\":6272:6278   */\n      dup2\n        /* \"#utility.yul\":6264:6270   */\n      dup5\n        /* \"#utility.yul\":6258:6262   */\n      dup5\n        /* \"#utility.yul\":6214:6279   */\n      tag_48\n      jump\t// in\n    tag_126:\n        /* \"#utility.yul\":6149:6285   */\n      pop\n        /* \"#utility.yul\":6096:6285   */\n      pop\n      pop\n      jump\t// out\n        /* \"#utility.yul\":6291:6477   */\n    tag_51:\n        /* \"#utility.yul\":6351:6471   */\n    tag_128:\n        /* \"#utility.yul\":6368:6371   */\n      dup2\n        /* \"#utility.yul\":6361:6366   */\n      dup2\n        /* \"#utility.yul\":6358:6372   */\n      lt\n        /* \"#utility.yul\":6351:6471   */\n      iszero\n      tag_130\n      jumpi\n        /* \"#utility.yul\":6422:6461   */\n      tag_131\n        /* \"#utility.yul\":6459:6460   */\n      0x00\n        /* \"#utility.yul\":6452:6457   */\n      dup3\n        /* \"#utility.yul\":6422:6461   */\n      tag_50\n      jump\t// in\n    tag_131:\n        /* \"#utility.yul\":6395:6396   */\n      0x01\n        /* \"#utility.yul\":6388:6393   */\n      dup2\n        /* \"#utility.yul\":6384:6397   */\n      add\n        /* \"#utility.yul\":6375:6397   */\n      swap1\n      pop\n        /* \"#utility.yul\":6351:6471   */\n      jump(tag_128)\n    tag_130:\n        /* \"#utility.yul\":6291:6477   */\n      pop\n      pop\n      jump\t// out\n        /* \"#utility.yul\":6483:7026   */\n    tag_52:\n        /* \"#utility.yul\":6584:6586   */\n      0x1f\n        /* \"#utility.yul\":6579:6582   */\n      dup3\n        /* \"#utility.yul\":6576:6587   */\n      gt\n        /* \"#utility.yul\":6573:7019   */\n      iszero\n      tag_133\n      jumpi\n        /* \"#utility.yul\":6618:6656   */\n      tag_134\n        /* \"#utility.yul\":6650:6655   */\n      dup2\n        /* \"#utility.yul\":6618:6656   */\n      tag_41\n      jump\t// in\n    tag_134:\n        /* \"#utility.yul\":6702:6731   */\n      tag_135\n        /* \"#utility.yul\":6720:6730   */\n      dup5\n        /* \"#utility.yul\":6702:6731   */\n      tag_42\n      jump\t// in\n    tag_135:\n        /* \"#utility.yul\":6692:6700   */\n      dup2\n        /* \"#utility.yul\":6688:6732   */\n      add\n        /* \"#utility.yul\":6885:6887   */\n      0x20\n        /* \"#utility.yul\":6873:6883   */\n      dup6\n        /* \"#utility.yul\":6870:6888   */\n      lt\n        /* \"#utility.yul\":6867:6916   */\n      iszero\n      tag_136\n      jumpi\n        /* \"#utility.yul\":6906:6914   */\n      dup2\n        /* \"#utility.yul\":6891:6914   */\n      swap1\n      pop\n        /* \"#utility.yul\":6867:6916   */\n    tag_136:\n        /* \"#utility.yul\":6929:7009   */\n      tag_137\n        /* \"#utility.yul\":6985:7007   */\n      tag_138\n        /* \"#utility.yul\":7003:7006   */\n      dup6\n        /* \"#utility.yul\":6985:7007   */\n      tag_42\n      jump\t// in\n    tag_138:\n        /* \"#utility.yul\":6975:6983   */\n      dup4\n        /* \"#utility.yul\":6971:7008   */\n      add\n        /* \"#utility.yul\":6958:6969   */\n      dup3\n        /* \"#utility.yul\":6929:7009   */\n      tag_51\n      jump\t// in\n    tag_137:\n        /* \"#utility.yul\":6588:7019   */\n      pop\n      pop\n        /* \"#utility.yul\":6573:7019   */\n    tag_133:\n        /* \"#utility.yul\":6483:7026   */\n      pop\n      pop\n      pop\n      jump\t// out\n        /* \"#utility.yul\":7032:7149   */\n    tag_53:\n        /* \"#utility.yul\":7086:7094   */\n      0x00\n        /* \"#utility.yul\":7136:7141   */\n      dup3\n        /* \"#utility.yul\":7130:7134   */\n      dup3\n        /* \"#utility.yul\":7126:7142   */\n      shr\n        /* \"#utility.yul\":7105:7142   */\n      swap1\n      pop\n        /* \"#utility.yul\":7032:7149   */\n      swap3\n      swap2\n      pop\n      pop\n      jump\t// out\n        /* \"#utility.yul\":7155:7324   */\n    tag_54:\n        /* \"#utility.yul\":7199:7205   */\n      0x00\n        /* \"#utility.yul\":7232:7283   */\n      tag_141\n        /* \"#utility.yul\":7280:7281   */\n      0x00\n        /* \"#utility.yul\":7276:7282   */\n      not\n        /* \"#utility.yul\":7268:7273   */\n      dup5\n        /* \"#utility.yul\":7265:7266   */\n      0x08\n        /* \"#utility.yul\":7261:7274   */\n      mul\n        /* \"#utility.yul\":7232:7283   */\n      tag_53\n      jump\t// in\n    tag_141:\n        /* \"#utility.yul\":7228:7284   */\n      not\n        /* \"#utility.yul\":7313:7317   */\n      dup1\n        /* \"#utility.yul\":7307:7311   */\n      dup4\n        /* \"#utility.yul\":7303:7318   */\n      and\n        /* \"#utility.yul\":7293:7318   */\n      swap2\n      pop\n        /* \"#utility.yul\":7206:7324   */\n      pop\n        /* \"#utility.yul\":7155:7324   */\n      swap3\n      swap2\n      pop\n      pop\n      jump\t// out\n        /* \"#utility.yul\":7329:7624   */\n    tag_55:\n        /* \"#utility.yul\":7405:7409   */\n      0x00\n        /* \"#utility.yul\":7551:7580   */\n      tag_143\n        /* \"#utility.yul\":7576:7579   */\n      dup4\n        /* \"#utility.yul\":7570:7574   */\n      dup4\n        /* \"#utility.yul\":7551:7580   */\n      tag_54\n      jump\t// in\n    tag_143:\n        /* \"#utility.yul\":7543:7580   */\n      swap2\n      pop\n        /* \"#utility.yul\":7613:7616   */\n      dup3\n        /* \"#utility.yul\":7610:7611   */\n      0x02\n        /* \"#utility.yul\":7606:7617   */\n      mul\n        /* \"#utility.yul\":7600:7604   */\n      dup3\n        /* \"#utility.yul\":7597:7618   */\n      or\n        /* \"#utility.yul\":7589:7618   */\n      swap1\n      pop\n        /* \"#utility.yul\":7329:7624   */\n      swap3\n      swap2\n      pop\n      pop\n      jump\t// out\n        /* \"#utility.yul\":7629:9032   */\n    tag_15:\n        /* \"#utility.yul\":7753:7797   */\n      tag_145\n        /* \"#utility.yul\":7793:7796   */\n      dup4\n        /* \"#utility.yul\":7788:7791   */\n      dup4\n        /* \"#utility.yul\":7753:7797   */\n      tag_38\n      jump\t// in\n    tag_145:\n        /* \"#utility.yul\":7862:7880   */\n      0xffffffffffffffff\n        /* \"#utility.yul\":7854:7860   */\n      dup2\n        /* \"#utility.yul\":7851:7881   */\n      gt\n        /* \"#utility.yul\":7848:7904   */\n      iszero\n      tag_146\n      jumpi\n        /* \"#utility.yul\":7884:7902   */\n      tag_147\n      tag_39\n      jump\t// in\n    tag_147:\n        /* \"#utility.yul\":7848:7904   */\n    tag_146:\n        /* \"#utility.yul\":7928:7966   */\n      tag_148\n        /* \"#utility.yul\":7960:7964   */\n      dup3\n        /* \"#utility.yul\":7954:7965   */\n      sload\n        /* \"#utility.yul\":7928:7966   */\n      tag_17\n      jump\t// in\n    tag_148:\n        /* \"#utility.yul\":8013:8080   */\n      tag_149\n        /* \"#utility.yul\":8073:8079   */\n      dup3\n        /* \"#utility.yul\":8065:8071   */\n      dup3\n        /* \"#utility.yul\":8059:8063   */\n      dup6\n        /* \"#utility.yul\":8013:8080   */\n      tag_52\n      jump\t// in\n    tag_149:\n        /* \"#utility.yul\":8107:8108   */\n      0x00\n        /* \"#utility.yul\":8136:8138   */\n      0x1f\n        /* \"#utility.yul\":8128:8134   */\n      dup4\n        /* \"#utility.yul\":8125:8139   */\n      gt\n        /* \"#utility.yul\":8153:8154   */\n      0x01\n        /* \"#utility.yul\":8148:8780   */\n      dup2\n      eq\n      tag_151\n      jumpi\n        /* \"#utility.yul\":8824:8825   */\n      0x00\n        /* \"#utility.yul\":8841:8847   */\n      dup5\n        /* \"#utility.yul\":8838:8922   */\n      iszero\n      tag_152\n      jumpi\n        /* \"#utility.yul\":8897:8906   */\n      dup3\n        /* \"#utility.yul\":8892:8895   */\n      dup8\n        /* \"#utility.yul\":8888:8907   */\n      add\n        /* \"#utility.yul\":8875:8908   */\n      calldataload\n        /* \"#utility.yul\":8866:8908   */\n      swap1\n      pop\n        /* \"#utility.yul\":8838:8922   */\n    tag_152:\n        /* \"#utility.yul\":8948:9015   */\n      tag_153\n        /* \"#utility.yul\":9008:9014   */\n      dup6\n        /* \"#utility.yul\":9001:9006   */\n      dup3\n        /* \"#utility.yul\":8948:9015   */\n      tag_55\n      jump\t// in\n    tag_153:\n        /* \"#utility.yul\":8942:8946   */\n      dup7\n        /* \"#utility.yul\":8935:9016   */\n      sstore\n        /* \"#utility.yul\":8797:9026   */\n      pop\n        /* \"#utility.yul\":8118:9026   */\n      jump(tag_150)\n        /* \"#utility.yul\":8148:8780   */\n    tag_151:\n        /* \"#utility.yul\":8200:8204   */\n      0x1f\n        /* \"#utility.yul\":8196:8205   */\n      not\n        /* \"#utility.yul\":8188:8194   */\n      dup5\n        /* \"#utility.yul\":8184:8206   */\n      and\n        /* \"#utility.yul\":8234:8271   */\n      tag_154\n        /* \"#utility.yul\":8266:8270   */\n      dup7\n        /* \"#utility.yul\":8234:8271   */\n      tag_41\n      jump\t// in\n    tag_154:\n        /* \"#utility.yul\":8293:8294   */\n      0x00\n        /* \"#utility.yul\":8307:8522   */\n    tag_155:\n        /* \"#utility.yul\":8321:8328   */\n      dup3\n        /* \"#utility.yul\":8318:8319   */\n      dup2\n        /* \"#utility.yul\":8315:8329   */\n      lt\n        /* \"#utility.yul\":8307:8522   */\n      iszero\n      tag_157\n      jumpi\n        /* \"#utility.yul\":8407:8416   */\n      dup5\n        /* \"#utility.yul\":8402:8405   */\n      dup10\n        /* \"#utility.yul\":8398:8417   */\n      add\n        /* \"#utility.yul\":8385:8418   */\n      calldataload\n        /* \"#utility.yul\":8377:8383   */\n      dup3\n        /* \"#utility.yul\":8370:8419   */\n      sstore\n        /* \"#utility.yul\":8458:8459   */\n      0x01\n        /* \"#utility.yul\":8450:8456   */\n      dup3\n        /* \"#utility.yul\":8446:8460   */\n      add\n        /* \"#utility.yul\":8436:8460   */\n      swap2\n      pop\n        /* \"#utility.yul\":8505:8507   */\n      0x20\n        /* \"#utility.yul\":8494:8503   */\n      dup6\n        /* \"#utility.yul\":8490:8508   */\n      add\n        /* \"#utility.yul\":8477:8508   */\n      swap5\n      pop\n        /* \"#utility.yul\":8344:8348   */\n      0x20\n        /* \"#utility.yul\":8341:8342   */\n      dup2\n        /* \"#utility.yul\":8337:8349   */\n      add\n        /* \"#utility.yul\":8332:8349   */\n      swap1\n      pop\n        /* \"#utility.yul\":8307:8522   */\n      jump(tag_155)\n    tag_157:\n        /* \"#utility.yul\":8550:8556   */\n      dup7\n        /* \"#utility.yul\":8541:8548   */\n      dup4\n        /* \"#utility.yul\":8538:8557   */\n      lt\n        /* \"#utility.yul\":8535:8721   */\n      iszero\n      tag_158\n      jumpi\n        /* \"#utility.yul\":8615:8624   */\n      dup5\n        /* \"#utility.yul\":8610:8613   */\n      dup10\n        /* \"#utility.yul\":8606:8625   */\n      add\n        /* \"#utility.yul\":8593:8626   */\n      calldataload\n        /* \"#utility.yul\":8658:8706   */\n      tag_159\n        /* \"#utility.yul\":8700:8704   */\n      0x1f\n        /* \"#utility.yul\":8692:8698   */\n      dup10\n        /* \"#utility.yul\":8688:8705   */\n      and\n        /* \"#utility.yul\":8677:8686   */\n      dup3\n        /* \"#utility.yul\":8658:8706   */\n      tag_54\n      jump\t// in\n    tag_159:\n        /* \"#utility.yul\":8650:8656   */\n      dup4\n        /* \"#utility.yul\":8643:8707   */\n      sstore\n        /* \"#utility.yul\":8558:8721   */\n      pop\n        /* \"#utility.yul\":8535:8721   */\n    tag_158:\n        /* \"#utility.yul\":8767:8768   */\n      0x01\n        /* \"#utility.yul\":8763:8764   */\n      0x02\n        /* \"#utility.yul\":8755:8761   */\n      dup9\n        /* \"#utility.yul\":8751:8765   */\n      mul\n        /* \"#utility.yul\":8747:8769   */\n      add\n        /* \"#utility.yul\":8741:8745   */\n      dup9\n        /* \"#utility.yul\":8734:8770   */\n      sstore\n        /* \"#utility.yul\":8155:8780   */\n      pop\n      pop\n      pop\n        /* \"#utility.yul\":8118:9026   */\n    tag_150:\n      pop\n        /* \"#utility.yul\":7728:9032   */\n      pop\n      pop\n      pop\n        /* \"#utility.yul\":7629:9032   */\n      pop\n      pop\n      pop\n      jump\t// out\n\n    auxdata: 0xa2646970667358221220874298fe5556acb42ef3e08ae93a8dbc5272ca93309550e8997cad67fe10ab2e64736f6c63430008120033\n}\n",
				"bytecode": {
					"linkReferences": {},
					"object": "60806040523480156200001157600080fd5b5060405162000c1c38038062000c1c83398181016040528101906200003791906200022b565b816000800190816200004a9190620004d2565b50806000600101819055505050620005b9565b6000604051905090565b600080fd5b600080fd5b600080fd5b600080fd5b6000601f19601f8301169050919050565b7f4e487b7100000000000000000000000000000000000000000000000000000000600052604160045260246000fd5b620000c6826200007b565b810181811067ffffffffffffffff82111715620000e857620000e76200008c565b5b80604052505050565b6000620000fd6200005d565b90506200010b8282620000bb565b919050565b600067ffffffffffffffff8211156200012e576200012d6200008c565b5b62000139826200007b565b9050602081019050919050565b60005b838110156200016657808201518184015260208101905062000149565b60008484015250505050565b600062000189620001838462000110565b620000f1565b905082815260208101848484011115620001a857620001a762000076565b5b620001b584828562000146565b509392505050565b600082601f830112620001d557620001d462000071565b5b8151620001e784826020860162000172565b91505092915050565b6000819050919050565b6200020581620001f0565b81146200021157600080fd5b50565b6000815190506200022581620001fa565b92915050565b6000806040838503121562000245576200024462000067565b5b600083015167ffffffffffffffff8111156200026657620002656200006c565b5b6200027485828601620001bd565b9250506020620002878582860162000214565b9150509250929050565b600081519050919050565b7f4e487b7100000000000000000000000000000000000000000000000000000000600052602260045260246000fd5b60006002820490506001821680620002e457607f821691505b602082108103620002fa57620002f96200029c565b5b50919050565b60008190508160005260206000209050919050565b60006020601f8301049050919050565b600082821b905092915050565b600060088302620003647fffffffffffffffffffffffffffffffffffffffffffffffffffffffffffffffff8262000325565b62000370868362000325565b95508019841693508086168417925050509392505050565b6000819050919050565b6000620003b3620003ad620003a784620001f0565b62000388565b620001f0565b9050919050565b6000819050919050565b620003cf8362000392565b620003e7620003de82620003ba565b84845462000332565b825550505050565b600090565b620003fe620003ef565b6200040b818484620003c4565b505050565b5b81811015620004335762000427600082620003f4565b60018101905062000411565b5050565b601f82111562000482576200044c8162000300565b620004578462000315565b8101602085101562000467578190505b6200047f620004768562000315565b83018262000410565b50505b505050565b600082821c905092915050565b6000620004a76000198460080262000487565b1980831691505092915050565b6000620004c2838362000494565b9150826002028217905092915050565b620004dd8262000291565b67ffffffffffffffff811115620004f957620004f86200008c565b5b620005058254620002cb565b6200051282828562000437565b600060209050601f8311600181146200054a576000841562000535578287015190505b620005418582620004b4565b865550620005b1565b601f1984166200055a8662000300565b60005b8281101562000584578489015182556001820191506020850194506020810190506200055d565b86831015620005a45784890151620005a0601f89168262000494565b8355505b6001600288020188555050505b505050505050565b61065380620005c96000396000f3fe608060405234801561001057600080fd5b50600436106100365760003560e01c80634ee5c2ee1461003b5780636cc014de14610057575b600080fd5b610055600480360381019061005091906101d8565b610076565b005b61005f610099565b60405161006d9291906102d7565b60405180910390f35b828260008001918261008992919061054d565b5080600060010181905550505050565b60008060000180546100aa90610370565b80601f01602080910402602001604051908101604052809291908181526020018280546100d690610370565b80156101235780601f106100f857610100808354040283529160200191610123565b820191906000526020600020905b81548152906001019060200180831161010657829003601f168201915b5050505050908060010154905082565b600080fd5b600080fd5b600080fd5b600080fd5b600080fd5b60008083601f8401126101625761016161013d565b5b8235905067ffffffffffffffff81111561017f5761017e610142565b5b60208301915083600182028301111561019b5761019a610147565b5b9250929050565b6000819050919050565b6101b5816101a2565b81146101c057600080fd5b50565b6000813590506101d2816101ac565b92915050565b6000806000604084860312156101f1576101f0610133565b5b600084013567ffffffffffffffff81111561020f5761020e610138565b5b61021b8682870161014c565b9350935050602061022e868287016101c3565b9150509250925092565b600081519050919050565b600082825260208201905092915050565b60005b83811015610272578082015181840152602081019050610257565b60008484015250505050565b6000601f19601f8301169050919050565b600061029a82610238565b6102a48185610243565b93506102b4818560208601610254565b6102bd8161027e565b840191505092915050565b6102d1816101a2565b82525050565b600060408201905081810360008301526102f1818561028f565b905061030060208301846102c8565b9392505050565b600082905092915050565b7f4e487b7100000000000000000000000000000000000000000000000000000000600052604160045260246000fd5b7f4e487b7100000000000000000000000000000000000000000000000000000000600052602260045260246000fd5b6000600282049050600182168061038857607f821691505b60208210810361039b5761039a610341565b5b50919050565b60008190508160005260206000209050919050565b60006020601f8301049050919050565b600082821b905092915050565b6000600883026104037fffffffffffffffffffffffffffffffffffffffffffffffffffffffffffffffff826103c6565b61040d86836103c6565b95508019841693508086168417925050509392505050565b6000819050919050565b600061044a610445610440846101a2565b610425565b6101a2565b9050919050565b6000819050919050565b6104648361042f565b61047861047082610451565b8484546103d3565b825550505050565b600090565b61048d610480565b61049881848461045b565b505050565b5b818110156104bc576104b1600082610485565b60018101905061049e565b5050565b601f821115610501576104d2816103a1565b6104db846103b6565b810160208510156104ea578190505b6104fe6104f6856103b6565b83018261049d565b50505b505050565b600082821c905092915050565b600061052460001984600802610506565b1980831691505092915050565b600061053d8383610513565b9150826002028217905092915050565b6105578383610307565b67ffffffffffffffff8111156105705761056f610312565b5b61057a8254610370565b6105858282856104c0565b6000601f8311600181146105b457600084156105a2578287013590505b6105ac8582610531565b865550610614565b601f1984166105c2866103a1565b60005b828110156105ea578489013582556001820191506020850194506020810190506105c5565b868310156106075784890135610603601f891682610513565b8355505b6001600288020188555050505b5050505050505056fea2646970667358221220874298fe5556acb42ef3e08ae93a8dbc5272ca93309550e8997cad67fe10ab2e64736f6c63430008120033",
					"opcodes": "PUSH1 0x80 PUSH1 0x40 MSTORE CALLVALUE DUP1 ISZERO PUSH3 0x11 JUMPI PUSH1 0x0 DUP1 REVERT JUMPDEST POP PUSH1 0x40 MLOAD PUSH3 0xC1C CODESIZE SUB DUP1 PUSH3 0xC1C DUP4 CODECOPY DUP2 DUP2 ADD PUSH1 0x40 MSTORE DUP2 ADD SWAP1 PUSH3 0x37 SWAP2 SWAP1 PUSH3 0x22B JUMP JUMPDEST DUP2 PUSH1 0x0 DUP1 ADD SWAP1 DUP2 PUSH3 0x4A SWAP2 SWAP1 PUSH3 0x4D2 JUMP JUMPDEST POP DUP1 PUSH1 0x0 PUSH1 0x1 ADD DUP2 SWAP1 SSTORE POP POP POP PUSH3 0x5B9 JUMP JUMPDEST PUSH1 0x0 PUSH1 0x40 MLOAD SWAP1 POP SWAP1 JUMP JUMPDEST PUSH1 0x0 DUP1 REVERT JUMPDEST PUSH1 0x0 DUP1 REVERT JUMPDEST PUSH1 0x0 DUP1 REVERT JUMPDEST PUSH1 0x0 DUP1 REVERT JUMPDEST PUSH1 0x0 PUSH1 0x1F NOT PUSH1 0x1F DUP4 ADD AND SWAP1 POP SWAP2 SWAP1 POP JUMP JUMPDEST PUSH32 0x4E487B7100000000000000000000000000000000000000000000000000000000 PUSH1 0x0 MSTORE PUSH1 0x41 PUSH1 0x4 MSTORE PUSH1 0x24 PUSH1 0x0 REVERT JUMPDEST PUSH3 0xC6 DUP3 PUSH3 0x7B JUMP JUMPDEST DUP2 ADD DUP2 DUP2 LT PUSH8 0xFFFFFFFFFFFFFFFF DUP3 GT OR ISZERO PUSH3 0xE8 JUMPI PUSH3 0xE7 PUSH3 0x8C JUMP JUMPDEST JUMPDEST DUP1 PUSH1 0x40 MSTORE POP POP POP JUMP JUMPDEST PUSH1 0x0 PUSH3 0xFD PUSH3 0x5D JUMP JUMPDEST SWAP1 POP PUSH3 0x10B DUP3 DUP3 PUSH3 0xBB JUMP JUMPDEST SWAP2 SWAP1 POP JUMP JUMPDEST PUSH1 0x0 PUSH8 0xFFFFFFFFFFFFFFFF DUP3 GT ISZERO PUSH3 0x12E JUMPI PUSH3 0x12D PUSH3 0x8C JUMP JUMPDEST JUMPDEST PUSH3 0x139 DUP3 PUSH3 0x7B JUMP JUMPDEST SWAP1 POP PUSH1 0x20 DUP2 ADD SWAP1 POP SWAP2 SWAP1 POP JUMP JUMPDEST PUSH1 0x0 JUMPDEST DUP4 DUP2 LT ISZERO PUSH3 0x166 JUMPI DUP1 DUP3 ADD MLOAD DUP2 DUP5 ADD MSTORE PUSH1 0x20 DUP2 ADD SWAP1 POP PUSH3 0x149 JUMP JUMPDEST PUSH1 0x0 DUP5 DUP5 ADD MSTORE POP POP POP POP JUMP JUMPDEST PUSH1 0x0 PUSH3 0x189 PUSH3 0x183 DUP5 PUSH3 0x110 JUMP JUMPDEST PUSH3 0xF1 JUMP JUMPDEST SWAP1 POP DUP3 DUP2 MSTORE PUSH1 0x20 DUP2 ADD DUP5 DUP5 DUP5 ADD GT ISZERO PUSH3 0x1A8 JUMPI PUSH3 0x1A7 PUSH3 0x76 JUMP JUMPDEST JUMPDEST PUSH3 0x1B5 DUP5 DUP3 DUP6 PUSH3 0x146 JUMP JUMPDEST POP SWAP4 SWAP3 POP POP POP JUMP JUMPDEST PUSH1 0x0 DUP3 PUSH1 0x1F DUP4 ADD SLT PUSH3 0x1D5 JUMPI PUSH3 0x1D4 PUSH3 0x71 JUMP JUMPDEST JUMPDEST DUP2 MLOAD PUSH3 0x1E7 DUP5 DUP3 PUSH1 0x20 DUP7 ADD PUSH3 0x172 JUMP JUMPDEST SWAP2 POP POP SWAP3 SWAP2 POP POP JUMP JUMPDEST PUSH1 0x0 DUP2 SWAP1 POP SWAP2 SWAP1 POP JUMP JUMPDEST PUSH3 0x205 DUP2 PUSH3 0x1F0 JUMP JUMPDEST DUP2 EQ PUSH3 0x211 JUMPI PUSH1 0x0 DUP1 REVERT JUMPDEST POP JUMP JUMPDEST PUSH1 0x0 DUP2 MLOAD SWAP1 POP PUSH3 0x225 DUP2 PUSH3 0x1FA JUMP JUMPDEST SWAP3 SWAP2 POP POP JUMP JUMPDEST PUSH1 0x0 DUP1 PUSH1 0x40 DUP4 DUP6 SUB SLT ISZERO PUSH3 0x245 JUMPI PUSH3 0x244 PUSH3 0x67 JUMP JUMPDEST JUMPDEST PUSH1 0x0 DUP4 ADD MLOAD PUSH8 0xFFFFFFFFFFFFFFFF DUP2 GT ISZERO PUSH3 0x266 JUMPI PUSH3 0x265 PUSH3 0x6C JUMP JUMPDEST JUMPDEST PUSH3 0x274 DUP6 DUP3 DUP7 ADD PUSH3 0x1BD JUMP JUMPDEST SWAP3 POP POP PUSH1 0x20 PUSH3 0x287 DUP6 DUP3 DUP7 ADD PUSH3 0x214 JUMP JUMPDEST SWAP2 POP POP SWAP3 POP SWAP3 SWAP1 POP JUMP JUMPDEST PUSH1 0x0 DUP2 MLOAD SWAP1 POP SWAP2 SWAP1 POP JUMP JUMPDEST PUSH32 0x4E487B7100000000000000000000000000000000000000000000000000000000 PUSH1 0x0 MSTORE PUSH1 0x22 PUSH1 0x4 MSTORE PUSH1 0x24 PUSH1 0x0 REVERT JUMPDEST PUSH1 0x0 PUSH1 0x2 DUP3 DIV SWAP1 POP PUSH1 0x1 DUP3 AND DUP1 PUSH3 0x2E4 JUMPI PUSH1 0x7F DUP3 AND SWAP2 POP JUMPDEST PUSH1 0x20 DUP3 LT DUP2 SUB PUSH3 0x2FA JUMPI PUSH3 0x2F9 PUSH3 0x29C JUMP JUMPDEST JUMPDEST POP SWAP2 SWAP1 POP JUMP JUMPDEST PUSH1 0x0 DUP2 SWAP1 POP DUP2 PUSH1 0x0 MSTORE PUSH1 0x20 PUSH1 0x0 KECCAK256 SWAP1 POP SWAP2 SWAP1 POP JUMP JUMPDEST PUSH1 0x0 PUSH1 0x20 PUSH1 0x1F DUP4 ADD DIV SWAP1 POP SWAP2 SWAP1 POP JUMP JUMPDEST PUSH1 0x0 DUP3 DUP3 SHL SWAP1 POP SWAP3 SWAP2 POP POP JUMP JUMPDEST PUSH1 0x0 PUSH1 0x8 DUP4 MUL PUSH3 0x364 PUSH32 0xFFFFFFFFFFFFFFFFFFFFFFFFFFFFFFFFFFFFFFFFFFFFFFFFFFFFFFFFFFFFFFFF DUP3 PUSH3 0x325 JUMP JUMPDEST PUSH3 0x370 DUP7 DUP4 PUSH3 0x325 JUMP JUMPDEST SWAP6 POP DUP1 NOT DUP5 AND SWAP4 POP DUP1 DUP7 AND DUP5 OR SWAP3 POP POP POP SWAP4 SWAP3 POP POP POP JUMP JUMPDEST PUSH1 0x0 DUP2 SWAP1 POP SWAP2 SWAP1 POP JUMP JUMPDEST PUSH1 0x0 PUSH3 0x3B3 PUSH3 0x3AD PUSH3 0x3A7 DUP5 PUSH3 0x1F0 JUMP JUMPDEST PUSH3 0x388 JUMP JUMPDEST PUSH3 0x1F0 JUMP JUMPDEST SWAP1 POP SWAP2 SWAP1 POP JUMP JUMPDEST PUSH1 0x0 DUP2 SWAP1 POP SWAP2 SWAP1 POP JUMP JUMPDEST PUSH3 0x3CF DUP4 PUSH3 0x392 JUMP JUMPDEST PUSH3 0x3E7 PUSH3 0x3DE DUP3 PUSH3 0x3BA JUMP JUMPDEST DUP5 DUP5 SLOAD PUSH3 0x332 JUMP JUMPDEST DUP3 SSTORE POP POP POP POP JUMP JUMPDEST PUSH1 0x0 SWAP1 JUMP JUMPDEST PUSH3 0x3FE PUSH3 0x3EF JUMP JUMPDEST PUSH3 0x40B DUP2 DUP5 DUP5 PUSH3 0x3C4 JUMP JUMPDEST POP POP POP JUMP JUMPDEST JUMPDEST DUP2 DUP2 LT ISZERO PUSH3 0x433 JUMPI PUSH3 0x427 PUSH1 0x0 DUP3 PUSH3 0x3F4 JUMP JUMPDEST PUSH1 0x1 DUP2 ADD SWAP1 POP PUSH3 0x411 JUMP JUMPDEST POP POP JUMP JUMPDEST PUSH1 0x1F DUP3 GT ISZERO PUSH3 0x482 JUMPI PUSH3 0x44C DUP2 PUSH3 0x300 JUMP JUMPDEST PUSH3 0x457 DUP5 PUSH3 0x315 JUMP JUMPDEST DUP2 ADD PUSH1 0x20 DUP6 LT ISZERO PUSH3 0x467 JUMPI DUP2 SWAP1 POP JUMPDEST PUSH3 0x47F PUSH3 0x476 DUP6 PUSH3 0x315 JUMP JUMPDEST DUP4 ADD DUP3 PUSH3 0x410 JUMP JUMPDEST POP POP JUMPDEST POP POP POP JUMP JUMPDEST PUSH1 0x0 DUP3 DUP3 SHR SWAP1 POP SWAP3 SWAP2 POP POP JUMP JUMPDEST PUSH1 0x0 PUSH3 0x4A7 PUSH1 0x0 NOT DUP5 PUSH1 0x8 MUL PUSH3 0x487 JUMP JUMPDEST NOT DUP1 DUP4 AND SWAP2 POP POP SWAP3 SWAP2 POP POP JUMP JUMPDEST PUSH1 0x0 PUSH3 0x4C2 DUP4 DUP4 PUSH3 0x494 JUMP JUMPDEST SWAP2 POP DUP3 PUSH1 0x2 MUL DUP3 OR SWAP1 POP SWAP3 SWAP2 POP POP JUMP JUMPDEST PUSH3 0x4DD DUP3 PUSH3 0x291 JUMP JUMPDEST PUSH8 0xFFFFFFFFFFFFFFFF DUP2 GT ISZERO PUSH3 0x4F9 JUMPI PUSH3 0x4F8 PUSH3 0x8C JUMP JUMPDEST JUMPDEST PUSH3 0x505 DUP3 SLOAD PUSH3 0x2CB JUMP JUMPDEST PUSH3 0x512 DUP3 DUP3 DUP6 PUSH3 0x437 JUMP JUMPDEST PUSH1 0x0 PUSH1 0x20 SWAP1 POP PUSH1 0x1F DUP4 GT PUSH1 0x1 DUP2 EQ PUSH3 0x54A JUMPI PUSH1 0x0 DUP5 ISZERO PUSH3 0x535 JUMPI DUP3 DUP8 ADD MLOAD SWAP1 POP JUMPDEST PUSH3 0x541 DUP6 DUP3 PUSH3 0x4B4 JUMP JUMPDEST DUP7 SSTORE POP PUSH3 0x5B1 JUMP JUMPDEST PUSH1 0x1F NOT DUP5 AND PUSH3 0x55A DUP7 PUSH3 0x300 JUMP JUMPDEST PUSH1 0x0 JUMPDEST DUP3 DUP2 LT ISZERO PUSH3 0x584 JUMPI DUP5 DUP10 ADD MLOAD DUP3 SSTORE PUSH1 0x1 DUP3 ADD SWAP2 POP PUSH1 0x20 DUP6 ADD SWAP5 POP PUSH1 0x20 DUP2 ADD SWAP1 POP PUSH3 0x55D JUMP JUMPDEST DUP7 DUP4 LT ISZERO PUSH3 0x5A4 JUMPI DUP5 DUP10 ADD MLOAD PUSH3 0x5A0 PUSH1 0x1F DUP10 AND DUP3 PUSH3 0x494 JUMP JUMPDEST DUP4 SSTORE POP JUMPDEST PUSH1 0x1 PUSH1 0x2 DUP9 MUL ADD DUP9 SSTORE POP POP POP JUMPDEST POP POP POP POP POP POP JUMP JUMPDEST PUSH2 0x653 DUP1 PUSH3 0x5C9 PUSH1 0x0 CODECOPY PUSH1 0x0 RETURN INVALID PUSH1 0x80 PUSH1 0x40 MSTORE CALLVALUE DUP1 ISZERO PUSH2 0x10 JUMPI PUSH1 0x0 DUP1 REVERT JUMPDEST POP PUSH1 0x4 CALLDATASIZE LT PUSH2 0x36 JUMPI PUSH1 0x0 CALLDATALOAD PUSH1 0xE0 SHR DUP1 PUSH4 0x4EE5C2EE EQ PUSH2 0x3B JUMPI DUP1 PUSH4 0x6CC014DE EQ PUSH2 0x57 JUMPI JUMPDEST PUSH1 0x0 DUP1 REVERT JUMPDEST PUSH2 0x55 PUSH1 0x4 DUP1 CALLDATASIZE SUB DUP2 ADD SWAP1 PUSH2 0x50 SWAP2 SWAP1 PUSH2 0x1D8 JUMP JUMPDEST PUSH2 0x76 JUMP JUMPDEST STOP JUMPDEST PUSH2 0x5F PUSH2 0x99 JUMP JUMPDEST PUSH1 0x40 MLOAD PUSH2 0x6D SWAP3 SWAP2 SWAP1 PUSH2 0x2D7 JUMP JUMPDEST PUSH1 0x40 MLOAD DUP1 SWAP2 SUB SWAP1 RETURN JUMPDEST DUP3 DUP3 PUSH1 0x0 DUP1 ADD SWAP2 DUP3 PUSH2 0x89 SWAP3 SWAP2 SWAP1 PUSH2 0x54D JUMP JUMPDEST POP DUP1 PUSH1 0x0 PUSH1 0x1 ADD DUP2 SWAP1 SSTORE POP POP POP POP JUMP JUMPDEST PUSH1 0x0 DUP1 PUSH1 0x0 ADD DUP1 SLOAD PUSH2 0xAA SWAP1 PUSH2 0x370 JUMP JUMPDEST DUP1 PUSH1 0x1F ADD PUSH1 0x20 DUP1 SWAP2 DIV MUL PUSH1 0x20 ADD PUSH1 0x40 MLOAD SWAP1 DUP2 ADD PUSH1 0x40 MSTORE DUP1 SWAP3 SWAP2 SWAP1 DUP2 DUP2 MSTORE PUSH1 0x20 ADD DUP3 DUP1 SLOAD PUSH2 0xD6 SWAP1 PUSH2 0x370 JUMP JUMPDEST DUP1 ISZERO PUSH2 0x123 JUMPI DUP1 PUSH1 0x1F LT PUSH2 0xF8 JUMPI PUSH2 0x100 DUP1 DUP4 SLOAD DIV MUL DUP4 MSTORE SWAP2 PUSH1 0x20 ADD SWAP2 PUSH2 0x123 JUMP JUMPDEST DUP3 ADD SWAP2 SWAP1 PUSH1 0x0 MSTORE PUSH1 0x20 PUSH1 0x0 KECCAK256 SWAP1 JUMPDEST DUP2 SLOAD DUP2 MSTORE SWAP1 PUSH1 0x1 ADD SWAP1 PUSH1 0x20 ADD DUP1 DUP4 GT PUSH2 0x106 JUMPI DUP3 SWAP1 SUB PUSH1 0x1F AND DUP3 ADD SWAP2 JUMPDEST POP POP POP POP POP SWAP1 DUP1 PUSH1 0x1 ADD SLOAD SWAP1 POP DUP3 JUMP JUMPDEST PUSH1 0x0 DUP1 REVERT JUMPDEST PUSH1 0x0 DUP1 REVERT JUMPDEST PUSH1 0x0 DUP1 REVERT JUMPDEST PUSH1 0x0 DUP1 REVERT JUMPDEST PUSH1 0x0 DUP1 REVERT JUMPDEST PUSH1 0x0 DUP1 DUP4 PUSH1 0x1F DUP5 ADD SLT PUSH2 0x162 JUMPI PUSH2 0x161 PUSH2 0x13D JUMP JUMPDEST JUMPDEST DUP3 CALLDATALOAD SWAP1 POP PUSH8 0xFFFFFFFFFFFFFFFF DUP2 GT ISZERO PUSH2 0x17F JUMPI PUSH2 0x17E PUSH2 0x142 JUMP JUMPDEST JUMPDEST PUSH1 0x20 DUP4 ADD SWAP2 POP DUP4 PUSH1 0x1 DUP3 MUL DUP4 ADD GT ISZERO PUSH2 0x19B JUMPI PUSH2 0x19A PUSH2 0x147 JUMP JUMPDEST JUMPDEST SWAP3 POP SWAP3 SWAP1 POP JUMP JUMPDEST PUSH1 0x0 DUP2 SWAP1 POP SWAP2 SWAP1 POP JUMP JUMPDEST PUSH2 0x1B5 DUP2 PUSH2 0x1A2 JUMP JUMPDEST DUP2 EQ PUSH2 0x1C0 JUMPI PUSH1 0x0 DUP1 REVERT JUMPDEST POP JUMP JUMPDEST PUSH1 0x0 DUP2 CALLDATALOAD SWAP1 POP PUSH2 0x1D2 DUP2 PUSH2 0x1AC JUMP JUMPDEST SWAP3 SWAP2 POP POP JUMP JUMPDEST PUSH1 0x0 DUP1 PUSH1 0x0 PUSH1 0x40 DUP5 DUP7 SUB SLT ISZERO PUSH2 0x1F1 JUMPI PUSH2 0x1F0 PUSH2 0x133 JUMP JUMPDEST JUMPDEST PUSH1 0x0 DUP5 ADD CALLDATALOAD PUSH8 0xFFFFFFFFFFFFFFFF DUP2 GT ISZERO PUSH2 0x20F JUMPI PUSH2 0x20E PUSH2 0x138 JUMP JUMPDEST JUMPDEST PUSH2 0x21B DUP7 DUP3 DUP8 ADD PUSH2 0x14C JUMP JUMPDEST SWAP4 POP SWAP4 POP POP PUSH1 0x20 PUSH2 0x22E DUP7 DUP3 DUP8 ADD PUSH2 0x1C3 JUMP JUMPDEST SWAP2 POP POP SWAP3 POP SWAP3 POP SWAP3 JUMP JUMPDEST PUSH1 0x0 DUP2 MLOAD SWAP1 POP SWAP2 SWAP1 POP JUMP JUMPDEST PUSH1 0x0 DUP3 DUP3 MSTORE PUSH1 0x20 DUP3 ADD SWAP1 POP SWAP3 SWAP2 POP POP JUMP JUMPDEST PUSH1 0x0 JUMPDEST DUP4 DUP2 LT ISZERO PUSH2 0x272 JUMPI DUP1 DUP3 ADD MLOAD DUP2 DUP5 ADD MSTORE PUSH1 0x20 DUP2 ADD SWAP1 POP PUSH2 0x257 JUMP JUMPDEST PUSH1 0x0 DUP5 DUP5 ADD MSTORE POP POP POP POP JUMP JUMPDEST PUSH1 0x0 PUSH1 0x1F NOT PUSH1 0x1F DUP4 ADD AND SWAP1 POP SWAP2 SWAP1 POP JUMP JUMPDEST PUSH1 0x0 PUSH2 0x29A DUP3 PUSH2 0x238 JUMP JUMPDEST PUSH2 0x2A4 DUP2 DUP6 PUSH2 0x243 JUMP JUMPDEST SWAP4 POP PUSH2 0x2B4 DUP2 DUP6 PUSH1 0x20 DUP7 ADD PUSH2 0x254 JUMP JUMPDEST PUSH2 0x2BD DUP2 PUSH2 0x27E JUMP JUMPDEST DUP5 ADD SWAP2 POP POP SWAP3 SWAP2 POP POP JUMP JUMPDEST PUSH2 0x2D1 DUP2 PUSH2 0x1A2 JUMP JUMPDEST DUP3 MSTORE POP POP JUMP JUMPDEST PUSH1 0x0 PUSH1 0x40 DUP3 ADD SWAP1 POP DUP2 DUP2 SUB PUSH1 0x0 DUP4 ADD MSTORE PUSH2 0x2F1 DUP2 DUP6 PUSH2 0x28F JUMP JUMPDEST SWAP1 POP PUSH2 0x300 PUSH1 0x20 DUP4 ADD DUP5 PUSH2 0x2C8 JUMP JUMPDEST SWAP4 SWAP3 POP POP POP JUMP JUMPDEST PUSH1 0x0 DUP3 SWAP1 POP SWAP3 SWAP2 POP POP JUMP JUMPDEST PUSH32 0x4E487B7100000000000000000000000000000000000000000000000000000000 PUSH1 0x0 MSTORE PUSH1 0x41 PUSH1 0x4 MSTORE PUSH1 0x24 PUSH1 0x0 REVERT JUMPDEST PUSH32 0x4E487B7100000000000000000000000000000000000000000000000000000000 PUSH1 0x0 MSTORE PUSH1 0x22 PUSH1 0x4 MSTORE PUSH1 0x24 PUSH1 0x0 REVERT JUMPDEST PUSH1 0x0 PUSH1 0x2 DUP3 DIV SWAP1 POP PUSH1 0x1 DUP3 AND DUP1 PUSH2 0x388 JUMPI PUSH1 0x7F DUP3 AND SWAP2 POP JUMPDEST PUSH1 0x20 DUP3 LT DUP2 SUB PUSH2 0x39B JUMPI PUSH2 0x39A PUSH2 0x341 JUMP JUMPDEST JUMPDEST POP SWAP2 SWAP1 POP JUMP JUMPDEST PUSH1 0x0 DUP2 SWAP1 POP DUP2 PUSH1 0x0 MSTORE PUSH1 0x20 PUSH1 0x0 KECCAK256 SWAP1 POP SWAP2 SWAP1 POP JUMP JUMPDEST PUSH1 0x0 PUSH1 0x20 PUSH1 0x1F DUP4 ADD DIV SWAP1 POP SWAP2 SWAP1 POP JUMP JUMPDEST PUSH1 0x0 DUP3 DUP3 SHL SWAP1 POP SWAP3 SWAP2 POP POP JUMP JUMPDEST PUSH1 0x0 PUSH1 0x8 DUP4 MUL PUSH2 0x403 PUSH32 0xFFFFFFFFFFFFFFFFFFFFFFFFFFFFFFFFFFFFFFFFFFFFFFFFFFFFFFFFFFFFFFFF DUP3 PUSH2 0x3C6 JUMP JUMPDEST PUSH2 0x40D DUP7 DUP4 PUSH2 0x3C6 JUMP JUMPDEST SWAP6 POP DUP1 NOT DUP5 AND SWAP4 POP DUP1 DUP7 AND DUP5 OR SWAP3 POP POP POP SWAP4 SWAP3 POP POP POP JUMP JUMPDEST PUSH1 0x0 DUP2 SWAP1 POP SWAP2 SWAP1 POP JUMP JUMPDEST PUSH1 0x0 PUSH2 0x44A PUSH2 0x445 PUSH2 0x440 DUP5 PUSH2 0x1A2 JUMP JUMPDEST PUSH2 0x425 JUMP JUMPDEST PUSH2 0x1A2 JUMP JUMPDEST SWAP1 POP SWAP2 SWAP1 POP JUMP JUMPDEST PUSH1 0x0 DUP2 SWAP1 POP SWAP2 SWAP1 POP JUMP JUMPDEST PUSH2 0x464 DUP4 PUSH2 0x42F JUMP JUMPDEST PUSH2 0x478 PUSH2 0x470 DUP3 PUSH2 0x451 JUMP JUMPDEST DUP5 DUP5 SLOAD PUSH2 0x3D3 JUMP JUMPDEST DUP3 SSTORE POP POP POP POP JUMP JUMPDEST PUSH1 0x0 SWAP1 JUMP JUMPDEST PUSH2 0x48D PUSH2 0x480 JUMP JUMPDEST PUSH2 0x498 DUP2 DUP5 DUP5 PUSH2 0x45B JUMP JUMPDEST POP POP POP JUMP JUMPDEST JUMPDEST DUP2 DUP2 LT ISZERO PUSH2 0x4BC JUMPI PUSH2 0x4B1 PUSH1 0x0 DUP3 PUSH2 0x485 JUMP JUMPDEST PUSH1 0x1 DUP2 ADD SWAP1 POP PUSH2 0x49E JUMP JUMPDEST POP POP JUMP JUMPDEST PUSH1 0x1F DUP3 GT ISZERO PUSH2 0x501 JUMPI PUSH2 0x4D2 DUP2 PUSH2 0x3A1 JUMP JUMPDEST PUSH2 0x4DB DUP5 PUSH2 0x3B6 JUMP JUMPDEST DUP2 ADD PUSH1 0x20 DUP6 LT ISZERO PUSH2 0x4EA JUMPI DUP2 SWAP1 POP JUMPDEST PUSH2 0x4FE PUSH2 0x4F6 DUP6 PUSH2 0x3B6 JUMP JUMPDEST DUP4 ADD DUP3 PUSH2 0x49D JUMP JUMPDEST POP POP JUMPDEST POP POP POP JUMP JUMPDEST PUSH1 0x0 DUP3 DUP3 SHR SWAP1 POP SWAP3 SWAP2 POP POP JUMP JUMPDEST PUSH1 0x0 PUSH2 0x524 PUSH1 0x0 NOT DUP5 PUSH1 0x8 MUL PUSH2 0x506 JUMP JUMPDEST NOT DUP1 DUP4 AND SWAP2 POP POP SWAP3 SWAP2 POP POP JUMP JUMPDEST PUSH1 0x0 PUSH2 0x53D DUP4 DUP4 PUSH2 0x513 JUMP JUMPDEST SWAP2 POP DUP3 PUSH1 0x2 MUL DUP3 OR SWAP1 POP SWAP3 SWAP2 POP POP JUMP JUMPDEST PUSH2 0x557 DUP4 DUP4 PUSH2 0x307 JUMP JUMPDEST PUSH8 0xFFFFFFFFFFFFFFFF DUP2 GT ISZERO PUSH2 0x570 JUMPI PUSH2 0x56F PUSH2 0x312 JUMP JUMPDEST JUMPDEST PUSH2 0x57A DUP3 SLOAD PUSH2 0x370 JUMP JUMPDEST PUSH2 0x585 DUP3 DUP3 DUP6 PUSH2 0x4C0 JUMP JUMPDEST PUSH1 0x0 PUSH1 0x1F DUP4 GT PUSH1 0x1 DUP2 EQ PUSH2 0x5B4 JUMPI PUSH1 0x0 DUP5 ISZERO PUSH2 0x5A2 JUMPI DUP3 DUP8 ADD CALLDATALOAD SWAP1 POP JUMPDEST PUSH2 0x5AC DUP6 DUP3 PUSH2 0x531 JUMP JUMPDEST DUP7 SSTORE POP PUSH2 0x614 JUMP JUMPDEST PUSH1 0x1F NOT DUP5 AND PUSH2 0x5C2 DUP7 PUSH2 0x3A1 JUMP JUMPDEST PUSH1 0x0 JUMPDEST DUP3 DUP2 LT ISZERO PUSH2 0x5EA JUMPI DUP5 DUP10 ADD CALLDATALOAD DUP3 SSTORE PUSH1 0x1 DUP3 ADD SWAP2 POP PUSH1 0x20 DUP6 ADD SWAP5 POP PUSH1 0x20 DUP2 ADD SWAP1 POP PUSH2 0x5C5 JUMP JUMPDEST DUP7 DUP4 LT ISZERO PUSH2 0x607 JUMPI DUP5 DUP10 ADD CALLDATALOAD PUSH2 0x603 PUSH1 0x1F DUP10 AND DUP3 PUSH2 0x513 JUMP JUMPDEST DUP4 SSTORE POP JUMPDEST PUSH1 0x1 PUSH1 0x2 DUP9 MUL ADD DUP9 SSTORE POP POP POP JUMPDEST POP POP POP POP POP POP POP JUMP INVALID LOG2 PUSH5 0x6970667358 0x22 SLT KECCAK256 DUP8 TIMESTAMP SWAP9 INVALID SSTORE JUMP 0xAC 0xB4 0x2E RETURN 0xE0 DUP11 0xE9 GASPRICE DUP14 0xBC MSTORE PUSH19 0xCA93309550E8997CAD67FE10AB2E64736F6C63 NUMBER STOP ADDMOD SLT STOP CALLER "
				},
				"gasEstimates": {
					"creation": {
						"codeDepositCost": "323800",
						"executionCost": "infinite",
						"totalCost": "infinite"
					},
					"external": {
						"s1()": "infinite",
						"update(string,uint256)": "infinite"
					}
				},
				"methodIdentifiers": {
					"s1()": "6cc014de",
					"update(string,uint256)": "4ee5c2ee"
				}
			},
			"storageLayout": {
				"storage": [
					{
						"astId": 9,
						"contract": "Struct.sol:Test5",
						"label": "s1",
						"offset": 0,
						"slot": "0",
						"type": "t_struct(Student)6_storage"
					}
				],
				"types": {
					"t_string_storage": {
						"encoding": "bytes",
						"label": "string",
						"numberOfBytes": "32"
					},
					"t_struct(Student)6_storage": {
						"encoding": "inplace",
						"label": "struct Student",
						"members": [
							{
								"astId": 3,
								"contract": "Struct.sol:Test5",
								"label": "Name",
								"offset": 0,
								"slot": "0",
								"type": "t_string_storage"
							},
							{
								"astId": 5,
								"contract": "Struct.sol:Test5",
								"label": "RollNo",
								"offset": 0,
								"slot": "1",
								"type": "t_uint256"
							}
						],
						"numberOfBytes": "64"
					},
					"t_uint256": {
						"encoding": "inplace",
						"label": "uint256",
						"numberOfBytes": "32"
					}
				}
			},
			"userdoc": {
				"kind": "user",
				"methods": {},
				"version": 1
			}
		}
	}
}