{
	"enum.sol": {
		"Test6": {
			"abi": [
				{
					"inputs": [],
					"name": "getChoice",
					"outputs": [
						{
							"internalType": "enum Test6.FreshJuiceSize",
							"name": "",
							"type": "uint8"
						}
					],
					"stateMutability": "view",
					"type": "function"
				},
				{
					"inputs": [],
					"name": "getDefaultChoice",
					"outputs": [
						{
							"internalType": "uint256",
							"name": "",
							"type": "uint256"
						}
					],
					"stateMutability": "pure",
					"type": "function"
				},
				{
					"inputs": [],
					"name": "setLarge",
					"outputs": [],
					"stateMutability": "nonpayable",
					"type": "function"
				},
				{
					"inputs": [],
					"name": "setMed",
					"outputs": [],
					"stateMutability": "nonpayable",
					"type": "function"
				},
				{
					"inputs": [],
					"name": "setSm",
					"outputs": [],
					"stateMutability": "nonpayable",
					"type": "function"
				}
			],
			"devdoc": {
				"kind": "dev",
				"methods": {},
				"version": 1
			},
			"evm": {
				"assembly": "    /* \"enum.sol\":63:647  contract Test6 {... */\n  mstore(0x40, 0x80)\n  callvalue\n  dup1\n  iszero\n  tag_1\n  jumpi\n  0x00\n  dup1\n  revert\ntag_1:\n  pop\n  dataSize(sub_0)\n  dup1\n  dataOffset(sub_0)\n  0x00\n  codecopy\n  0x00\n  return\nstop\n\nsub_0: assembly {\n        /* \"enum.sol\":63:647  contract Test6 {... */\n      mstore(0x40, 0x80)\n      callvalue\n      dup1\n      iszero\n      tag_1\n      jumpi\n      0x00\n      dup1\n      revert\n    tag_1:\n      pop\n      jumpi(tag_2, lt(calldatasize, 0x04))\n      shr(0xe0, calldataload(0x00))\n      dup1\n      0x54bb5425\n      eq\n      tag_3\n      jumpi\n      dup1\n      0x67cb61b6\n      eq\n      tag_4\n      jumpi\n      dup1\n      0x694ebe4f\n      eq\n      tag_5\n      jumpi\n      dup1\n      0x843f7258\n      eq\n      tag_6\n      jumpi\n      dup1\n      0xf9395150\n      eq\n      tag_7\n      jumpi\n    tag_2:\n      0x00\n      dup1\n      revert\n        /* \"enum.sol\":381:450  function setSm() public {... */\n    tag_3:\n      tag_8\n      tag_9\n      jump\t// in\n    tag_8:\n      stop\n        /* \"enum.sol\":455:542  function getChoice() public view returns (FreshJuiceSize) {... */\n    tag_4:\n      tag_10\n      tag_11\n      jump\t// in\n    tag_10:\n      mload(0x40)\n      tag_12\n      swap2\n      swap1\n      tag_13\n      jump\t// in\n    tag_12:\n      mload(0x40)\n      dup1\n      swap2\n      sub\n      swap1\n      return\n        /* \"enum.sol\":228:300  function setLarge() public {... */\n    tag_5:\n      tag_14\n      tag_15\n      jump\t// in\n    tag_14:\n      stop\n        /* \"enum.sol\":547:644  function getDefaultChoice() public pure returns (uint) {... */\n    tag_6:\n      tag_16\n      tag_17\n      jump\t// in\n    tag_16:\n      mload(0x40)\n      tag_18\n      swap2\n      swap1\n      tag_19\n      jump\t// in\n    tag_18:\n      mload(0x40)\n      dup1\n      swap2\n      sub\n      swap1\n      return\n        /* \"enum.sol\":305:376  function setMed() public {... */\n    tag_7:\n      tag_20\n      tag_21\n      jump\t// in\n    tag_20:\n      stop\n        /* \"enum.sol\":381:450  function setSm() public {... */\n    tag_9:\n        /* \"enum.sol\":423:443  FreshJuiceSize.SMALL */\n      0x00\n        /* \"enum.sol\":414:420  choice */\n      dup1\n      0x00\n        /* \"enum.sol\":414:443  choice = FreshJuiceSize.SMALL */\n      0x0100\n      exp\n      dup2\n      sload\n      dup2\n      0xff\n      mul\n      not\n      and\n      swap1\n      dup4\n      0x02\n      dup2\n      gt\n      iszero\n      tag_23\n      jumpi\n      tag_24\n      tag_25\n      jump\t// in\n    tag_24:\n    tag_23:\n      mul\n      or\n      swap1\n      sstore\n      pop\n        /* \"enum.sol\":381:450  function setSm() public {... */\n      jump\t// out\n        /* \"enum.sol\":455:542  function getChoice() public view returns (FreshJuiceSize) {... */\n    tag_11:\n        /* \"enum.sol\":497:511  FreshJuiceSize */\n      0x00\n        /* \"enum.sol\":529:535  choice */\n      dup1\n      0x00\n      swap1\n      sload\n      swap1\n      0x0100\n      exp\n      swap1\n      div\n      0xff\n      and\n        /* \"enum.sol\":522:535  return choice */\n      swap1\n      pop\n        /* \"enum.sol\":455:542  function getChoice() public view returns (FreshJuiceSize) {... */\n      swap1\n      jump\t// out\n        /* \"enum.sol\":228:300  function setLarge() public {... */\n    tag_15:\n        /* \"enum.sol\":273:293  FreshJuiceSize.LARGE */\n      0x02\n        /* \"enum.sol\":264:270  choice */\n      0x00\n      dup1\n        /* \"enum.sol\":264:293  choice = FreshJuiceSize.LARGE */\n      0x0100\n      exp\n      dup2\n      sload\n      dup2\n      0xff\n      mul\n      not\n      and\n      swap1\n      dup4\n      0x02\n      dup2\n      gt\n      iszero\n      tag_28\n      jumpi\n      tag_29\n      tag_25\n      jump\t// in\n    tag_29:\n    tag_28:\n      mul\n      or\n      swap1\n      sstore\n      pop\n        /* \"enum.sol\":228:300  function setLarge() public {... */\n      jump\t// out\n        /* \"enum.sol\":547:644  function getDefaultChoice() public pure returns (uint) {... */\n    tag_17:\n        /* \"enum.sol\":596:600  uint */\n      0x00\n        /* \"enum.sol\":199:220  FreshJuiceSize.MEDIUM */\n      0x01\n        /* \"enum.sol\":618:637  uint(defaultChoice) */\n      0x02\n      dup2\n      gt\n      iszero\n      tag_31\n      jumpi\n      tag_32\n      tag_25\n      jump\t// in\n    tag_32:\n    tag_31:\n        /* \"enum.sol\":611:637  return uint(defaultChoice) */\n      swap1\n      pop\n        /* \"enum.sol\":547:644  function getDefaultChoice() public pure returns (uint) {... */\n      swap1\n      jump\t// out\n        /* \"enum.sol\":305:376  function setMed() public {... */\n    tag_21:\n        /* \"enum.sol\":348:369  FreshJuiceSize.MEDIUM */\n      0x01\n        /* \"enum.sol\":339:345  choice */\n      0x00\n      dup1\n        /* \"enum.sol\":339:369  choice = FreshJuiceSize.MEDIUM */\n      0x0100\n      exp\n      dup2\n      sload\n      dup2\n      0xff\n      mul\n      not\n      and\n      swap1\n      dup4\n      0x02\n      dup2\n      gt\n      iszero\n      tag_34\n      jumpi\n      tag_35\n      tag_25\n      jump\t// in\n    tag_35:\n    tag_34:\n      mul\n      or\n      swap1\n      sstore\n      pop\n        /* \"enum.sol\":305:376  function setMed() public {... */\n      jump\t// out\n        /* \"#utility.yul\":7:187   */\n    tag_25:\n        /* \"#utility.yul\":55:132   */\n      0x4e487b7100000000000000000000000000000000000000000000000000000000\n        /* \"#utility.yul\":52:53   */\n      0x00\n        /* \"#utility.yul\":45:133   */\n      mstore\n        /* \"#utility.yul\":152:156   */\n      0x21\n        /* \"#utility.yul\":149:150   */\n      0x04\n        /* \"#utility.yul\":142:157   */\n      mstore\n        /* \"#utility.yul\":176:180   */\n      0x24\n        /* \"#utility.yul\":173:174   */\n      0x00\n        /* \"#utility.yul\":166:181   */\n      revert\n        /* \"#utility.yul\":193:314   */\n    tag_36:\n        /* \"#utility.yul\":282:283   */\n      0x03\n        /* \"#utility.yul\":275:280   */\n      dup2\n        /* \"#utility.yul\":272:284   */\n      lt\n        /* \"#utility.yul\":262:308   */\n      tag_45\n      jumpi\n        /* \"#utility.yul\":288:306   */\n      tag_46\n      tag_25\n      jump\t// in\n    tag_46:\n        /* \"#utility.yul\":262:308   */\n    tag_45:\n        /* \"#utility.yul\":193:314   */\n      pop\n      jump\t// out\n        /* \"#utility.yul\":320:463   */\n    tag_37:\n        /* \"#utility.yul\":373:380   */\n      0x00\n        /* \"#utility.yul\":402:407   */\n      dup2\n        /* \"#utility.yul\":391:407   */\n      swap1\n      pop\n        /* \"#utility.yul\":408:457   */\n      tag_48\n        /* \"#utility.yul\":451:456   */\n      dup3\n        /* \"#utility.yul\":408:457   */\n      tag_36\n      jump\t// in\n    tag_48:\n        /* \"#utility.yul\":320:463   */\n      swap2\n      swap1\n      pop\n      jump\t// out\n        /* \"#utility.yul\":469:612   */\n    tag_38:\n        /* \"#utility.yul\":533:542   */\n      0x00\n        /* \"#utility.yul\":566:606   */\n      tag_50\n        /* \"#utility.yul\":600:605   */\n      dup3\n        /* \"#utility.yul\":566:606   */\n      tag_37\n      jump\t// in\n    tag_50:\n        /* \"#utility.yul\":553:606   */\n      swap1\n      pop\n        /* \"#utility.yul\":469:612   */\n      swap2\n      swap1\n      pop\n      jump\t// out\n        /* \"#utility.yul\":618:777   */\n    tag_39:\n        /* \"#utility.yul\":719:770   */\n      tag_52\n        /* \"#utility.yul\":764:769   */\n      dup2\n        /* \"#utility.yul\":719:770   */\n      tag_38\n      jump\t// in\n    tag_52:\n        /* \"#utility.yul\":714:717   */\n      dup3\n        /* \"#utility.yul\":707:771   */\n      mstore\n        /* \"#utility.yul\":618:777   */\n      pop\n      pop\n      jump\t// out\n        /* \"#utility.yul\":783:1033   */\n    tag_13:\n        /* \"#utility.yul\":890:894   */\n      0x00\n        /* \"#utility.yul\":928:930   */\n      0x20\n        /* \"#utility.yul\":917:926   */\n      dup3\n        /* \"#utility.yul\":913:931   */\n      add\n        /* \"#utility.yul\":905:931   */\n      swap1\n      pop\n        /* \"#utility.yul\":941:1026   */\n      tag_54\n        /* \"#utility.yul\":1023:1024   */\n      0x00\n        /* \"#utility.yul\":1012:1021   */\n      dup4\n        /* \"#utility.yul\":1008:1025   */\n      add\n        /* \"#utility.yul\":999:1005   */\n      dup5\n        /* \"#utility.yul\":941:1026   */\n      tag_39\n      jump\t// in\n    tag_54:\n        /* \"#utility.yul\":783:1033   */\n      swap3\n      swap2\n      pop\n      pop\n      jump\t// out\n        /* \"#utility.yul\":1039:1116   */\n    tag_40:\n        /* \"#utility.yul\":1076:1083   */\n      0x00\n        /* \"#utility.yul\":1105:1110   */\n      dup2\n        /* \"#utility.yul\":1094:1110   */\n      swap1\n      pop\n        /* \"#utility.yul\":1039:1116   */\n      swap2\n      swap1\n      pop\n      jump\t// out\n        /* \"#utility.yul\":1122:1240   */\n    tag_41:\n        /* \"#utility.yul\":1209:1233   */\n      tag_57\n        /* \"#utility.yul\":1227:1232   */\n      dup2\n        /* \"#utility.yul\":1209:1233   */\n      tag_40\n      jump\t// in\n    tag_57:\n        /* \"#utility.yul\":1204:1207   */\n      dup3\n        /* \"#utility.yul\":1197:1234   */\n      mstore\n        /* \"#utility.yul\":1122:1240   */\n      pop\n      pop\n      jump\t// out\n        /* \"#utility.yul\":1246:1468   */\n    tag_19:\n        /* \"#utility.yul\":1339:1343   */\n      0x00\n        /* \"#utility.yul\":1377:1379   */\n      0x20\n        /* \"#utility.yul\":1366:1375   */\n      dup3\n        /* \"#utility.yul\":1362:1380   */\n      add\n        /* \"#utility.yul\":1354:1380   */\n      swap1\n      pop\n        /* \"#utility.yul\":1390:1461   */\n      tag_59\n        /* \"#utility.yul\":1458:1459   */\n      0x00\n        /* \"#utility.yul\":1447:1456   */\n      dup4\n        /* \"#utility.yul\":1443:1460   */\n      add\n        /* \"#utility.yul\":1434:1440   */\n      dup5\n        /* \"#utility.yul\":1390:1461   */\n      tag_41\n      jump\t// in\n    tag_59:\n        /* \"#utility.yul\":1246:1468   */\n      swap3\n      swap2\n      pop\n      pop\n      jump\t// out\n\n    auxdata: 0xa26469706673582212203da544f8f5f6d812bc18d60297d9f90aaf79b32449a7c041bcb314acebeb05e764736f6c63430008120033\n}\n",
				"bytecode": {
					"linkReferences": {},
					"object": "608060405234801561001057600080fd5b50610267806100206000396000f3fe608060405234801561001057600080fd5b50600436106100575760003560e01c806354bb54251461005c57806367cb61b614610066578063694ebe4f14610084578063843f72581461008e578063f9395150146100ac575b600080fd5b6100646100b6565b005b61006e6100e2565b60405161007b91906101e2565b60405180910390f35b61008c6100f8565b005b610096610124565b6040516100a39190610216565b60405180910390f35b6100b461013f565b005b60008060006101000a81548160ff021916908360028111156100db576100da61016b565b5b0217905550565b60008060009054906101000a900460ff16905090565b60026000806101000a81548160ff0219169083600281111561011d5761011c61016b565b5b0217905550565b60006001600281111561013a5761013961016b565b5b905090565b60016000806101000a81548160ff021916908360028111156101645761016361016b565b5b0217905550565b7f4e487b7100000000000000000000000000000000000000000000000000000000600052602160045260246000fd5b600381106101ab576101aa61016b565b5b50565b60008190506101bc8261019a565b919050565b60006101cc826101ae565b9050919050565b6101dc816101c1565b82525050565b60006020820190506101f760008301846101d3565b92915050565b6000819050919050565b610210816101fd565b82525050565b600060208201905061022b6000830184610207565b9291505056fea26469706673582212203da544f8f5f6d812bc18d60297d9f90aaf79b32449a7c041bcb314acebeb05e764736f6c63430008120033",
					"opcodes": "PUSH1 0x80 PUSH1 0x40 MSTORE CALLVALUE DUP1 ISZERO PUSH2 0x10 JUMPI PUSH1 0x0 DUP1 REVERT JUMPDEST POP PUSH2 0x267 DUP1 PUSH2 0x20 PUSH1 0x0 CODECOPY PUSH1 0x0 RETURN INVALID PUSH1 0x80 PUSH1 0x40 MSTORE CALLVALUE DUP1 ISZERO PUSH2 0x10 JUMPI PUSH1 0x0 DUP1 REVERT JUMPDEST POP PUSH1 0x4 CALLDATASIZE LT PUSH2 0x57 JUMPI PUSH1 0x0 CALLDATALOAD PUSH1 0xE0 SHR DUP1 PUSH4 0x54BB5425 EQ PUSH2 0x5C JUMPI DUP1 PUSH4 0x67CB61B6 EQ PUSH2 0x66 JUMPI DUP1 PUSH4 0x694EBE4F EQ PUSH2 0x84 JUMPI DUP1 PUSH4 0x843F7258 EQ PUSH2 0x8E JUMPI DUP1 PUSH4 0xF9395150 EQ PUSH2 0xAC JUMPI JUMPDEST PUSH1 0x0 DUP1 REVERT JUMPDEST PUSH2 0x64 PUSH2 0xB6 JUMP JUMPDEST STOP JUMPDEST PUSH2 0x6E PUSH2 0xE2 JUMP JUMPDEST PUSH1 0x40 MLOAD PUSH2 0x7B SWAP2 SWAP1 PUSH2 0x1E2 JUMP JUMPDEST PUSH1 0x40 MLOAD DUP1 SWAP2 SUB SWAP1 RETURN JUMPDEST PUSH2 0x8C PUSH2 0xF8 JUMP JUMPDEST STOP JUMPDEST PUSH2 0x96 PUSH2 0x124 JUMP JUMPDEST PUSH1 0x40 MLOAD PUSH2 0xA3 SWAP2 SWAP1 PUSH2 0x216 JUMP JUMPDEST PUSH1 0x40 MLOAD DUP1 SWAP2 SUB SWAP1 RETURN JUMPDEST PUSH2 0xB4 PUSH2 0x13F JUMP JUMPDEST STOP JUMPDEST PUSH1 0x0 DUP1 PUSH1 0x0 PUSH2 0x100 EXP DUP2 SLOAD DUP2 PUSH1 0xFF MUL NOT AND SWAP1 DUP4 PUSH1 0x2 DUP2 GT ISZERO PUSH2 0xDB JUMPI PUSH2 0xDA PUSH2 0x16B JUMP JUMPDEST JUMPDEST MUL OR SWAP1 SSTORE POP JUMP JUMPDEST PUSH1 0x0 DUP1 PUSH1 0x0 SWAP1 SLOAD SWAP1 PUSH2 0x100 EXP SWAP1 DIV PUSH1 0xFF AND SWAP1 POP SWAP1 JUMP JUMPDEST PUSH1 0x2 PUSH1 0x0 DUP1 PUSH2 0x100 EXP DUP2 SLOAD DUP2 PUSH1 0xFF MUL NOT AND SWAP1 DUP4 PUSH1 0x2 DUP2 GT ISZERO PUSH2 0x11D JUMPI PUSH2 0x11C PUSH2 0x16B JUMP JUMPDEST JUMPDEST MUL OR SWAP1 SSTORE POP JUMP JUMPDEST PUSH1 0x0 PUSH1 0x1 PUSH1 0x2 DUP2 GT ISZERO PUSH2 0x13A JUMPI PUSH2 0x139 PUSH2 0x16B JUMP JUMPDEST JUMPDEST SWAP1 POP SWAP1 JUMP JUMPDEST PUSH1 0x1 PUSH1 0x0 DUP1 PUSH2 0x100 EXP DUP2 SLOAD DUP2 PUSH1 0xFF MUL NOT AND SWAP1 DUP4 PUSH1 0x2 DUP2 GT ISZERO PUSH2 0x164 JUMPI PUSH2 0x163 PUSH2 0x16B JUMP JUMPDEST JUMPDEST MUL OR SWAP1 SSTORE POP JUMP JUMPDEST PUSH32 0x4E487B7100000000000000000000000000000000000000000000000000000000 PUSH1 0x0 MSTORE PUSH1 0x21 PUSH1 0x4 MSTORE PUSH1 0x24 PUSH1 0x0 REVERT JUMPDEST PUSH1 0x3 DUP2 LT PUSH2 0x1AB JUMPI PUSH2 0x1AA PUSH2 0x16B JUMP JUMPDEST JUMPDEST POP JUMP JUMPDEST PUSH1 0x0 DUP2 SWAP1 POP PUSH2 0x1BC DUP3 PUSH2 0x19A JUMP JUMPDEST SWAP2 SWAP1 POP JUMP JUMPDEST PUSH1 0x0 PUSH2 0x1CC DUP3 PUSH2 0x1AE JUMP JUMPDEST SWAP1 POP SWAP2 SWAP1 POP JUMP JUMPDEST PUSH2 0x1DC DUP2 PUSH2 0x1C1 JUMP JUMPDEST DUP3 MSTORE POP POP JUMP JUMPDEST PUSH1 0x0 PUSH1 0x20 DUP3 ADD SWAP1 POP PUSH2 0x1F7 PUSH1 0x0 DUP4 ADD DUP5 PUSH2 0x1D3 JUMP JUMPDEST SWAP3 SWAP2 POP POP JUMP JUMPDEST PUSH1 0x0 DUP2 SWAP1 POP SWAP2 SWAP1 POP JUMP JUMPDEST PUSH2 0x210 DUP2 PUSH2 0x1FD JUMP JUMPDEST DUP3 MSTORE POP POP JUMP JUMPDEST PUSH1 0x0 PUSH1 0x20 DUP3 ADD SWAP1 POP PUSH2 0x22B PUSH1 0x0 DUP4 ADD DUP5 PUSH2 0x207 JUMP JUMPDEST SWAP3 SWAP2 POP POP JUMP INVALID LOG2 PUSH5 0x6970667358 0x22 SLT KECCAK256 RETURNDATASIZE 0xA5 PREVRANDAO 0xF8 CREATE2 0xF6 0xD8 SLT 0xBC XOR 0xD6 MUL SWAP8 0xD9 0xF9 EXP 0xAF PUSH26 0xB32449A7C041BCB314ACEBEB05E764736F6C6343000812003300 "
				},
				"gasEstimates": {
					"creation": {
						"codeDepositCost": "123000",
						"executionCost": "171",
						"totalCost": "123171"
					},
					"external": {
						"getChoice()": "2568",
						"getDefaultChoice()": "407",
						"setLarge()": "24453",
						"setMed()": "24497",
						"setSm()": "24409"
					}
				},
				"methodIdentifiers": {
					"getChoice()": "67cb61b6",
					"getDefaultChoice()": "843f7258",
					"setLarge()": "694ebe4f",
					"setMed()": "f9395150",
					"setSm()": "54bb5425"
				}
			},
			"storageLayout": {
				"storage": [
					{
						"astId": 8,
						"contract": "enum.sol:Test6",
						"label": "choice",
						"offset": 0,
						"slot": "0",
						"type": "t_enum(FreshJuiceSize)5"
					}
				],
				"types": {
					"t_enum(FreshJuiceSize)5": {
						"encoding": "inplace",
						"label": "enum Test6.FreshJuiceSize",
						"numberOfBytes": "1"
					}
				}
			},
			"userdoc": {
				"kind": "user",
				"methods": {},
				"version": 1
			}
		}
	}
}